1009990799 0USA     20000REAGAN     9999996999666999999999699996999699996999119991996999999999999969999699999699919699691996699969999999996969699619666696669969696966699199996996999999999999999699991999999969666999999996999999999996999919699996919699999966699996999999999666999999999999699999999999999699996996696199999999999999919999999699999999999919999999999669669961919996999999999999969699999699999999966999999999999999999996999999999999999999169999999199699969999699669999999999999969966999999969969999999999999969999996191996999999999699966999999999169699699991661699911999996999699966669996969966696996699619991616699996966969999999999969999969999999699999999996999199999699969696996699999969999999999969996911999999969691999969919191999699999991196996969999919999699999919919919999999699999996969999999199199999199999199966919999996999999999969969699999996999999999999999969996699999999999999699999999999699999999696999996999969999999999999999969999999999999999999999916999999969199996969999996996969199999999699996969999999669999999999999969999919991999999999999999999999999199991919999996999999999999999991999999999999999699999999699999991991916999999969999996999199999996999999919999999919919191999911999999999699999999999199999991199999999919999999996999991999699999999999999999199919999699996999999999999969619199999996999999699199199999919999691619999999699919999999919999999991999991191611161191999999999999999999999999999919199999911699199199966999999999999661199999999999966999999969996699999699999999199911111919199999991111111111699999999991996999991999999999999699999999999999999999999999999999999999999999999969699169996916199999699999999999999999999999991999999199996911699196999991111999999999969191991119999999999999999999999999999999999999999999999
1001406681 1ALASKA  20001YOUNG  D   6616961111191999999999999999996919961161616666966666166111611161611616111611616161611616666966116161616161616661666696661661616666616166111111161616116616616616661116166111611166116616661611166651111166166661911161666111116111611661199999161911666666161611666116611161116666666111611661661661611161111161166611196616111166111116161111616111111111116111661119999999599995959996161661119666616661111111111111616111111661161161166166661611161161169111111119999616611166111166111111161611611161191999166161166166666661661111616111111616161111611161116616616166116116169166619999999161166616619166166111161111166166661166116111166666666116166161199999999966111116161616161116161111611116111616611166161111166611161161161191161116166161116111166166611111611661611661699999996116111161196611166116611616166661666111161616611616661661111611111961111666611166111111111116111611111111111111111111111116111111116611111116111666161166119161611111611110000000000000000000000000000000000000000000000000000000000000000000000000000000000000000000000000000000000000000000000000000000000000000000000000000000000000000000000000000000000000000000000000000000000000000000000000000000000000000000000000000000000000000000000000000000000000000000000000000000000000000000000000000000000000000000000000000000000000000000000000000000000000000000000000000000000000000000000000000000000000000000000000000000000000000000000000000000000000000000000000000000000000000000000000000000000000000000000000000000000000000000000000000000000000000000000000000000000000000000000000000000000000000000000000000000000000000000000000000000000000000000000000000000000000000000000000000000000000000000000000000000000000000000000000000000000000000000000000000000000000000000000000000000
1001509041 1ALABAMA 20011CALLAHAN   6616161611161196616111611166116111611116611666666116116111166166111616111611666111611616611166116111116161666666666666661161636166611166116116116116111616616116991116116166111161111116161611116661161616116116111611611611111616111111616661111616111116116616116166111111116666616111111661911161616991111116166111111961116166111111111611616116111111111111166661116611666616161996161661611611111116161111111111666111166661161116666161661611669161161116111119916616661166111191111199999616611111161616111161661666666661161161616111616616161111161161116161611166116616161166611166661611111616666116166111611111116166111166111111111111111116166161661116111116111116161111111111111116661111111116616161111111116111166611169111161116161611116161666166666111616661166161611116616116111161116611116116611616116661661111161611616116663444333433333434961111161166111111111111611611111111111111111111616111111111116111111111111666161166611611611111111110000000000000000000000000000000000000000000000000000000000000000000000000000000000000000000000000000000000000000000000000000000000000000000000000000000000000000000000000000000000000000000000000000000000000000000000000000000000000000000000000000000000000000000000000000000000000000000000000000000000000000000000000000000000000000000000000000000000000000000000000000000000000000000000000000000000000000000000000000000000000000000000000000000000000000000000000000000000000000000000000000000000000000000000000000000000000000000000000000000000000000000000000000000000000000000000000000000000000000000000000000000000000000000000000000000000000000000000000000000000000000000000000000000000000000000000000000000000000000000000000000000000000000000000000000000000000000000000000000000000000000000000000000000
1001071741 2ALABAMA 20001DICKINSON  6616161696169666619999911666166116161111616661666966111111166166611616111611616111616116616166116111616161616661666666661661616666611166111116166116119111616616661116116166111169111116161611166661661616611616161661666611111116111611666666999666611116166611616166111161199619996911661611161166991691111111966111666616116166611116111111619616111111111111166911196616666616169966161661911611111116161161111111666111166661111166666166661611661161161116111166199995611166111161111196661619999961161916166161661669966661661611616161661616161999991161116661616166111616166166611116661616161616666116166161661111166166661166619111166191161116166661611166111166111116161166161161161111661111111666616111111111116111166611161191161116161611116111166166666111616661666661699999996166111161166616699116611616116661666111111611611116661661111661116616169611111166111111111116111611616111111111111111616111111111116611111111111669161666661611699999999990000000000000000000000000000000000000000000000000000000000000000000000000000000000000000000000000000000000000000000000000000000000000000000000000000000000000000000000000000000000000000000000000000000000000000000000000000000000000000000000000000000000000000000000000000000000000000000000000000000000000000000000000000000000000000000000000000000000000000000000000000000000000000000000000000000000000000000000000000000000000000000000000000000000000000000000000000000000000000000000000000000000000000000000000000000000000000000000000000000000000000000000000000000000000000000000000000000000000000000000000000000000000000000000000000000000000000000000000000000000000000000000000000000000000000000000000000000000000000000000000000000000000000000000000000000000000000000000000000000000000000000000000000000
1001103741 3ALABAMA 10001NICHOLS  B 1161111111111111116661611916116116111111611116666911666166111161911161666119665911616116619959991111666166666666666696661161616166661611111111111611111111116116116611661611611111666666161661111111161166166161111166616111111111611611116661111161111616111611111111616111116996696111111161661161611611111116116611111119111169999991161111119995111111116616111611116611611161669999999111111911111116111111111116951199996661111111119119111116161191116166119299911116911661111111111111111911111911111611111111111116199911911111611111166611161116111169116911119116111616161169991116661611116616611166116111661111191161199296111111191111166111191611961111999999999911111119961111191111661116116111611161161111111111191661111991161161611111111111111611161111116111199599999995991199111161999999291116111111611111161199999999929991111661111161611661111666611199111111111119111611111111111111111111116111111111111111111111161661111161111111111111111110000000000000000000000000000000000000000000000000000000000000000000000000000000000000000000000000000000000000000000000000000000000000000000000000000000000000000000000000000000000000000000000000000000000000000000000000000000000000000000000000000000000000000000000000000000000000000000000000000000000000000000000000000000000000000000000000000000000000000000000000000000000000000000000000000000000000000000000000000000000000000000000000000000000000000000000000000000000000000000000000000000000000000000000000000000000000000000000000000000000000000000000000000000000000000000000000000000000000000000000000000000000000000000000000000000000000000000000000000000000000000000000000000000000000000000000000000000000000000000000000000000000000000000000000000000000000000000000000000000000000000000000000000000
1001100041 4ALABAMA 10001BEVILL  T  1161111111191111169999911116116116111111619916661111666666111111111161616111666111111119999999991111616166661661666616661161616166666611199999999592999999999999116611661611611116666661161169911111111166166661616166666119111111666666199999999196666666111611161611666111611116616111116161666611611691111116111661116111111111161991161111111196111111116666611111111611111161661991616111111116616611111111111116161111116161111111111111111616161161116164341161111111111611116116111111116111111111111611119111111119111111111111611111166611111116611161116116111161111699999999999999999161111616611166116611661111111161111116111111116666666111111111611111111111111111111111161611111111661116116111611166161111111611111161111111169161611161111116111611161111116911166111199999991111191111111111111111191111111111161111111666111611111111111111611661111166611169111111111111111611111111111111111111111111111111111111111111111661111161999999999999999990000000000000000000000000000000000000000000000000000000000000000000000000000000000000000000000000000000000000000000000000000000000000000000000000000000000000000000000000000000000000000000000000000000000000000000000000000000000000000000000000000000000000000000000000000000000000000000000000000000000000000000000000000000000000000000000000000000000000000000000000000000000000000000000000000000000000000000000000000000000000000000000000000000000000000000000000000000000000000000000000000000000000000000000000000000000000000000000000000000000000000000000000000000000000000000000000000000000000000000000000000000000000000000000000000000000000000000000000000000000000000000000000000000000000000000000000000000000000000000000000000000000000000000000000000000000000000000000000000000000000000000000000000000
1001441941 5ALABAMA 10001FLIPPO  R  1161111111111111116666199116116166111161611116661111666166111161191161616199666111111111111116111111116166661161666666661161611166666611111111111611191111196119116611661611611166666611161661611169999166166111666199999911111111666611119661161161661116111611911111666111116116616111111161666111611911111116911661911111111191161611161111111111111111116666611911116611111161611999999911111111116611911111111116169911111661111111111111111116161161116166111111111111111611616161111111116111111111191619111111111116111999111111611111166611161991111161116111111161116616161199991116661161111616611166116111661111111161111996111111116666666111116191611111999911111116111191161991111111661116116111611166161191199111111161119991116161911111111116111616161111116111166111166661111111111161111111611116111111111111161111111666119991111619999161611661999999611169111111111111111611111111111111111111111111111111111111111111111161111161119999911111111110000000000000000000000000000000000000000000000000000000000000000000000000000000000000000000000000000000000000000000000000000000000000000000000000000000000000000000000000000000000000000000000000000000000000000000000000000000000000000000000000000000000000000000000000000000000000000000000000000000000000000000000000000000000000000000000000000000000000000000000000000000000000000000000000000000000000000000000000000000000000000000000000000000000000000000000000000000000000000000000000000000000000000000000000000000000000000000000000000000000000000000000000000000000000000000000000000000000000000000000000000000000000000000000000000000000000000000000000000000000000000000000000000000000000000000000000000000000000000000000000000000000000000000000000000000000000000000000000000000000000000000000000000000
1001502241 6ALABAMA 10001ERDREICH  B1161111111111111116666111116116116111161611616661911666161111111111111616111666111111116611116111111116166661666666616661161611166666611111111111611191111116111116619661611611166666611161661611161161166166111666116611611111111666611666661161161661611111611111161661111116666116111111161666111611611111116911661111161111161161611161111611111111111116666111611116611611161661111616111111111116611111111111116161111111661161111661111111116161161116166111119911116111611616111111111116111611111111611111111111116111111111161611111166611161111111161116111111161116616161111611116661161111616611166116111111111111161111116111111111111116161111111611111111111111111111111161161111116161116166111611166161111111111111661111111161161611111111116111611161111116111166111166661111111111161111111611116111111111111161111111666111611111111111111611661166166611166611111111111111611111111111111111111111111111111111111111111111161111161111111111111111110000000000000000000000000000000000000000000000000000000000000000000000000000000000000000000000000000000000000000000000000000000000000000000000000000000000000000000000000000000000000000000000000000000000000000000000000000000000000000000000000000000000000000000000000000000000000000000000000000000000000000000000000000000000000000000000000000000000000000000000000000000000000000000000000000000000000000000000000000000000000000000000000000000000000000000000000000000000000000000000000000000000000000000000000000000000000000000000000000000000000000000000000000000000000000000000000000000000000000000000000000000000000000000000000000000000000000000000000000000000000000000000000000000000000000000000000000000000000000000000000000000000000000000000000000000000000000000000000000000000000000000000000000000
1001541641 7ALABAMA 10001HARRIS  C  1161111111111911111661111116116119911161611116666116666161111161911161616111666111611116611166111111116166661661666696661161616166666611111191191611111111116111116611661611611116666661161661611161161166166111999916611611111111666611166661111161111116111611111161661111916666116111111161666111611611111116111661111111111161161111161611661116111111116616111611116611611161661999999111111116116661191111111116161111111661161111161111111116161161116166111111111116111611616111111111116111611111111611111111111116111111111111611111166611161116111161116111111166116616161111611116661161111616611166116111111111111161111116111111111111116111111111611111119911111111111111161161111111661116116111611166161111111111111661111111161161611111111116111611161111116111166111166661111111111161111111611116611111111111161111111666111611111611111111611661166166611166111111111111111611111111111111111111116111111111111111111111111661111161111111611111111110000000000000000000000000000000000000000000000000000000000000000000000000000000000000000000000000000000000000000000000000000000000000000000000000000000000000000000000000000000000000000000000000000000000000000000000000000000000000000000000000000000000000000000000000000000000000000000000000000000000000000000000000000000000000000000000000000000000000000000000000000000000000000000000000000000000000000000000000000000000000000000000000000000000000000000000000000000000000000000000000000000000000000000000000000000000000000000000000000000000000000000000000000000000000000000000000000000000000000000000000000000000000000000000000000000000000000000000000000000000000000000000000000000000000000000000000000000000000000000000000000000000000000000000000000000000000000000000000000000000000000000000000000000
1001200042 1ARKANSA 10001ALEXANDER  1161111181191111116666111111116116111111611116611111666666661611116161966111166116169196619199999661666616661611666699996161661111166611911111111611191116116116116611661611611116666661661666611116116166166661666166666111111111666666116111161999666661111611161611666111619119611199116161666611611991111161111661111119111191911111111119161661116111116669611111111611111161619999999911111166616661111111111116611111111961111611199111116616116661699161661619911111111611111999111111116999999919116111191311116111111991111111611111166616111616611111161196111111111661111116619116116161616161111166166111111111111611111996111111196616666111111116111191119911111111999611161619911111661116666111611166661996661661111111111199961161991161111116111611111111111111169111166661111111999999999999911111611161199999111939911666111611111111111111611661111196611999111111111111111111111111111111111111111111111111111111111111111161911199161111111111111110000000000000000000000000000000000000000000000000000000000000000000000000000000000000000000000000000000000000000000000000000000000000000000000000000000000000000000000000000000000000000000000000000000000000000000000000000000000000000000000000000000000000000000000000000000000000000000000000000000000000000000000000000000000000000000000000000000000000000000000000000000000000000000000000000000000000000000000000000000000000000000000000000000000000000000000000000000000000000000000000000000000000000000000000000000000000000000000000000000000000000000000000000000000000000000000000000000000000000000000000000000000000000000000000000000000000000000000000000000000000000000000000000000000000000000000000000000000000000000000000000000000000000000000000000000000000000000000000000000000000000000000000000000
1001512242 2ARKANSA 10011ROBINSON  T1161111111111111116161111166116166111161611116661116666161611161111661116111666111111116611166111111616161616666666616661161616166616111111111111611111116116116116611616611611116666661161111111161661666166111611166616611111111161611616666111661111116611111111161161111111666616111111161161161611691111116111111616161111161111111161111661611111111116616611111116611611161666999999911111166616661611111111116611111111111161111161111111611161161116116111161111161161611111111111166616111616111111616199911116111111111111111611111166661111616111161966116111161116616161161111166661111111616611116166111161111111166111161111111111111111111111111111111111911111111199611161111111111161116611111611166161116111111111161111111161161611161111116111611161111116111166111166661111111111111611111111111611116161111161111161666111611111661111111611161111166611169611111111111111611111111111111111111111111111111116611111111111161161169111111111111111190000000000000000000000000000000000000000000000000000000000000000000000000000000000000000000000000000000000000000000000000000000000000000000000000000000000000000000000000000000000000000000000000000000000000000000000000000000000000000000000000000000000000000000000000000000000000000000000000000000000000000000000000000000000000000000000000000000000000000000000000000000000000000000000000000000000000000000000000000000000000000000000000000000000000000000000000000000000000000000000000000000000000000000000000000000000000000000000000000000000000000000000000000000000000000000000000000000000000000000000000000000000000000000000000000000000000000000000000000000000000000000000000000000000000000000000000000000000000000000000000000000000000000000000000000000000000000000000000000000000000000000000000000000
1001102042 3ARKANSA 20001HAMMERSCHMI6616111611111116616911611166116166111166611696666116166161616161111611161611666111611116611166111611616161616666666616661161616166666166111111111611111616111616161116616116611161111116161111116161661166111111111611616611111199999999916661161666661616116611116111111111111666999911111166661161611611111166116111111111116661111111111111611116111111111111661661116691666616166666661661611111111116161161111111661111116661111111161161661611161161111119111661111116661166111661161166666616616111161616166161191666666911161119611111616669161611161161116111111166116616161166611166661616111616666116169161661111116166661166111111616111116116166661661111119911111111199111661111111111661111116661611161161111111111116611161111161116161161111161666166661111611161611666611116116116111161116611116116611616166661661111161616619996161666116661111616166661161166611111111161611611116111611611111161616611161166116619999999999991161666661661611161611110000000000000000000000000000000000000000000000000000000000000000000000000000000000000000000000000000000000000000000000000000000000000000000000000000000000000000000000000000000000000000000000000000000000000000000000000000000000000000000000000000000000000000000000000000000000000000000000000000000000000000000000000000000000000000000000000000000000000000000000000000000000000000000000000000000000000000000000000000000000000000000000000000000000000000000000000000000000000000000000000000000000000000000000000000000000000000000000000000000000000000000000000000000000000000000000000000000000000000000000000000000000000000000000000000000000000000000000000000000000000000000000000000000000000000000000000000000000000000000000000000000000000000000000000000000000000000000000000000000000000000000000000000000
1001460142 4ARKANSA 10001ANTHONY  B 1161111111111111169666111191116166111111611116661111666666611619111161666111966116166116611166119999966626161611116699999111661111166611111111111611191111999991196611661611611116666666161666611116116166166661666155996111111111666661116611661166666666111611161611166111611116619111111161666611611611111161911661112999111161161611161111161661116119996666611119999611111161611999999911111166616661111111111116611111111161111111111111111116116169696161661611111111111611116111111111616111111111116111119999925211111191111111611111166616111616611111161116111111111661111111111116616611116661111161616111611111111611111596111111116666666111111116191111111111111116199511161611111111661116166111611166661116111611111161111111166161991161111116111611111111116111166111166661111199111161111161611111616161611111111111111666112591111129992111616661111166611166111111111111111611111111111111111111116111111111111111111111111161111161119999911111111110000000000000000000000000000000000000000000000000000000000000000000000000000000000000000000000000000000000000000000000000000000000000000000000000000000000000000000000000000000000000000000000000000000000000000000000000000000000000000000000000000000000000000000000000000000000000000000000000000000000000000000000000000000000000000000000000000000000000000000000000000000000000000000000000000000000000000000000000000000000000000000000000000000000000000000000000000000000000000000000000000000000000000000000000000000000000000000000000000000000000000000000000000000000000000000000000000000000000000000000000000000000000000000000000000000000000000000000000000000000000000000000000000000000000000000000000000000000000000000000000000000000000000000000000000000000000000000000000000000000000000000000000000000
1001544061 1ARIZONA 20001RHODES  J  6616161166161196611111611166166111616161616666666116111111166161611616111611616111611616661166111111116161616661666616666161616166661161111111116116111611916616111166116166611161111116161111616161661116116111111611699911116616111111661666161666111116616116616166111611116616616111661616161166616661116611166111111616116666111116161111616116111111111111111111166616666616161666161661611611111116161611111111616111166666616166166116666611661161161116111116116616661166111161161166666616161161161111166166661666666661661161116161666116161611111161116611616166116116166166611166661611161616666166166166661111166166661116116111161111111166166161661166611166116116161166161116161111661111111166611111161111116111166611661111161616166611116161666166616111616661666166611116116166111161116611166116611616116661666111161661661116461661116611111616494333161166111111111116611611111111111111111111116111111111166611111111111666161166661161611111111110000000000000000000000000000000000000000000000000000000000000000000000000000000000000000000000000000000000000000000000000000000000000000000000000000000000000000000000000000000000000000000000000000000000000000000000000000000000000000000000000000000000000000000000000000000000000000000000000000000000000000000000000000000000000000000000000000000000000000000000000000000000000000000000000000000000000000000000000000000000000000000000000000000000000000000000000000000000000000000000000000000000000000000000000000000000000000000000000000000000000000000000000000000000000000000000000000000000000000000000000000000000000000000000000000000000000000000000000000000000000000000000000000000000000000000000000000000000000000000000000000000000000000000000000000000000000000000000000000000000000000000000000000000
1001056661 2ARIZONA 10001UDALL  M   1161111111111111166666111111116116111111611116661111666666669991111161616191199919166111111169119911161616166111116111116111161111166611111111191611111111116116196611661611611116666661661666611116116966166661666166666111111111666666111111661966666661111111161611666111111116116111916161666611111911191661111661116111111111111611161611161661116111116666611111111611111161611111619111111166616999111111111116611111611161161691991111116116116161616191661611911111991611666111111111116111111111116111111111116111111199111111611111166611111616611111161116111111111661119111611111166961699999999999999111661111911116191696611111199999999991911196199999191191111116111611161611111111161916666111111966961116161611191161111111161161111161111116999991111111111111266111166661991111161111611161611111116161661116111111111666161611111111111111619961111166611116111111111111199911111111111111111111111111999111161111111111111111111111911161111111111110000000000000000000000000000000000000000000000000000000000000000000000000000000000000000000000000000000000000000000000000000000000000000000000000000000000000000000000000000000000000000000000000000000000000000000000000000000000000000000000000000000000000000000000000000000000000000000000000000000000000000000000000000000000000000000000000000000000000000000000000000000000000000000000000000000000000000000000000000000000000000000000000000000000000000000000000000000000000000000000000000000000000000000000000000000000000000000000000000000000000000000000000000000000000000000000000000000000000000000000000000000000000000000000000000000000000000000000000000000000000000000000000000000000000000000000000000000000000000000000000000000000000000000000000000000000000000000000000000000000000000000000000000000
1001445461 3ARIZONA 20001STUMP  B   6616166666666666611111611666161611666166616661166666111111116166661616111661666161611616666166116611116161616666666666666661616666661166116116166116616616611666611166116166111161111116166611166161661116111116111611111611116666111111666666116661111116666116616166111661116666666111611696111166616666116616666111661666616666611116661166666116161111161111166161166616666616166669999961661611111116161661111611196611166616616166666666661661661161161116111166166666661166111661166166666666666166161616169966161666666661661661166661611666661111166161166661616166116616166166611166661616161616666166166166661111166166661166116116661111111166166661661666661666116616661166116166666161666111111666666611116161116111166666661111161616166616116161666169666666666661611666611116956666611161166616166116611666116661666611161111666169966666666661111616666611161669611661611666616611116111116661111161666116161116666611111116166616161666661161611161611110000000000000000000000000000000000000000000000000000000000000000000000000000000000000000000000000000000000000000000000000000000000000000000000000000000000000000000000000000000000000000000000000000000000000000000000000000000000000000000000000000000000000000000000000000000000000000000000000000000000000000000000000000000000000000000000000000000000000000000000000000000000000000000000000000000000000000000000000000000000000000000000000000000000000000000000000000000000000000000000000000000000000000000000000000000000000000000000000000000000000000000000000000000000000000000000000000000000000000000000000000000000000000000000000000000000000000000000000000000000000000000000000000000000000000000000000000000000000000000000000000000000000000000000000000000000000000000000000000000000000000000000000000000
1001542961 4ARIZONA 20001KYL  J     6616161666161966611111611666161111666166616661166966111111166166611616111611666161611616666166116111116161616666666666666661616666611166116116166116616611611616661166166166111161111116166611166161661116111111111611111611116666111111661666161666111116666616616166111661116666666111611616111166616661116616666111661666116669111116661111616116111111111111166161166616666616169999999961611611111116661666111611666911166666616166666116666611661161161116111166166616661166161161166166666616666166161616166166661666666699661661116661616661161111111161116661616166116116166166611166661616161616966166166166661111166166661166116116661111111166166161661166611166111616199166116166691161666111111666666111111161116111166616661111161616166616116161666166666116666661611666661116666166111161166616166116611666116661666111161161666116666661116611111616666111199599111111611116611611111111111111111161116111111111166611111111116666161169661161611111619990000000000000000000000000000000000000000000000000000000000000000000000000000000000000000000000000000000000000000000000000000000000000000000000000000000000000000000000000000000000000000000000000000000000000000000000000000000000000000000000000000000000000000000000000000000000000000000000000000000000000000000000000000000000000000000000000000000000000000000000000000000000000000000000000000000000000000000000000000000000000000000000000000000000000000000000000000000000000000000000000000000000000000000000000000000000000000000000000000000000000000000000000000000000000000000000000000000000000000000000000000000000000000000000000000000000000000000000000000000000000000000000000000000000000000000000000000000000000000000000000000000000000000000000000000000000000000000000000000000000000000000000000000000
1001510561 5ARIZONA 20011KOLBE  J   6616161666161666616111611666996111666161616666666666161161116166611616111661666161611611166166116611116161616666666666661661616666661166111111166116196111611616661166166166611161111116161111666161661166111111111911111611116116111111161666111666611111161616616116611661116666666111611616161111616661116616166111111636116619111616161111616116116111111111116111166616666616169999999961611611111666111116111111666111166166616166166116666611661161161111611161116616611166666161161116661616666161161999166166661166666661661161116161166166161111161161116611616166116116166661613344461611166616666166166161611111166166661136116111161111111166166161661166611161116116161116161111161111661111116666611166161161116111166666661111161111161616116161666166666111666661611661611116116166111161166661666111611616116661616111161666661616661161116611111616944433161166111111111116611611111111111111111161116111111111166611111111116666111166161161611111611110000000000000000000000000000000000000000000000000000000000000000000000000000000000000000000000000000000000000000000000000000000000000000000000000000000000000000000000000000000000000000000000000000000000000000000000000000000000000000000000000000000000000000000000000000000000000000000000000000000000000000000000000000000000000000000000000000000000000000000000000000000000000000000000000000000000000000000000000000000000000000000000000000000000000000000000000000000000000000000000000000000000000000000000000000000000000000000000000000000000000000000000000000000000000000000000000000000000000000000000000000000000000000000000000000000000000000000000000000000000000000000000000000000000000000000000000000000000000000000000000000000000000000000000000000000000000000000000000000000000000000000000000000000
1001500971 1CALIFOR 10001BOSCO  D   1919111111111911166666699111996166111119611116661111666669616619111661666611166116166196611966991611166616161611661611111911661161666611199999999999991111116111111661661619991116666661616666611116111166166661166696666111111111999999916611611999999999911111111611666119111116111111116161666111611611111661111661111161111161161111166111161661116111119666611111116611111161616999999911111166616661619999999999991111111661161611119991111616116111616161661611199119111661666116119999999119116199916111119911116111166111111111611111166611116616611611161116111111111661111116611116111161616661111161616111111911111611111616611111116966666611111116199111111199999999111611161611111111661116666111611166661999991611111161191111161161611111111116111611111111111111166111166661991111111161111161111111111161661111111111111666161611191111111111616661111166611116111111111111111111111111111111111111111111111111161611111111111161111699991111111161111110000000000000000000000000000000000000000000000000000000000000000000000000000000000000000000000000000000000000000000000000000000000000000000000000000000000000000000000000000000000000000000000000000000000000000000000000000000000000000000000000000000000000000000000000000000000000000000000000000000000000000000000000000000000000000000000000000000000000000000000000000000000000000000000000000000000000000000000000000000000000000000000000000000000000000000000000000000000000000000000000000000000000000000000000000000000000000000000000000000000000000000000000000000000000000000000000000000000000000000000000000000000000000000000000000000000000000000000000000000000000000000000000000000000000000000000000000000000000000000000000000000000000000000000000000000000000000000000000000000000000000000000000000000
1001542071 2CALIFOR 20001HERGER  W  6616161616666116611111611166111611616166611661166116166111116166111619111661666191611616661166111611116161616666666616666161616166661161111116116116111616616116661166116166111161111116161111116161111611111116119911111611916666111111666666111666111116616116619166111661116666666111661616111166616661116661166111616666116666111116161111616116111111111111161111166616666616161666161661611611111116661166111611166111166616661166166166661111661161161116111166116616661166111161161166661616666161191616166166161666666699661661116161616666661111161161161611166166116116166166611166661616166616666116166166661111166166691166116111661161111961166661661166611166116116161116166161161611661111116666616611111111116111166611661161161116161611116111166166616111616661616661611116116166611161166616166116111616116661666111161111666116661666116661111616166611161166111111611166111611111111111111111161616116111111161111111111111666111166661611611111611110000000000000000000000000000000000000000000000000000000000000000000000000000000000000000000000000000000000000000000000000000000000000000000000000000000000000000000000000000000000000000000000000000000000000000000000000000000000000000000000000000000000000000000000000000000000000000000000000000000000000000000000000000000000000000000000000000000000000000000000000000000000000000000000000000000000000000000000000000000000000000000000000000000000000000000000000000000000000000000000000000000000000000000000000000000000000000000000000000000000000000000000000000000000000000000000000000000000000000000000000000000000000000000000000000000000000000000000000000000000000000000000000000000000000000000000000000000000000000000000000000000000000000000000000000000000000000000000000000000000000000000000000000000
1001464971 3CALIFOR 10001MATSUI  R  1161111111111111166666111111116169111111611116661111666666666611111661666111116116166116611166111661661616161611111111111111161111166611111111111611111111116119116611661611611116666661666666611116119166166661666166666111111111666666116611661111666661111611161611666111611111111111111161666611611111111661111661111111111169161611111611161661995999996666611111111611111161611991616111111166666661611111111116611111111661196611111111116116116111616169991611111111111611666116111911111111116911116111119911116111111111111111611111166611111616611111161116111111111661111116611111116161616161111161611111661111111611111696611111199999999991111116111111111911111116199611161611111116161116666111611166661116161611111161111111161161611161111116111611111111111111196111166661111111161111611161611111111111661116191111111666999991111111111111616161111166611599111111111119111111111111111111111111111111111111161611111111111161111119991111111111111110000000000000000000000000000000000000000000000000000000000000000000000000000000000000000000000000000000000000000000000000000000000000000000000000000000000000000000000000000000000000000000000000000000000000000000000000000000000000000000000000000000000000000000000000000000000000000000000000000000000000000000000000000000000000000000000000000000000000000000000000000000000000000000000000000000000000000000000000000000000000000000000000000000000000000000000000000000000000000000000000000000000000000000000000000000000000000000000000000000000000000000000000000000000000000000000000000000000000000000000000000000000000000000000000000000000000000000000000000000000000000000000000000000000000000000000000000000000000000000000000000000000000000000000000000000000000000000000000000000000000000000000000000000
1001462471 4CALIFOR 10001FAZIO  V   1161111111111111166666111111116116111111611116661111666666666611116161666111166116166116611116111661666616161611166611111111661111666611111111111611111111116116116611661611611616666661661666611116116166166661666166666111111111666666116611661166666661111611161611666111611116111111116181666611611111111161111661116111111111161611111111161661116161616666611111111699299992929991616111111166616661111111111116611111111661111699991111116116116111616161991611111111111611666111111111116111111199916999991811116111111111911111611111166611111616611111161116111111111661119999991111111161616661111166616111611111111611111616611111116666666611111116111111112911111116111611161611191111661116666111611166661116161611111161111111111161611161111116111611111111111111166111166661111111161511611161611111116161661116111161111666111611111111111111616161111166611116111111111111111111111111111111111111111111111111111111111111111161111111333333311111111110000000000000000000000000000000000000000000000000000000000000000000000000000000000000000000000000000000000000000000000000000000000000000000000000000000000000000000000000000000000000000000000000000000000000000000000000000000000000000000000000000000000000000000000000000000000000000000000000000000000000000000000000000000000000000000000000000000000000000000000000000000000000000000000000000000000000000000000000000000000000000000000000000000000000000000000000000000000000000000000000000000000000000000000000000000000000000000000000000000000000000000000000000000000000000000000000000000000000000000000000000000000000000000000000000000000000000000000000000000000000000000000000000000000000000000000000000000000000000000000000000000000000000000000000000000000000000000000000000000000000000000000000000000
1001508071 5CALIFOR 10011BURTON  S  0000099999990000000000000000000000000000000000000000000000000000000000000000000000000000000000000000000000000000000000000000000000000000000000000000000000000000000000000000000000000000000000000000000000000000000000000000000000000000000000000000000000000000000000000000000000000000000000000000000000000000000000000000000000000000000000000000000000000000000000000000000000000000000000000000000000000000000000000000000000000000000000000000000000000000000000000000000000000000000000000000000000000000000000000000000000000000000000000000000000000000000000000000000000000000000000000000000000000000000000000000000000000000000000000000000000000000000000000000000000000000000000000000000000000000000000000000000000000000000000000000000000000000000000000000000000000000000000000000000000000000000000000000000000000000000000000000000000000000000000000000000000000000000000000000000000000000000000000000000000000000000000000000000000000000000000000000000000000000000000000000000000000000000000000000000000000000000000000000000000000000000000000000000000000000000000000000000000000000000000000000000000000000000000000000000000000000000000000000000000000000000000000000000000000000000000000000000000000000000000000000000000000000000000000000000000000000000000000000000000000000000000000000000000000000000000000000000000000000000000000000000000000000000000000000000000000000000000000000000000000000000000000000000000000000000000000000000000000000000000000000000000000000000000000000000000000000000000000000000000000000000000000000000000000000000000000000000000000000000000000000000000000000000000000000000000000000000000000000000000000000000000000000000000000000000000000000000000000000000000000000000000000000000000000000000000000000000000000000000000
1001544871 5CALIFOR 10022PELOSI N   0000000000000000000000000000000000000000000000000000000000000000000000000000000000000000000000000000000000000000000000000000000000000000000000000000000000000000016611661611611616666661661666611166116666196661666166666111111111666666116111611966666661111611161611666111911111111111116161666611111111111152191661116169111161161111111611161661116161616666611111111611111961611991616111111166666661611111111116619111111161661611111119116116125421616161661619911111116611666116111111616111166111116111111811116111111111111111611111166611116616611111161116111111111661111111611111116161616161111161611611111111111611611616611111116666666611111116111111119991111191111611161611111616111116666611611166661116161611111161166661116161611111161116111611111111111111166111166661111111191616611161611111116161661116111111111666161611111111111111666161111366616116611111111111111111111111111111111111111111111111161111111111111169911111991111199999999990000000000000000000000000000000000000000000000000000000000000000000000000000000000000000000000000000000000000000000000000000000000000000000000000000000000000000000000000000000000000000000000000000000000000000000000000000000000000000000000000000000000000000000000000000000000000000000000000000000000000000000000000000000000000000000000000000000000000000000000000000000000000000000000000000000000000000000000000000000000000000000000000000000000000000000000000000000000000000000000000000000000000000000000000000000000000000000000000000000000000000000000000000000000000000000000000000000000000000000000000000000000000000000000000000000000000000000000000000000000000000000000000000000000000000000000000000000000000000000000000000000000000000000000000000000000000000000000000000000000000000000000000000000
1001501171 6CALIFOR 10001BOXER  B   1161111111191111166666111111116166111111611116611111666666616611116161666191166116166111111166999611661616161611111111111111161111166619911111111611191111116116116611661611611616666661611655911166116666166661999966666111111111666666111111611999999991111611161611666111611111111611116161666611161111111661911661119991111161161111161611161661116161616666611111111611111161616999999911111166666661619999999995921111111161661611111111116116116111616161661619911111116611666111111111616111166111116111111811116111116111111119991111166611116999991111161116111111111661111111611111116161616161161161611611161111111611611111119111116666666611111116111111169911111116111611161611111696111116666611611166661116169961111161166169916161611161991116111611111111111111166111199592999911161111611161619111116111661929111111111666161611111111111111666161111166525229611111111111111111111111111111111111111111111111161111111111111161611119111111199999999920000000000000000000000000000000000000000000000000000000000000000000000000000000000000000000000000000000000000000000000000000000000000000000000000000000000000000000000000000000000000000000000000000000000000000000000000000000000000000000000000000000000000000000000000000000000000000000000000000000000000000000000000000000000000000000000000000000000000000000000000000000000000000000000000000000000000000000000000000000000000000000000000000000000000000000000000000000000000000000000000000000000000000000000000000000000000000000000000000000000000000000000000000000000000000000000000000000000000000000000000000000000000000000000000000000000000000000000000000000000000000000000000000000000000000000000000000000000000000000000000000000000000000000000000000000000000000000000000000000000000000000000000000000
1001425671 7CALIFOR 10001MILLER  G  1161111111121111116666111111116166191111611116611191666666616611116661666111161116166111119999991611161616169611111111111111161111166611199999999999991111916116116611661611611616666661616966611166116666166661666199999911111111666666111111611166666661191661161611666111611111111111111161666611111111111661111661116169111111161611161611161661116161616666611111111111111161661119999919111166666661611111111116611111111161661611111111116116116611616161661619911111116611666196111116616611166111116111191991116111111111111111691111166611111116611111161616111111111661119929991111116961616161211961611111111111111611611611111111116669666111111116111111119911111111111611161616111616119116668111111966661916161111111161166661116161611611161116199611111111111111169211166661191111161611611161619111116191661116191111111666161611191111111111666161111169616199611111111111111111111111111111911911111111111111161111111111111161111199991616111111111110000000000000000000000000000000000000000000000000000000000000000000000000000000000000000000000000000000000000000000000000000000000000000000000000000000000000000000000000000000000000000000000000000000000000000000000000000000000000000000000000000000000000000000000000000000000000000000000000000000000000000000000000000000000000000000000000000000000000000000000000000000000000000000000000000000000000000000000000000000000000000000000000000000000000000000000000000000000000000000000000000000000000000000000000000000000000000000000000000000000000000000000000000000000000000000000000000000000000000000000000000000000000000000000000000000000000000000000000000000000000000000000000000000000000000000000000000000000000000000000000000000000000000000000000000000000000000000000000000000000000000000000000000000
1001301171 8CALIFOR 10001DELLUMS  R 1161111111111911166666111111116166111111619116611111666666666611916161966111116116166111111111111616661616161661111111116111161111166661111111111661111116116116116611661611631616666661616666611166116666666661666166666111111111666666116111616961666661191661161611666111611111111611116161666611161111111161111661116169111111161611111611169661119961616666611911191119111161611999999911111966666661611111111116611111111161661611111111116116116611696161661619199111116611666118111111616111166111196111191819916111166111111111611111166611116116611611161916111111111661111111611611116161616161191661611611111111116611611611619161116666666511111196211111161111111111111611661611911616111919666111611166661116161611119161166661116161611111961116111611111111111111166111166661191191161616611161691611116991661116911161111666111611191116111111666161111166616616611111111111111111111111111111111111111111111111111111111111111161111191111161611111111190000000000000000000000000000000000000000000000000000000000000000000000000000000000000000000000000000000000000000000000000000000000000000000000000000000000000000000000000000000000000000000000000000000000000000000000000000000000000000000000000000000000000000000000000000000000000000000000000000000000000000000000000000000000000000000000000000000000000000000000000000000000000000000000000000000000000000000000000000000000000000000000000000000000000000000000000000000000000000000000000000000000000000000000000000000000000000000000000000000000000000000000000000000000000000000000000000000000000000000000000000000000000000000000000000000000000000000000000000000000000000000000000000000000000000000000000000000000000000000000000000000000000000000000000000000000000000000000000000000000000000000000000000000
1001405371 9CALIFOR 10001STARK  F   1161111111111111166666111111169929911111611116611119666666611611916661666111119119166111119999991999961616161911111111111111161111166661111111111611111116116119116611661611611696666661616666611166116666166661666166666111111611666666119111616166666661111611161611666111611111111611111166666611111199991661111661116161111111161611611611161961116161616666611111111111111161669991616911111166666661611111111116991111111161661691191111116116116611699999999999999111116611696191111111616611166911116999111611916111111111111111611111166611999996611611199916111111111661111111111611116161616161111661611111111111116611611611611191116666666111111116111111161111111116199611161619911616111116666111611166661116111611111161166619995999929999161116199991111111161111166116166661111111999999999999999999999999999999111161111666161611111116111111616961111666616116611111111111111111111111111111111111111111111111161611111111111161611169111116199999999950000000000000000000000000000000000000000000000000000000000000000000000000000000000000000000000000000000000000000000000000000000000000000000000000000000000000000000000000000000000000000000000000000000000000000000000000000000000000000000000000000000000000000000000000000000000000000000000000000000000000000000000000000000000000000000000000000000000000000000000000000000000000000000000000000000000000000000000000000000000000000000000000000000000000000000000000000000000000000000000000000000000000000000000000000000000000000000000000000000000000000000000000000000000000000000000000000000000000000000000000000000000000000000000000000000000000000000000000000000000000000000000000000000000000000000000000000000000000000000000000000000000000000000000000000000000000000000000000000000000000000000000000000000
100105837110CALIFOR 10001EDWARDS  D 1161111199911111166666111111116166111111611116611111666666666611116161666111166116166111111111111666661616161111111111111111161111166661199999999999991116116116116611661611611616666661616666611116116166166661666166666111111611666955916111661966666661111661161611666181611111111111116161666611111111111161111661166161111111161611111111161661116661616666611611111111111161611111699111111166666661611111111116611111111161661699991111116116116611616161661611111111116611666111111199999116166111116111111611116111111111111111611111166611111616611611161116111111111661111116611611116161616161111661611111111111116611611616611161116666666611111116111111111111111111111911661611111116111116666611616166661116161661111161166111111161611611161116111611111111111111166111166661991111161616611161611111116161669119111161119666111611111111111111666161111166616619611111111111111111111111111111111111111111111111111111111191111161111699111111199999999950000000000000000000000000000000000000000000000000000000000000000000000000000000000000000000000000000000000000000000000000000000000000000000000000000000000000000000000000000000000000000000000000000000000000000000000000000000000000000000000000000000000000000000000000000000000000000000000000000000000000000000000000000000000000000000000000000000000000000000000000000000000000000000000000000000000000000000000000000000000000000000000000000000000000000000000000000000000000000000000000000000000000000000000000000000000000000000000000000000000000000000000000000000000000000000000000000000000000000000000000000000000000000000000000000000000000000000000000000000000000000000000000000000000000000000000000000000000000000000000000000000000000000000000000000000000000000000000000000000000000000000000000000000
100148377111CALIFOR 10001LANTOS  T  1161111111191111166666199111116166111111611116661911666666616611111161616111166116166116611166111611666616161661166616161111161111666611111111111611111111116116116611661611611116666661661666611116116166166661666166616111111119999999916111161916666611111611161611666111611111111199111161666611111611991152111661111111111111161111111111161661116111116666611111111611111161611111616111111166616661111111111116611111111661161611191111116116116161616161661619999111111611666111111111116111111191116999111111116111111111111111611111166611111616611111161116111111111661111166611116616161116661111166616111111111111611111611611111116666666111111116111111111111111111199111161611111116661116666111611166661116119611111161111111161161611111111116111611111111111111166111166661111111111161111961611111111111661116111111111666111619911111111111616661111166611116111111111111111111111111111111111111111111111111119111111111111161111161999999999999999920000000000000000000000000000000000000000000000000000000000000000000000000000000000000000000000000000000000000000000000000000000000000000000000000000000000000000000000000000000000000000000000000000000000000000000000000000000000000000000000000000000000000000000000000000000000000000000000000000000000000000000000000000000000000000000000000000000000000000000000000000000000000000000000000000000000000000000000000000000000000000000000000000000000000000000000000000000000000000000000000000000000000000000000000000000000000000000000000000000000000000000000000000000000000000000000000000000000000000000000000000000000000000000000000000000000000000000000000000000000000000000000000000000000000000000000000000000000000000000000000000000000000000000000000000000000000000000000000000000000000000000000000000000
100154287112CALIFOR 20001KONNYU  E  6616161161161966611111611166166111661166116666666666111111116161611616111691616161611616666161119661116166666666666666666661616966666169911111166116116611616616661166116166111161161116166622966161661611111116111611111611116666111111611616111696111116666116616166111661116666666111611696111166611191111692166111611166116166111611111111616111111111111111666661116616666616166966161661611111111116691111111111616111166161161166166169666611661161161616111116999616661166666191111166669616666161161616166111661666666199661169996161666666161111111161161111616166116616166166619999999611166616666116166161661111161166699991116111166111111116966192259999999599999999999199111991699199699999111699619611999111119111196111919199961611111666916111666169911111699961966699611616996199111161196661199111111916999959961111161111966119691661116911191999999911161166611111111119611611111161111111161111616161111666166611111111161669111166961611911111111110000000000000000000000000000000000000000000000000000000000000000000000000000000000000000000000000000000000000000000000000000000000000000000000000000000000000000000000000000000000000000000000000000000000000000000000000000000000000000000000000000000000000000000000000000000000000000000000000000000000000000000000000000000000000000000000000000000000000000000000000000000000000000000000000000000000000000000000000000000000000000000000000000000000000000000000000000000000000000000000000000000000000000000000000000000000000000000000000000000000000000000000000000000000000000000000000000000000000000000000000000000000000000000000000000000000000000000000000000000000000000000000000000000000000000000000000000000000000000000000000000000000000000000000000000000000000000000000000000000000000000000000000000000
100142577113CALIFOR 10001MINETA  N  1161111111111111166666111111116166111111611116611111666666666611111161666111166116166191111166119661661616161111116116616111161111166661111111111611111111116116116611661611611616666661661666611116116166166661666166666111111111666666111111661166666666111611161611666111611111111111116161666611111111111188911661116161111161161111111111161661116111616666611111111611111161611991616111111169666661611111111116611111111661699999991111116116195921616161661611111111111611656111111111616116166111116111111111116111111111111119611111166611166616611111161116111111111661111116611111116161616161111661616111111111111611611616611111116666666611111116111111111111111111111611661611111116661116666161611166661116161611111161116111111161611161111116111611111111111111166129955592991111161616611161611111116161669116111111111666111611111111111111616161929255616116111111111111211111111111111111111111111111111111111111111111111161111119111111199999299990000000000000000000000000000000000000000000000000000000000000000000000000000000000000000000000000000000000000000000000000000000000000000000000000000000000000000000000000000000000000000000000000000000000000000000000000000000000000000000000000000000000000000000000000000000000000000000000000000000000000000000000000000000000000000000000000000000000000000000000000000000000000000000000000000000000000000000000000000000000000000000000000000000000000000000000000000000000000000000000000000000000000000000000000000000000000000000000000000000000000000000000000000000000000000000000000000000000000000000000000000000000000000000000000000000000000000000000000000000000000000000000000000000000000000000000000000000000000000000000000000000000000000000000000000000000000000000000000000000000000000000000000000000
100146607114CALIFOR 20001SHUMWAY  N 6616161686661116611111611166161611616166111661166116111111116166111611111661666161611616661166111611116161616666666616666161616166661161116116116116111616111616161166116166111161111116166111116661661611111116111611111611116666111111666666161666111111616616116166111611116666616111161116111166616699116616666111616166616661111116161111611116111111161111166111116611666616161996161661611611111116661666111611661111666666666116611661661661661991111116111161166166161161111611161166611116666166111999111116161616666111161661161161611666661611161161116161661166116116161166616166661616111616661116166166691161116166611166611116611111111666116611661116661116116116111161166166616116666111111611116611116191111111116666661161161616166611111161666161666116616161661666611116666616611161116616116116111666166661666611161111666169961666116661111616666611161666611611611661616611111111116611111161666166161166666611111111111666161166661611611111611110000000000000000000000000000000000000000000000000000000000000000000000000000000000000000000000000000000000000000000000000000000000000000000000000000000000000000000000000000000000000000000000000000000000000000000000000000000000000000000000000000000000000000000000000000000000000000000000000000000000000000000000000000000000000000000000000000000000000000000000000000000000000000000000000000000000000000000000000000000000000000000000000000000000000000000000000000000000000000000000000000000000000000000000000000000000000000000000000000000000000000000000000000000000000000000000000000000000000000000000000000000000000000000000000000000000000000000000000000000000000000000000000000000000000000000000000000000000000000000000000000000000000000000000000000000000000000000000000000000000000000000000000000000
100146137115CALIFOR 10001COELHO  A  1161111111111111166666111111116166111111919116611111666666616611111161666111166116166116611166991661661616161611116616111111161111666611111111111611111111116119116611661619611616666661661666611116116166166661666166666111111111666666116111961166666666111611161611666111611116111111111161666611111111111161191661111111111111161111111611161661116111616666611111111611111161611999999911111166616661119999999996619999999999911611111111116116116111616661661611111111911611116111111111116911111111116111119919116111111111111111611111166611111616611111161116111111111661111111611116116161616161111161616111111111111611111116111111116666666111111116119911191111111111111611161611111111161116666111611166661916161611111161111111161161611161111116111611111111111111166111166661111111111161111161611111111191161116191111111666111611119111111111616161111166611116111111111111111191111111111111111111111111911911111111111111111169999999111111111111111110000000000000000000000000000000000000000000000000000000000000000000000000000000000000000000000000000000000000000000000000000000000000000000000000000000000000000000000000000000000000000000000000000000000000000000000000000000000000000000000000000000000000000000000000000000000000000000000000000000000000000000000000000000000000000000000000000000000000000000000000000000000000000000000000000000000000000000000000000000000000000000000000000000000000000000000000000000000000000000000000000000000000000000000000000000000000000000000000000000000000000000000000000000000000000000000000000000000000000000000000000000000000000000000000000000000000000000000000000000000000000000000000000000000000000000000000000000000000000000000000000000000000000000000000000000000000000000000000000000000000000000000000000000
100144447116CALIFOR 10001PANETTA  L 1161111191111111166666111111116116111111611116661911666666616611111161666111166116166116111166111611661616166611161111116111161111166611111111111611111111116116116661661611611616666661616666611116116666166661669999666111111611666666111611611166666611111611161611666111111111111111116161666611191111111659111661111161111119161611111111161666116111616666611119992991111161611999999911111166616661611111111116611111111161111611111111116116116111616161661611111111111611666111111111116111116111116111111191116111111111111111611111166611111116611111161116111111111661111111611111116161616161161161611611611111111611111616111111116666666111111116111111111111111116199611161611111161161116666111611166161116111611111161116111116161611111161116111611119111111111166111166661991111161161611161611116116161661111111111111666161619211111111111616161111166616199611111111111111111111111111111111111111111111111161111111111111161111199991116111111111110000000000000000000000000000000000000000000000000000000000000000000000000000000000000000000000000000000000000000000000000000000000000000000000000000000000000000000000000000000000000000000000000000000000000000000000000000000000000000000000000000000000000000000000000000000000000000000000000000000000000000000000000000000000000000000000000000000000000000000000000000000000000000000000000000000000000000000000000000000000000000000000000000000000000000000000000000000000000000000000000000000000000000000000000000000000000000000000000000000000000000000000000000000000000000000000000000000000000000000000000000000000000000000000000000000000000000000000000000000000000000000000000000000000000000000000000000000000000000000000000000000000000000000000000000000000000000000000000000000000000000000000000000000
100146527117CALIFOR 20001PASHAYAN  C6616111161161616616161111166116111111161616666666916166116616166911616611661616161611616666166116111616166611661666666661161616666666166111111166611116611616116661616696166611166666661661611166161161666111111111111616111116199999999916666161666666116166611616166611161616666666111611686666161611161111161116611111619111666111111161111616111111111111111611111166616666616161666669661611611111111161111119111666111111161611116116116666111661161161116111116111616661166111161161111666611611161161611111161166166666961661161616111166616111991161161161611116166116116166166619999661161161616666166166111661111166166661169999111161666666116166661611166111161111116161616161161161196661116616169611166161111166611166611661111169116161611116161166166616111611661661661611116116166111161166611166116611616116661661111161666611616161661111611111666111116611116111111111116611611116111111111111161116119111111116111111111111661161166161661611111111110000000000000000000000000000000000000000000000000000000000000000000000000000000000000000000000000000000000000000000000000000000000000000000000000000000000000000000000000000000000000000000000000000000000000000000000000000000000000000000000000000000000000000000000000000000000000000000000000000000000000000000000000000000000000000000000000000000000000000000000000000000000000000000000000000000000000000000000000000000000000000000000000000000000000000000000000000000000000000000000000000000000000000000000000000000000000000000000000000000000000000000000000000000000000000000000000000000000000000000000000000000000000000000000000000000000000000000000000000000000000000000000000000000000000000000000000000000000000000000000000000000000000000000000000000000000000000000000000000000000000000000000000000000
100150327118CALIFOR 10001LEHMAN  R  1161111111191981166666111111116116111111611116661111666666666611111161666191166116166111111166111611661616161111116611111111161111166611111111199999991111116116116611661611611116666661661699911116116166166661666166666111111111666699916111661966666661111611161611166111111116111111116161666611111199111161911661116161111111161611161611161661116111616666611111111611111161611999999911111166666661611111111116611111111161111611111111116116116611616161661619911111111611666116111111116111666111116111111191116111111999111111611111166611111616611161161916111111111661119999991116116161616161111161616111111111111611111116119911116666669111111116111111111111111111199611161611111111111116666111611166661199991611111161111111161161611611111116111611111111111191166111199992991111111161111161611111116111661119111111111666111611111111111111666661111166611116111111111111111111111111111111111111111111111111111111111111111161111111111161111111111110000000000000000000000000000000000000000000000000000000000000000000000000000000000000000000000000000000000000000000000000000000000000000000000000000000000000000000000000000000000000000000000000000000000000000000000000000000000000000000000000000000000000000000000000000000000000000000000000000000000000000000000000000000000000000000000000000000000000000000000000000000000000000000000000000000000000000000000000000000000000000000000000000000000000000000000000000000000000000000000000000000000000000000000000000000000000000000000000000000000000000000000000000000000000000000000000000000000000000000000000000000000000000000000000000000000000000000000000000000000000000000000000000000000000000000000000000000000000000000000000000000000000000000000000000000000000000000000000000000000000000000000000000000
100140717119CALIFOR 20001LAGOMARSINO6616161116111116611111611166161611616111111666666116166111116161111616111611616161611616666166116111116161616661666666666661616666666166116111196116116611616116611166116166111161111116161111166661611166111116111611111611116666111111661666161616111111666616616166111661116666666111611616111166616661116611166611611666116166611116661111616116111111111111116111166616666116161996161661611611111116611111111111666111166666616166166116666111661161161116111166116616661166661161161166661616616161161611166166661666666661661161616161666616161111111161116611616166116116166166611116661611161616616166166161611111166166661116116111161111111166166161111161111166111111161166161116661116661116111666611166161111116111166111661111161111161611116111166166616111616661666161611116116166111161116611166116611616616661666111161611661116661166111611111616661116611166611111111116611611111111111111111111116111111111166611111111111666161166661161611111111110000000000000000000000000000000000000000000000000000000000000000000000000000000000000000000000000000000000000000000000000000000000000000000000000000000000000000000000000000000000000000000000000000000000000000000000000000000000000000000000000000000000000000000000000000000000000000000000000000000000000000000000000000000000000000000000000000000000000000000000000000000000000000000000000000000000000000000000000000000000000000000000000000000000000000000000000000000000000000000000000000000000000000000000000000000000000000000000000000000000000000000000000000000000000000000000000000000000000000000000000000000000000000000000000000000000000000000000000000000000000000000000000000000000000000000000000000000000000000000000000000000000000000000000000000000000000000000000000000000000000000000000000000000
100146697120CALIFOR 20001THOMAS  W  6616191669191666616111611666116116161111116696666666116111616161611616161661616161611616666166116911196166616666666666666661616666666166191111166116116616611616661166116166111161111116161622266661661161161116292911111611116666111122511666161666611111666116616166111661116666666111611616111116616199116116166111611696111166111611161119616116111111111111166169995999999995959996161661611911111116661161111111619999556666611166666666666661661161161116111116155616661166661161161166661616666161161611166166661666666661661111616161611616161611161161116691166166116116959959991166661616166616666166166161611111166166661616116111161111111112966161111166611166111116199666161116161111661116166166616166161161116111196161661161161616166611116161666166611111616661611661611116666166611161166611666916111616116661696111961666611116661666116611116661111116161166111111111116611611111111111111111161616111111111116611111111111666161166611911611111611110000000000000000000000000000000000000000000000000000000000000000000000000000000000000000000000000000000000000000000000000000000000000000000000000000000000000000000000000000000000000000000000000000000000000000000000000000000000000000000000000000000000000000000000000000000000000000000000000000000000000000000000000000000000000000000000000000000000000000000000000000000000000000000000000000000000000000000000000000000000000000000000000000000000000000000000000000000000000000000000000000000000000000000000000000000000000000000000000000000000000000000000000000000000000000000000000000000000000000000000000000000000000000000000000000000000000000000000000000000000000000000000000000000000000000000000000000000000000000000000000000000000000000000000000000000000000000000000000000000000000000000000000000000
100154137121CALIFOR 20001GALLEGLY  E6616161111111116611111611166166111616161616666666966166111116161111616111611666161611616666166116111116161616666666666666661616666661166116111166116196611616616611166116166111161111116161111166661661166111116111611611611116666111111661666161666116111666116616166111661116666666111611616111166616161116616196111616666116666111116661111616116111111111111166111166616666696169996161661611611111116661111111111666111161666616166166166666611661161161116111166116616661166611161161166661616666161161616169166661666666661661161616161666666661111161161116611666166116116166166611166661611161616666166166161611111166166699996116111161111111166166161611166111199999999161166161166661116661111111666111111111111116111166611661111161116161616116161669996666611616661666661611116616166611161166611166116611616616661666111161111661116661661116611111616661111161166111111111166611611111111111111111111116111111111166611111111111666161166661661611111111110000000000000000000000000000000000000000000000000000000000000000000000000000000000000000000000000000000000000000000000000000000000000000000000000000000000000000000000000000000000000000000000000000000000000000000000000000000000000000000000000000000000000000000000000000000000000000000000000000000000000000000000000000000000000000000000000000000000000000000000000000000000000000000000000000000000000000000000000000000000000000000000000000000000000000000000000000000000000000000000000000000000000000000000000000000000000000000000000000000000000000000000000000000000000000000000000000000000000000000000000000000000000000000000000000000000000000000000000000000000000000000000000000000000000000000000000000000000000000000000000000000000000000000000000000000000000000000000000000000000000000000000000000000
100140407122CALIFOR 20001MOORHEAD  C6616161111161666611111611666166111666161616666166666116111116161611616111611666161611616669999996111616161616166666666666661616666611166116111166116116616611616661166116166111161111116161111166661661661611116111611111611116666111199916666161666161111666616616166111661116666666111661666111166616161116616166111616666116616111116161611616116111111111111116161166611666616166996161661611611111616611111111111666111161666616116666166666611661161161116111166116616661169999961161166666616616161161611166166661666666661661661116161611666661111161161116611696166116116166166619166661611161616666166169161661111166166661166116111161111111166169691661166611166111116161166166161661116666111111666161611161161116111166611661111161611161616111111666166666616616661616661611116666666611161166616166116111616116661666111161611666116661666116661111616666611161199111111111116611611111111111111111111616111111111166611111111111616161166661611611111111110000000000000000000000000000000000000000000000000000000000000000000000000000000000000000000000000000000000000000000000000000000000000000000000000000000000000000000000000000000000000000000000000000000000000000000000000000000000000000000000000000000000000000000000000000000000000000000000000000000000000000000000000000000000000000000000000000000000000000000000000000000000000000000000000000000000000000000000000000000000000000000000000000000000000000000000000000000000000000000000000000000000000000000000000000000000000000000000000000000000000000000000000000000000000000000000000000000000000000000000000000000000000000000000000000000000000000000000000000000000000000000000000000000000000000000000000000000000000000000000000000000000000000000000000000000000000000000000000000000000000000000000000000000
100144057123CALIFOR 10001BEILENSON  1161111111191111166666611111116959911111111116661111666666666611116661666611116116166111161111119999161616166611111111111911161111166611111111191611111116116116116161661611611616666661616199911116116166166661666166666116111111666666199999999166666661111611161611666611611111111161116166666611119911111661111661116111111111661611611611111666116161116666611111111111111161611999999999111166666661611111111116911111661161616611161111116166116611616161661611161111116611666116111611119111116199996111111611116111111111111111611111166661111116611611161116111111111661111166611611116111666161111661611111111111111611111611611111116666666611111116111111669999999999111611161611111611116116666111111166661116191111111161161111116161611616111116111611111116161111166616199999991111161616611161611111116161669116111161111666161611111111111111616661111166616116611111111111111111111111111111111111111111111116161111111111111161111161111116199999999990000000000000000000000000000000000000000000000000000000000000000000000000000000000000000000000000000000000000000000000000000000000000000000000000000000000000000000000000000000000000000000000000000000000000000000000000000000000000000000000000000000000000000000000000000000000000000000000000000000000000000000000000000000000000000000000000000000000000000000000000000000000000000000000000000000000000000000000000000000000000000000000000000000000000000000000000000000000000000000000000000000000000000000000000000000000000000000000000000000000000000000000000000000000000000000000000000000000000000000000000000000000000000000000000000000000000000000000000000000000000000000000000000000000000000000000000000000000000000000000000000000000000000000000000000000000000000000000000000000000000000000000000000000
100142807124CALIFOR 10001WAXMAN  H  1161111111111111166666111111996166111111611116661111669666999991111661666191116116166111111669911616161616166611111699999911161111166611111111111611111111116116116611669611611616696661666169611116116169166661666169666111111111666966111111661166666661111611161611666111611111111111116161666611111111111661111661116111111119161611111611161661116161116666611991111611199992929999999911111166666699611111111199991111111661111611111111116116119111619961661611111111116611666111111119119191166911116111111811116111111111191111991111169611116619991611161116119111111961111166611111116161619161191161616611161111111611111611611111116666666611111116111191119911111111199611161911111116611116666111611166661116119611191161111191166161611611111116119991111111119111169111199661999999959529599999911991999161599999111161111666161619111111111111616161111166616119911111111111111111111111119119119111111111111111161111111111111161111111111111911911119990000000000000000000000000000000000000000000000000000000000000000000000000000000000000000000000000000000000000000000000000000000000000000000000000000000000000000000000000000000000000000000000000000000000000000000000000000000000000000000000000000000000000000000000000000000000000000000000000000000000000000000000000000000000000000000000000000000000000000000000000000000000000000000000000000000000000000000000000000000000000000000000000000000000000000000000000000000000000000000000000000000000000000000000000000000000000000000000000000000000000000000000000000000000000000000000000000000000000000000000000000000000000000000000000000000000000000000000000000000000000000000000000000000000000000000000000000000000000000000000000000000000000000000000000000000000000000000000000000000000000000000000000000000
100106217125CALIFOR 10001ROYBAL  E  1161111111191111166666111111116116111111611116611111666666666611111661666191166116166111119999999999992525252299999999999111161111166661111111111611111116116116116611661611611616666661599955911116116166166661666166666111111111666966111111661166666661111611161611666111611111111111116161666611111111111661111661116161111111111611111611161661116661616666611611111111111161611991616111111166666661119999999916611111111161661611111119116116116611616161661619911111116611616116111111116111116191186111191611196111116111111111611111166611116616611611161116111111111661111111611611116161616161119661611111111111111611611616611111116666666611111116611111111111111111111611161611111611111116666111611166661916161611111161166661116161991661161616111611111111111111166111195592991199161616611961691111116161661116111161111666161611111111111161666161111166616616111111111111111611111111111111111111111111111111111111111111111161111111111111111111119110000000000000000000000000000000000000000000000000000000000000000000000000000000000000000000000000000000000000000000000000000000000000000000000000000000000000000000000000000000000000000000000000000000000000000000000000000000000000000000000000000000000000000000000000000000000000000000000000000000000000000000000000000000000000000000000000000000000000000000000000000000000000000000000000000000000000000000000000000000000000000000000000000000000000000000000000000000000000000000000000000000000000000000000000000000000000000000000000000000000000000000000000000000000000000000000000000000000000000000000000000000000000000000000000000000000000000000000000000000000000000000000000000000000000000000000000000000000000000000000000000000000000000000000000000000000000000000000000000000000000000000000000000000
100150057126CALIFOR 10001BERMAN  H  1169999911111199999999911111116166111111611116661911666666616611111161666111916116166111111666111616161616166111111191116111161111166691111111111611111911116119116611661611611616666661661166611116116166166661666199999911111111666666111111661166666661111611161611666111611111111111116161666611111111111662111661116111111161161111111611161661116169996666611111111611111161611111616111111166666661611111111116661111111661116611119111116116116111616161661611111111196619666111111111119111116191116111111611116111111111191119991111166611111116611619161116111111111661119999999999916161696161111161616111111111111611111116611111116666666611111196199991111191111111111619161611111116111116666111111166661116111111111161111161116161611111111116111611111919111111166191166661991111161616611161611111116161661116111111111666161611119111111111616161111166616116911111111111111111111111111111111111111191111111161611111111111161111111111111111911111110000000000000000000000000000000000000000000000000000000000000000000000000000000000000000000000000000000000000000000000000000000000000000000000000000000000000000000000000000000000000000000000000000000000000000000000000000000000000000000000000000000000000000000000000000000000000000000000000000000000000000000000000000000000000000000000000000000000000000000000000000000000000000000000000000000000000000000000000000000000000000000000000000000000000000000000000000000000000000000000000000000000000000000000000000000000000000000000000000000000000000000000000000000000000000000000000000000000000000000000000000000000000000000000000000000000000000000000000000000000000000000000000000000000000000000000000000000000000000000000000000000000000000000000000000000000000000000000000000000000000000000000000000000
100150347127CALIFOR 10001LEVINE  M  1161111111121111166666111111116166111111611116661111666666616611111661666119999916166111111661111111661616161611111119116111161111166611111111111611111111116119116611661611611616666661661166611116116166166661666166666111111111666666116611661166666661111611161611666111611111111111116161666611111111111661911661116111111111161611111111161661116161616666611111111611111161616111616111111166666661619999999916661111111661161611111111116116116111616161961611111111116611666111111111119111166111116111191811116111111111111111619999166611116116611111161116111111111661919116611111116161616161191161616111111111111611111619991111116666666611111116111111111111111111111611161611111116611116666111611166661116111111111161111111161161611111111116111611111911111121166111166661111111161616611161611111116111691116111111111666161611111111111111616161111166616199999999999991111111111111111111111111111111111111161611111111111161111111111161111111111110000000000000000000000000000000000000000000000000000000000000000000000000000000000000000000000000000000000000000000000000000000000000000000000000000000000000000000000000000000000000000000000000000000000000000000000000000000000000000000000000000000000000000000000000000000000000000000000000000000000000000000000000000000000000000000000000000000000000000000000000000000000000000000000000000000000000000000000000000000000000000000000000000000000000000000000000000000000000000000000000000000000000000000000000000000000000000000000000000000000000000000000000000000000000000000000000000000000000000000000000000000000000000000000000000000000000000000000000000000000000000000000000000000000000000000000000000000000000000000000000000000000000000000000000000000000000000000000000000000000000000000000000000000
100146207128CALIFOR 10001DIXON  J   1161111111111911166666199911116166111111619116611191666666666611916169966111166116166116119116119999961616161611111111116911161911166619111111199661199999996116116611661611611696666661661699911116116166166661666166666111111111699999916111661966666666111611161611666191611116191199116181666611111191111161111661116111111119169611111611161661116169996666611111111611111161611999999111111966616661119299999999991111111661161611111119116116199999999999999999911111116611666111111111116111116111196111199911116191111199111999999111166611111616611611161116119111111661119111611111116161616161111161619111111111111611111611619911116666666611111196111199119911111111199611161611199991661116666119999999999999991611111161911111116161611161119196111611111111111111166111166661111111161616699161611111119111661916111161111666111619991111111911616161111166611619111111111119111111111111111111111111111111111111111111111111111161111111111111111111111110000000000000000000000000000000000000000000000000000000000000000000000000000000000000000000000000000000000000000000000000000000000000000000000000000000000000000000000000000000000000000000000000000000000000000000000000000000000000000000000000000000000000000000000000000000000000000000000000000000000000000000000000000000000000000000000000000000000000000000000000000000000000000000000000000000000000000000000000000000000000000000000000000000000000000000000000000000000000000000000000000000000000000000000000000000000000000000000000000000000000000000000000000000000000000000000000000000000000000000000000000000000000000000000000000000000000000000000000000000000000000000000000000000000000000000000000000000000000000000000000000000000000000000000000000000000000000000000000000000000000000000000000000000
100105957129CALIFOR 10001HAWKINS  A 1161111111191911166666111911116166111111611116611161666699666611116168696111166116166116611116196666661616169511111611161111161111166619111111111611111111116916116611661611611616666661666666611116116166166661666166659211111111666666116111661299966699911611161611666111611911199911116161666611611111991161111661111919999911161611111611161661116161616666619991111611111661611111616111111166666661191111119916611111111691661611119999995995216611616161661619999111116618666111119911119111166911116111111811116111111661611111911111166611111116691611161916111111111661111111619111116161699252299992522111111111161611161616611111199999959991191116111111119911111111111611661611199991111916666121611166661126161611111161111161116161991169166116111696111161111611196111166661991191151616611161611111119169691116111161111995299991111111111111616161111166616619111111111991111111111111111111111111111111111199911111111111111161199992111111111111111110000000000000000000000000000000000000000000000000000000000000000000000000000000000000000000000000000000000000000000000000000000000000000000000000000000000000000000000000000000000000000000000000000000000000000000000000000000000000000000000000000000000000000000000000000000000000000000000000000000000000000000000000000000000000000000000000000000000000000000000000000000000000000000000000000000000000000000000000000000000000000000000000000000000000000000000000000000000000000000000000000000000000000000000000000000000000000000000000000000000000000000000000000000000000000000000000000000000000000000000000000000000000000000000000000000000000000000000000000000000000000000000000000000000000000000000000000000000000000000000000000000000000000000000000000000000000000000000000000000000000000000000000000000
100148797130CALIFOR 10001MARTINEZ  M1161111111111111166661111111116166111111611116661111666999999991191161666111166116166116611119111661666116169661116616661111661111666611111111111661111111116916116611661611619116666661191666911116116166166661666166666111111111666666119111661166666661111611161611666111911116111161116161666611611111991861111661119111111111161611111611661661116111616666611111111611111161619999616111111166616661111111111116611111111611166611111111116116134331616199961611111111116611116199999911119191666911116111111111116111111111111111619999966619116116611111161116111111111661119955991111116161696161111161616611111111111611111696611111116666666691111116111111111199999992111611161611111119161116666111611166661116161611111161111111161161611161111116111611911111111111166111166661991111161333491161111111611111661111111111111666111611111111111111616161111166611819111111111111111611111111111111111111111111111111111111111111111161111111111111111111111110000000000000000000000000000000000000000000000000000000000000000000000000000000000000000000000000000000000000000000000000000000000000000000000000000000000000000000000000000000000000000000000000000000000000000000000000000000000000000000000000000000000000000000000000000000000000000000000000000000000000000000000000000000000000000000000000000000000000000000000000000000000000000000000000000000000000000000000000000000000000000000000000000000000000000000000000000000000000000000000000000000000000000000000000000000000000000000000000000000000000000000000000000000000000000000000000000000000000000000000000000000000000000000000000000000000000000000000000000000000000000000000000000000000000000000000000000000000000000000000000000000000000000000000000000000000000000000000000000000000000000000000000000000
100148167131CALIFOR 10001DYMALLY  M 1161111199931111166666111911116166111111611116611191669995996611116161666111166116166116999929991616661616161611111111116111161111166661111111111661111116116116116611661616611616666661616699999999999566166661666166666111111111666666199999661111666666111661161611666191699299999999116161666611111111119161191661111911111111161111111611161961116161616666611111111619111961611999999111111166666661111111111116611111111161999999991111116116116611616161661611111161166611116116111111616111666911116999111811116191111111111111991111169611116116611611161119919111111661119922999911116161696161111661611611111111111611611611611161116666699991111196111111111111111991111611661611111616111116666111611166661196161611119161166611116199521259161616111611116111111111666611166661111111161616611199611111119999661116999999999555111611111116111111666161191166916616111111111111111111111111111111111111116111111111111111111111111161111119111161111111111160000000000000000000000000000000000000000000000000000000000000000000000000000000000000000000000000000000000000000000000000000000000000000000000000000000000000000000000000000000000000000000000000000000000000000000000000000000000000000000000000000000000000000000000000000000000000000000000000000000000000000000000000000000000000000000000000000000000000000000000000000000000000000000000000000000000000000000000000000000000000000000000000000000000000000000000000000000000000000000000000000000000000000000000000000000000000000000000000000000000000000000000000000000000000000000000000000000000000000000000000000000000000000000000000000000000000000000000000000000000000000000000000000000000000000000000000000000000000000000000000000000000000000000000000000000000000000000000000000000000000000000000000000000
100120017132CALIFOR 10001ANDERSON  G1161111111111111166966111111166166111111611116661111666666166611111661666111666116166116611616111661666616661666166699999111161111166611111111111611111116116116116611661111111116666661661666611116116166166999999966666111111611666666116611161116666661111611161611666111116166611161116161666611611111111661911661116111111161161116661111161661116111616666611111111611111161611119999911111111111611611111111111611111111161166611161111116116116161616161661611199111116611661116111611116116666111116111111111116111111111111111611111166611111616611111161116111111111661111116611116116161696611161166616111111111111611111616111111116666666111111116111911111111111111111111661616611111611116999999999999999999999999999999999999969161611161111116111611111161111111166111166661111111111116111161111111111111691666111111111666161619911111111111616161611666611619111111111111111111111111111111111111111111111111161111111911111161111111111111111111111110000000000000000000000000000000000000000000000000000000000000000000000000000000000000000000000000000000000000000000000000000000000000000000000000000000000000000000000000000000000000000000000000000000000000000000000000000000000000000000000000000000000000000000000000000000000000000000000000000000000000000000000000000000000000000000000000000000000000000000000000000000000000000000000000000000000000000000000000000000000000000000000000000000000000000000000000000000000000000000000000000000000000000000000000000000000000000000000000000000000000000000000000000000000000000000000000000000000000000000000000000000000000000000000000000000000000000000000000000000000000000000000000000000000000000000000000000000000000000000000000000000000000000000000000000000000000000000000000000000000000000000000000000000
100148137133CALIFOR 20001DREIER  D  6616111666691666611111611666161611666166116666166666111111116166661616111661666161611616666166116111116161616666666666666661616666616166116116166116116616616616161166116166111161111116166111166661661611611116111911111611116666111111661666161666111111666616616166611661116666666161161166111166616111116616666111666666116666611116661111611116111111111111166661116616666616161666161661611611111116669999991611666911166666611166666166666611661161161116911166166666661166661161161166666616666161161999166166661666666661661661116161611666661119991161116661666166116116166166611166661616161616666116166161611111166166661161166161161111111166116661661166611666116616161166166166666116666111111666161611116661111111116616661161161616166616111161666166616616616161611666611116666666611161166616166616611616116661999999999222555299566666116661111616666611161166111111111166611611111111111111111111616111111111166611111116111661161199661611611111611110000000000000000000000000000000000000000000000000000000000000000000000000000000000000000000000000000000000000000000000000000000000000000000000000000000000000000000000000000000000000000000000000000000000000000000000000000000000000000000000000000000000000000000000000000000000000000000000000000000000000000000000000000000000000000000000000000000000000000000000000000000000000000000000000000000000000000000000000000000000000000000000000000000000000000000000000000000000000000000000000000000000000000000000000000000000000000000000000000000000000000000000000000000000000000000000000000000000000000000000000000000000000000000000000000000000000000000000000000000000000000000000000000000000000000000000000000000000000000000000000000000000000000000000000000000000000000000000000000000000000000000000000000000
100150707134CALIFOR 10001TORRES  E  1161111111111111166666199111116166111111619116611111666666666611116169425231166116166116611166113433443434343461111133343111161111166611111111111661113333336111116611443533611616666661661666611116116166166641666166666111111111666666116111661166666661111611161611666111611111133311111161666611111111111161111461116161111161161111111111161661116111116666611111111611111161611991616111111166666661611111111116611111111161643611113111116116116111616161661611111111111619916191111111616111166111116611119111116111111911111111611111166619111116611111161116111111111661119111613333334161616161111161611111111111111611111611611111116666666111111196191111119911111111999611161611111111111116666111611166661116161911111161116111111161611111119116111611111111111111166111166661111132353211611161611116111111661111111111111666911611111111111111616161131166611116611111111111111111111111111111111111111111111111111111111111111161199911111111111111111110000000000000000000000000000000000000000000000000000000000000000000000000000000000000000000000000000000000000000000000000000000000000000000000000000000000000000000000000000000000000000000000000000000000000000000000000000000000000000000000000000000000000000000000000000000000000000000000000000000000000000000000000000000000000000000000000000000000000000000000000000000000000000000000000000000000000000000000000000000000000000000000000000000000000000000000000000000000000000000000000000000000000000000000000000000000000000000000000000000000000000000000000000000000000000000000000000000000000000000000000000000000000000000000000000000000000000000000000000000000000000000000000000000000000000000000000000000000000000000000000000000000000000000000000000000000000000000000000000000000000000000000000000000
100146447135CALIFOR 20001LEWIS  J   6616161161166666616111611666116111261161616666666666166111116166911616111661616161611616669166116111616161616661666666666661616666616166911111196116116616616616661166116166111161111116161111166661661166166611111661166111116616119999966666999616661616166616616116111669911666666111611616116661616161116662666661111616116169611596161111616116116111111111166111166616666116169999999961611611111916161191111111666111161666611166166166666661661161161116111119111616661166111161161166669616661161161619996966666166666669661961616169619619991111111161161611666166116199999999999999999661161616666166666111611111166166661119999999961611166116166169999999299299999995999696161911661161661916111166119169999911166111166616661161161111166111116161666166616199999999999999999999996166111161116611166116611616116669661111161666661616661661116611111666116111161166119111111116619999999999999999999999999999999999999599999999999996661166661111611111111110000000000000000000000000000000000000000000000000000000000000000000000000000000000000000000000000000000000000000000000000000000000000000000000000000000000000000000000000000000000000000000000000000000000000000000000000000000000000000000000000000000000000000000000000000000000000000000000000000000000000000000000000000000000000000000000000000000000000000000000000000000000000000000000000000000000000000000000000000000000000000000000000000000000000000000000000000000000000000000000000000000000000000000000000000000000000000000000000000000000000000000000000000000000000000000000000000000000000000000000000000000000000000000000000000000000000000000000000000000000000000000000000000000000000000000000000000000000000000000000000000000000000000000000000000000000000000000000000000000000000000000000000000000
100105737136CALIFOR 10001BROWN  G   1161111111191911169999911111116116111991619116911111666966666611199661666111169916166116611199991661661616161911161111161111161111166611111111119991111111116116116611699591611916666661616669911116116166166661666199999911111111666666111111661999999999911611161611666111611116699911116161666611111111991161199999999111111111191111111111161661116161616669611661911611119161611999999999999169916661119999999916611111111161111611111191116116119611616161661619999911111611666119111111666611166199916119111699116111111199111111611111166611111999991111161116111111111661111111611119916161616161119166611111111111111611111616611111196666666611111115911111199911111111111611161611111116661199666111999166661116161111111161111111111161991611111116111611111199299111966111166661991111161611611161611111116161999999999999999999999999911116111911616161911166615999111111111111111111111111111111111111111111111111111111111111111111111111111111111111111110000000000000000000000000000000000000000000000000000000000000000000000000000000000000000000000000000000000000000000000000000000000000000000000000000000000000000000000000000000000000000000000000000000000000000000000000000000000000000000000000000000000000000000000000000000000000000000000000000000000000000000000000000000000000000000000000000000000000000000000000000000000000000000000000000000000000000000000000000000000000000000000000000000000000000000000000000000000000000000000000000000000000000000000000000000000000000000000000000000000000000000000000000000000000000000000000000000000000000000000000000000000000000000000000000000000000000000000000000000000000000000000000000000000000000000000000000000000000000000000000000000000000000000000000000000000000000000000000000000000000000000000000000000
100150407137CALIFOR 20001MCCANDLESS 6616161661191666611111611666166161661166616666666666166161116166611616111663616661611616666161116661116161666666666666666661616666611166199999999999999999999996992299999999111161111116161111166661661666111116161611111611116666111111666666116999999999966116616166611661116666666111661661111116616661116616666111666666116666111116161116616116161111111111166111166616666616169999999961611611111116661661111111116111166166616166666666666611661161161116611166166666666166611161161166661616666161161111166166661666666999661661116661611166161111161161116661616166116116166166611166661616161616666116166116661111166166661166116111161111111166166661661166669666116616161166166166666116661111161666666611616161116111196616661111161611166666116161666166666111666661611661612225996166611161166616166116111616116661666111161111666119999999999999999999999999999999111111111116611611111111191111111111111111111111166611111111111666161166611611611111119990000000000000000000000000000000000000000000000000000000000000000000000000000000000000000000000000000000000000000000000000000000000000000000000000000000000000000000000000000000000000000000000000000000000000000000000000000000000000000000000000000000000000000000000000000000000000000000000000000000000000000000000000000000000000000000000000000000000000000000000000000000000000000000000000000000000000000000000000000000000000000000000000000000000000000000000000000000000000000000000000000000000000000000000000000000000000000000000000000000000000000000000000000000000000000000000000000000000000000000000000000000000000000000000000000000000000000000000000000000000000000000000000000000000000000000000000000000000000000000000000000000000000000000000000000000000000000000000000000000000000000000000000000000
