1019990899 0USA     20000BUSH       99999969991696999999961699969669999999991999969999999996966999999969996166999661669919199999999999999999999699961969919999999996999999669999999999999999999999999999999999999999999999999999119999999999999999991969961999999996996999699999999999699991999919999961919999669999999916999919996991119969699199999999999991999699999991169969961919966196919996999999999996999991996996999699999999996999999999999999699961916969999169699999196999969999991999996999199999999699969996999999991919916699969999999999999999999999999999966999969999999999999696999999919999999999999999999699999699999919999999991999999999999999999999996999999999999999999996999999699996999999999969999999669999999999699669696996696969999699999999999669996999999999699999669999991999999961166996961999619916116699999699999699999999999669991999999999999966996666666669999999699999999999999999699999999996999919199999911111111119919911111199191996199999999619111999199199999999999996666999199991999999999999911169999999999199999999999999999999999991999999999999999999991919999999999969999991169996999999996119699999966116961999999169999999919999199999999999999919966611699999999999999999919699699999999999961119119919699999999961969999199919919999999999999999191911919111961996919111911999969199999699999999999999999999699999999996919999199999969999969999991999166616961196999999991999969996999999999999999999999999999999999999999999999966119111199116969119999999999999999996999999999999919991999999666961699999699999999996966619996669999999999999999999991
1011406681 1ALASKA  20001YOUNG  DONA66116111691161119661161119166666161661161111111116691666166111666111166166166616116111166661661661666161166691161119161961111616911611161161166111666666119166666696666611116666611161166661666616166696661616111999999999999916611166611666666119661661116166119661911661666696191111111116616611111666611661111111116611666116111611611666161116616166611616161116161196111161999661111111111116111199611111166161111116916166661161666161111611161111661611166116161611661661111611661111991111616666166166111119999991111116161116961161111666116666661661111666616611161111166661111161911111611111116191111666116161666611611666661666666119611661166111611611161661961166169166666118611111116661199111616166666166111666611111111111111119666696111691119116111111166191111116661111916119696111116116611116611611666661699999999996166666996666666111911111611166616111111661661196191116966161611111600000000000000000000000000000000000000000000000000000000000000000000000000000000000000000000000000000000000000000000000000000000000000000000000000000000000000000000000000000000000000000000000000000000000000000000000000000000000000000000000000000000000000000000000000000000000000000000000000000000000000000000000000000000000000000000000000000000000000000000000000000000000000000000000000000000000000000000000000000000000000000000000000000000000000000000000000000000000000000000000000000000000000000000000000000000000000000000000000000000000000000000000000000000000000000000000000000000000000000000000000000000000000000000000000000000000000
1011509041 1ALABAMA 20001CALLAHAN  H66161661611666161111661611169661611666111111161111111166166111916111999999911661666611116611661611666161616611161111161116111111611111661161166111666666111166666616666616666966111111166661661661166616611611161111661111611116611111116161111111611169111116111661111166666616161111111166616161161166611666661111116116611669111116161166161111166166666616161116111196611166111161111611611111116116111111166161111116116996666161666661111611169111661111166116161111161166161611166111911111111611666111169999999961111111111111116166116116116166661616111616611161116111696611111166111161611111111116111611116161111111199666166116666111661166661161611611161661961166661166666118661111116111111111616166666861611661611111111116116166666616111161111119111111266161161116961111616666116611119996161116611111666661666661161616166666616666616111611111616111166161111611611161166116116666999999900000000000000000000000000000000000000000000000000000000000000000000000000000000000000000000000000000000000000000000000000000000000000000000000000000000000000000000000000000000000000000000000000000000000000000000000000000000000000000000000000000000000000000000000000000000000000000000000000000000000000000000000000000000000000000000000000000000000000000000000000000000000000000000000000000000000000000000000000000000000000000000000000000000000000000000000000000000000000000000000000000000000000000000000000000000000000000000000000000000000000000000000000000000000000000000000000000000000000000000000000000000000000000000000000000000000000
1011071741 2ALABAMA 20001DICKINSON  66111661662666166661161666166666696666161111151116161666166111166999955959961661666611166661661661661161616611161111116161111616611611661161166161666666116166999966666611666166611911166661616616666666661616161661611611616116611161116666611116661661119116111661611161116616161161111161116611111619611196161116111611611166111611161161199996161196616616191116199996611166611691111611911116116666611111161161111111611166666169566666111611161181661161166116161611999556161691666111111111616611166111116661669961111111111116666661111116669166661666111666616611116691616111111166611161611111166111111699996161161611111666196116161111666166116161611611161611661166166166666118611111166661111111616166666166611666611111111111161166666616111161166116111116166166161116611111616116116111166166169116661111666661616661111619166666616666611111611111616111116161999999661166161116116666161199900000000000000000000000000000000000000000000000000000000000000000000000000000000000000000000000000000000000000000000000000000000000000000000000000000000000000000000000000000000000000000000000000000000000000000000000000000000000000000000000000000000000000000000000000000000000000000000000000000000000000000000000000000000000000000000000000000000000000000000000000000000000000000000000000000000000000000000000000000000000000000000000000000000000000000000000000000000000000000000000000000000000000000000000000000000000000000000000000000000000000000000000000000000000000000000000000000000000000000000000000000000000000000000000000000000000000
1011103741 3ALABAMA 10051NICHOLS  B 00000000000000000000000000000000000000000000000000000000000000000000000000000000000000000000000000000000000000000000000000000000000000000000000000000000000000000000000000000000000000000000000000000000000000000000000000000000000000000000000000000000000000000000000000000000000000000000000000000000000000000000000000000000000000000000000000000000000000000000000000000000000000000000000000000000000000000000000000000000000000000000000000000000000000000000000000000000000000000000000000000000000000000000000000000000000000000000000000000000000000000000000000000000000000000000000000000000000000000000000000000000000000000000000000000000000000000000000000000000000000000000000000000000000000000000000000000000000000000000000000000000000000000000000000000000000000000000000000000000000000000000000000000000000000000000000000000000000000000000000000000000000000000000000000000000000000000000000000000000000000000000000000000000000000000000000000000000000000000000000000000000000000000000000000000000000000000000000000000000000000000000000000000000000000000000000000000000000000000000000000000000000000000000000000000000000000000000000000000000000000000000000000000000000000000000000000000000000000000000000000000000000000000000000000000000000000000000000000000000000000000000000000000000000000000000000000000000000000000000000000000000000000000000000000000000000000000000000000000000000000000000000000000000000000000000000000000000000000000000000000000000000000000000000000000000000000000000000000000000000000000000000000000
1011563241 3ALABAMA 10002BROWDER  GL00000000000000000000000000161161616666111111111111111166666199991111111119111161616161111611666611161111161611161111161611611161161116166111166111666116161661666111166611111616611111661161111116661111116666116111661111111116111191111111111111611611111166111661161111111616111111111666111111611111111116161661111111166111111111611611111111116111116116661661111166111161161111166611111111111116111111111961111116161111116166166661111166661111661661166116191911111111661111111161666611161611616111111161111616111166161661111111116111111166661611111611111616611111116661111111666111611111161111111666811616666611611666116161666116111161166111611616161661111111111611111666111111616116111111616616666661116111111111111111111111611666111116111111111111166661161116161111616166116111111111611116111611166661166161611611111111111666611111111111111111111111111611116611111111116161611111100000000000000000000000000000000000000000000000000000000000000000000000000000000000000000000000000000000000000000000000000000000000000000000000000000000000000000000000000000000000000000000000000000000000000000000000000000000000000000000000000000000000000000000000000000000000000000000000000000000000000000000000000000000000000000000000000000000000000000000000000000000000000000000000000000000000000000000000000000000000000000000000000000000000000000000000000000000000000000000000000000000000000000000000000000000000000000000000000000000000000000000000000000000000000000000000000000000000000000000000000000000000000000000000000000000000000
1011100041 4ALABAMA 10001BEVILL  TOM11661991116161161111661111161161616666111111111116111111616111911111111111111161611111611111666611111111161611661111166111611111161111166111666111666111161166666611666611111116611161161111611111161111116666116111161111111116111111111111191161111611111116111661161111666611111111111669911111611161611116161661111111166111611111616611111991116111616116661661111196111161161111166611111111111119111111111161111116111111166166166661111166611111661661161116111111111111161111111161666611161111616111111111111116111166161661111111111191116166661611111611111991611111116661111111666116611111166111111666611616666611911666116161666116111661169911111616161661111111111619999999999111616116111111616616616661116111111111111111111111111666111116111111111111166669161116161111616116116111111111611116111611166691166161611611111116111666611111111111611116611111111611116611111116111161661199900000000000000000000000000000000000000000000000000000000000000000000000000000000000000000000000000000000000000000000000000000000000000000000000000000000000000000000000000000000000000000000000000000000000000000000000000000000000000000000000000000000000000000000000000000000000000000000000000000000000000000000000000000000000000000000000000000000000000000000000000000000000000000000000000000000000000000000000000000000000000000000000000000000000000000000000000000000000000000000000000000000000000000000000000000000000000000000000000000000000000000000000000000000000000000000000000000000000000000000000000000000000000000000000000000000000000
1011441941 5ALABAMA 10001FLIPPO  RON11661111111161111111161111161161616666111199111111111116666111111111111111111161615111611611666699111111161611191111161611611111161116166111166911666116161166666611116611111616611161161161111111661111116666119111111111611116111111111111111161611619991166191661161111111616111111111666111111611111111999999999111111166111111111619611299119996111615999661961111166192999999111166691111111111999999999999999911116169999999999999999999999999999999961161999999999999999999999999999999999999999999999999999999999999999999999991111116111116166991611111611111996611111116661111111666111611111199911111666611616161111611666111166666116116991166911611619961661111111111611111666199911616116111111616616616661116111999999999999999999999999999916111111111111119661191116161111616116111111111111611116111611166661166161611611111111111666111111116999999116611111111611619991111191116111999999900000000000000000000000000000000000000000000000000000000000000000000000000000000000000000000000000000000000000000000000000000000000000000000000000000000000000000000000000000000000000000000000000000000000000000000000000000000000000000000000000000000000000000000000000000000000000000000000000000000000000000000000000000000000000000000000000000000000000000000000000000000000000000000000000000000000000000000000000000000000000000000000000000000000000000000000000000000000000000000000000000000000000000000000000000000000000000000000000000000000000000000000000000000000000000000000000000000000000000000000000000000000000000000000000000000000000
1011502241 6ALABAMA 10001ERDREICH  B11661111116161161111661111161161616666111111111111111166666111111111111111111161611661111611666611161111161611161111161611611161161116166111666111666111161661666111166611111616611111661161661111661111116666115111661111111116111111111161161161611661111166111661161111111616111111111666611111611111161116661661111111166111111111616611111111116111166116661661111196111161161111166611111111111116111111111161111116161111166166166661111161611111661661161116111111111111611111111161666611161611111111111161161616111166161661111111116111116166661611111611111116611611116661111111666111611111161111111661111616166111611666111166666116111611111111611616161161111111111611161666111111616116111111616611616661116111111111111111111111666666111116111111111111116661161616161111616116111111111111611116111611161661166161611111111116111666611111111111111111161111111611111111111111116166611111100000000000000000000000000000000000000000000000000000000000000000000000000000000000000000000000000000000000000000000000000000000000000000000000000000000000000000000000000000000000000000000000000000000000000000000000000000000000000000000000000000000000000000000000000000000000000000000000000000000000000000000000000000000000000000000000000000000000000000000000000000000000000000000000000000000000000000000000000000000000000000000000000000000000000000000000000000000000000000000000000000000000000000000000000000000000000000000000000000000000000000000000000000000000000000000000000000000000000000000000000000000000000000000000000000000000000
1011541641 7ALABAMA 10001HARRIS  CLA11661111111161161111161111961161616666111111111111111166666111111111111111111161611161111611666611161111161611161111161611611111161116166111166111666116161661666111166611111616611111661161611111661111116666116111661111111116111116111161111161611611111166111661161111111616111111111666611111611111111116661661111111166111111111611611111111116111116116661661111166111161161111166699111111111116111111111161111116161991166166166661111161611111661661161116111119111111161111111161666611161611616111111161111616111166161661111111116111116166661611111611111616611111116661111111666111611111161111111666611616166111611666616161666116111661166111611616161661111111111611111666111111616116111111616616616661116111111111111111111111616666111116111111111111166661161116161111616166116111111111611116999611166661166161611611111111111666611111111111111111111111111611116611111111116111611111100000000000000000000000000000000000000000000000000000000000000000000000000000000000000000000000000000000000000000000000000000000000000000000000000000000000000000000000000000000000000000000000000000000000000000000000000000000000000000000000000000000000000000000000000000000000000000000000000000000000000000000000000000000000000000000000000000000000000000000000000000000000000000000000000000000000000000000000000000000000000000000000000000000000000000000000000000000000000000000000000000000000000000000000000000000000000000000000000000000000000000000000000000000000000000000000000000000000000000000000000000000000000000000000000000000000000
1011200042 1ARKANSA 10001ALEXANDER  11611111119161111161166111161111116166611199111811611111611111111111111619111161116611111111666111111111161696616166166111611161161111166111661111666661161166666611696611111116611168111111111111611111116166116111111111111111111196111111166161611611111161116116166111111611111111111616111116611111111111111661991111166111616111616661161991111611111111611661111661116116161111166111611111111111111911111611611111161111116616119661111166611111111691166996199911999111619999999999999999999966999999999999999916161166161661119111111691116166661191111111111616611611616661111111666116616111166111666666611616666611611661191166666116116361166111611116161961961111119111116166199161611196116116661911116661116111111111111111111111111166111116111199199111166961111616161161611169911111111119991111611661161661166111619991111111111116166111111111111166619611111611116611111191111161161119900000000000000000000000000000000000000000000000000000000000000000000000000000000000000000000000000000000000000000000000000000000000000000000000000000000000000000000000000000000000000000000000000000000000000000000000000000000000000000000000000000000000000000000000000000000000000000000000000000000000000000000000000000000000000000000000000000000000000000000000000000000000000000000000000000000000000000000000000000000000000000000000000000000000000000000000000000000000000000000000000000000000000000000000000000000000000000000000000000000000000000000000000000000000000000000000000000000000000000000000000000000000000000000000000000000000000
1019512242 2ARKANSA 20001ROBINSON  T11661111116161911111161111161661616666611111111111691161161111111161111191111111166161111611111611166111111611161111111111661111991111161111166111666661111166666611666611111616991111666661611616166616611616119111661111611199911111116961111111669161111616116161111116666616111111111166116111161166666666661116111111166161111911161161161111166166666116161116111166611999116161166111911169991111111111116161111111111166666169966661111999991111661661166111111999999999991111999999611111629592992992999999999911116166111116161661119991666111116611111516619111116111611119111166111161111999999911111111116161161619999166116166611112599951111161611116161661161199959259999929599111116111911611616166666161112516611666611616111111666666116611199999111116166111161116161111616116199999999999999616611116666629911666169991166666116666666116611199999111166166111661666661661116166666999999900000000000000000000000000000000000000000000000000000000000000000000000000000000000000000000000000000000000000000000000000000000000000000000000000000000000000000000000000000000000000000000000000000000000000000000000000000000000000000000000000000000000000000000000000000000000000000000000000000000000000000000000000000000000000000000000000000000000000000000000000000000000000000000000000000000000000000000000000000000000000000000000000000000000000000000000000000000000000000000000000000000000000000000000000000000000000000000000000000000000000000000000000000000000000000000000000000000000000000000000000000000000000000000000000000000000000
1011102042 3ARKANSA 20001HAMMERSCHMI66161661611666161111261169161661611666116111169991199166166111616191116166111611666111116611111611166111116611161111116611611111611111661116166111666616111166666616666616666616191111666661611616166666661616111999991111611116111111616661161111661161111116111161111161666616111111111161116161111166666666661116116111666161111111161166161111166166661116161116111196611166116161111611111161116991611111111161111116111166666161666661611611161111661611166111111111161166169111999999999999999966166116116661666611666116111116161666111611666111111611111616616111166111616611111116611161116111111611111661116161166611611111116166661111666161119961611616161661161166661166666618661116116611111111616116666161111616611116611611161161666666111611111191116116666111161116661111611116116111111161111116611611661661666661111166166666616666666116611611616161196116111611666696666116666666661611600000000000000000000000000000000000000000000000000000000000000000000000000000000000000000000000000000000000000000000000000000000000000000000000000000000000000000000000000000000000000000000000000000000000000000000000000000000000000000000000000000000000000000000000000000000000000000000000000000000000000000000000000000000000000000000000000000000000000000000000000000000000000000000000000000000000000000000000000000000000000000000000000000000000000000000000000000000000000000000000000000000000000000000000000000000000000000000000000000000000000000000000000000000000000000000000000000000000000000000000000000000000000000000000000000000000000
1011460142 4ARKANSA 10001ANTHONY  BE11611111116161111191161111161111116661111111111111111111111111111111111611111161616661111611116191111111161669191166161611611111161991166113661111666166169661161119996611661616611161111111111111611111116116116111111111119111111199111111119161611611111161116161166191111611199992911611192111611111161191111661111111666161999111616161161111111611111111111661111661116111161111166111111191111111111111111611111111161111166616166661111166611111161661161916111111111111611911111116561611161666111111111166111199111166161661111111116111116166661111111211161616611611116661111111666111611611166199611666611615566111611661111161666166116161166111611616161161161111111111111666111161616116116116661611116661116111111111111111111119111166111116111119111111666691611616961161616166611111111111611111111661166611166111611611111111911116161111116116111116611611111611116691111111111111111119100000000000000000000000000000000000000000000000000000000000000000000000000000000000000000000000000000000000000000000000000000000000000000000000000000000000000000000000000000000000000000000000000000000000000000000000000000000000000000000000000000000000000000000000000000000000000000000000000000000000000000000000000000000000000000000000000000000000000000000000000000000000000000000000000000000000000000000000000000000000000000000000000000000000000000000000000000000000000000000000000000000000000000000000000000000000000000000000000000000000000000000000000000000000000000000000000000000000000000000000000000000000000000000000000000000000000
1011544061 1ARIZONA 20001RHODES  JOH66161661661666116611161166166666661666161111161116161666166111666111166666161661666611166611111661961161116611161111111161611616111611161161166111666666166166616666666616666616111111611661616616166696611616161161661111116116611161616611611111661113336116111661111161666611161111111111116661111666616166161116116611611666111611161166161116116166611116161116161166111161611661111611111116116666611111161161111111611166666161666661116611161111661661166111161611661666161911666161111111116611166111116161666611111116161616661661111616666166611661111616616611166111116611111166111661161111111611116111166161111611616616666616661111661116611161611616111611661166166166666118661111116661111666616166666166111666611666611161116666666611111661666116111116966161166116661111616116116611166666161616611661166616616611111616166666616666661111611611616111166111111661661166161116116616161111600000000000000000000000000000000000000000000000000000000000000000000000000000000000000000000000000000000000000000000000000000000000000000000000000000000000000000000000000000000000000000000000000000000000000000000000000000000000000000000000000000000000000000000000000000000000000000000000000000000000000000000000000000000000000000000000000000000000000000000000000000000000000000000000000000000000000000000000000000000000000000000000000000000000000000000000000000000000000000000000000000000000000000000000000000000000000000000000000000000000000000000000000000000000000000000000000000000000000000000000000000000000000000000000000000000000000
1011056661 2ARIZONA 10001UDALL  MORR11611111196111111161161111161111116166199999999999999999999911991111191611191161111161199999966111111116161666616166161111661161161916111111611111616611169616111191111111111616611161111111111111611191199699911111111111111111111111611111116119111611111161116111966111111161111119111611911111111911191111911661111111116111996111616631111111911611191111619661111161111161161111166111111119111111911111191611111111966111111616196641111166111111111661111111111999999999611111119166666611961111111111119999911116191166191699911111111111116166661611611691161916611611116611111111666116611611166119666666611616666119691111111116666111196661161111111116161161961111119611111661199161619196916166161611111169116199911111111111111119911169991116119189111111616666611611966991161111611119911119999611191661161611196611619991111111911116111131119219911116611111111611111111111161916119111119900000000000000000000000000000000000000000000000000000000000000000000000000000000000000000000000000000000000000000000000000000000000000000000000000000000000000000000000000000000000000000000000000000000000000000000000000000000000000000000000000000000000000000000000000000000000000000000000000000000000000000000000000000000000000000000000000000000000000000000000000000000000000000000000000000000000000000000000000000000000000000000000000000000000000000000000000000000000000000000000000000000000000000000000000000000000000000000000000000000000000000000000000000000000000000000000000000000000000000000000000000000000000000000000000000000000000
1011445461 3ARIZONA 20001STUMP  BOB 66161661661666166611616666166666661666166116161116161666166111666161616166166616166611666661111661666166666611961111616666116616616611661166166166666666166166666666666666666666161111666661666666166666661666666661666661616116616699999666611116666166616616111661611666666616161161116161616661166666616666661116616616611666111666161166666116666166666616161116161166611666616666111611616166166999999999992252599959925959599599922295595522255999999921166116199611661666161616666111111161616666166166666661666661111111611116666666161666666611116666111666616161166161666616661666111661166166111666233222354253222959234666166616811611666166669961611611688616661166166161666118661116166661111661616166666166661666666666611666666666666611616661666116616116166161166116661111611666116611169999999616611116666666611661161666166666616666666166661661616111166166616661666666666116666666666611600000000000000000000000000000000000000000000000000000000000000000000000000000000000000000000000000000000000000000000000000000000000000000000000000000000000000000000000000000000000000000000000000000000000000000000000000000000000000000000000000000000000000000000000000000000000000000000000000000000000000000000000000000000000000000000000000000000000000000000000000000000000000000000000000000000000000000000000000000000000000000000000000000000000000000000000000000000000000000000000000000000000000000000000000000000000000000000000000000000000000000000000000000000000000000000000000000000000000000000000000000000000000000000000000000000000000
1011542961 4ARIZONA 20001KYL  JON   66161661661666166661611666166666661616661116161116661666166111666161666166166616166111166661111661666191616611161111111666111611116611661161166111666666116166666666666616661166111111666661666666166666661161661661661661616116611161616666611116666161616116111661611166666616161661111161116661166666616666661116616616611666111611161166661116166166611116161116199116111166611661111611111116166661611111166161611116611166666161666661616611161111661661966119999611661666161611666111111111616666166111116661666661111111611116666666161616666616611666111666616611166111166616999966111661166111111616111111166161111161116616166916661111661616611661611611611616661166166166666118661116166661111661616166666166161666611666611161166666666611611161666119111116166161166116661111616666116611166666161616611116661666611666111616166666616666611111611661666111166166116661616166161116111666161611600000000000000000000000000000000000000000000000000000000000000000000000000000000000000000000000000000000000000000000000000000000000000000000000000000000000000000000000000000000000000000000000000000000000000000000000000000000000000000000000000000000000000000000000000000000000000000000000000000000000000000000000000000000000000000000000000000000000000000000000000000000000000000000000000000000000000000000000000000000000000000000000000000000000000000000000000000000000000000000000000000000000000000000000000000000000000000000000000000000000000000000000000000000000000000000000000000000000000000000000000000000000000000000000000000000000000
1011510561 5ARIZONA 20001KOLBE  JIM 66161666661666166111111619116666666666161111161116161666166111166111666166161666166111166661111161661161116611161161111161611661111616161161166116666616116616666661666616661666611111611611616111666666611161661999991111116116611161616661611116611166116111111661611161116611161161111111199661161616616666111116116611611666111611161166661116111666111111161116161166111166992661111111111116116666611111161161111111611116666161666661116611161111661161166111161999661666161611666161611119925511666111116661666661111166161611661661111616616166611661111666666611116611166611111166111666161111161116111111116161111611111116166616661111161166161161611611161611661166166166666118661111116661111666616161666166111666611116611161116666666616111661616116111116661116161116661111616116116611166666161611611661166611616661111616166666616666616111611169999111166166111661661161161111116666111111600000000000000000000000000000000000000000000000000000000000000000000000000000000000000000000000000000000000000000000000000000000000000000000000000000000000000000000000000000000000000000000000000000000000000000000000000000000000000000000000000000000000000000000000000000000000000000000000000000000000000000000000000000000000000000000000000000000000000000000000000000000000000000000000000000000000000000000000000000000000000000000000000000000000000000000000000000000000000000000000000000000000000000000000000000000000000000000000000000000000000000000000000000000000000000000000000000000000000000000000000000000000000000000000000000000000000
1011500971 1CALIFOR 10001BOSCO  DOUG11691119116161991161166991161111116666111161111111111111611111111111161669911161116666111111666199111111966666616166161911611111999116166111661111666166161661161111111111111616111161161116111116611111116116119111111111111111111111111111116111611611111111611616166111111111111111111999911111611111161111116661111111166111611111611111661991111611111111611661111166111161161991166111111111111116111111111611111111161111116616166661111166611111161991161916111111111111611111111116666611161111616111111161111116111166161661111111116111111166661611111111166616611611116661111111666116611616166111111611811616666611611166611161666166116161111111611116169161116111111611111699911161611116316116661611111611116111111111111111111111111666111116111111111111666666611116116166611116111111111111111111111661199111199611611111111166111191161111111116611166611111111611111111111111111111199911100000000000000000000000000000000000000000000000000000000000000000000000000000000000000000000000000000000000000000000000000000000000000000000000000000000000000000000000000000000000000000000000000000000000000000000000000000000000000000000000000000000000000000000000000000000000000000000000000000000000000000000000000000000000000000000000000000000000000000000000000000000000000000000000000000000000000000000000000000000000000000000000000000000000000000000000000000000000000000000000000000000000000000000000000000000000000000000000000000000000000000000000000000000000000000000000000000000000000000000000000000000000000000000000000000000000000
1011542071 2CALIFOR 20001HERGER  WAL66661666661666116661611666169666661616666111161116661666166111666111111616961666166111166661661191666161116611161111166666111616611611661166166611666666116166616666666616666666111111666661666666166666611616611611661111616116611161616666611116661661116166111661911166666616161111111166616661116666616166616116116611611666111616161136661116666166666616161119161116611666611661111611111166116666611111161161111116616166666161666161111611161111661111166111661611661666161611666111111161616666116111166661666661111111611116666666111666666966611666111696616161166111661916161166111661166161111661111111196161111161116166696616611611666166611161611611666611911166116166666116661111116661111661619166616116111666611616611661166666666616116661616116611116161111161116661111616666116611169666161616611116666116611661111666166666996666611111616611666111166166611661666666161116116666661111600000000000000000000000000000000000000000000000000000000000000000000000000000000000000000000000000000000000000000000000000000000000000000000000000000000000000000000000000000000000000000000000000000000000000000000000000000000000000000000000000000000000000000000000000000000000000000000000000000000000000000000000000000000000000000000000000000000000000000000000000000000000000000000000000000000000000000000000000000000000000000000000000000000000000000000000000000000000000000000000000000000000000000000000000000000000000000000000000000000000000000000000000000000000000000000000000000000000000000000000000000000000000000000000000000000000000
1011464971 3CALIFOR 10001MATSUI  ROB11611111116111111111166118161111116166111161111111111111661111111111161661111161111161111111666199111111161666616166161111661161161116166111611111666616161661111111161111111616699999911111111111611111116116119111111111111111111116111111166661111611111161661111166611111111111111111616111111611111111111116661111111166111616111616611611111111611111111661661111161111161161111166111111111111111111111111611111111161111111616166661111166619111161661116916111111111111611111111155666611161166111111111166111116111166161661111161111661111166661111611611166616611616116661111111666116611611199191666666811616666611611166611666666166116161166116611116161161111111119611111661111111611116199166161611111611119911111111111111111111111166111119111191111111616666611611111116166111661111111111619611111661111611166111611991111111111116166111116116111166611111111611111111199992111111119999900000000000000000000000000000000000000000000000000000000000000000000000000000000000000000000000000000000000000000000000000000000000000000000000000000000000000000000000000000000000000000000000000000000000000000000000000000000000000000000000000000000000000000000000000000000000000000000000000000000000000000000000000000000000000000000000000000000000000000000000000000000000000000000000000000000000000000000000000000000000000000000000000000000000000000000000000000000000000000000000000000000000000000000000000000000000000000000000000000000000000000000000000000000000000000000000000000000000000000000000000000000000000000000000000000000000000
1011462471 4CALIFOR 10001FAZIO  VICT11616111116111111161161111161111116661111161121111111111611111111111111611111161611161111111116111111111161666616161161111661161161116166111661111666111161161661111161611111616611161111111111111611111116166111111111111111111111116111111116161111611111161661116166111111111111111111616111111611111111111116661111111166111611111616611111111111611111111611661111161111161161111166118111191111111111111111616111111161111111616166661111166611111111661161116111111111111611111111166666611161111611111111111111199999995261661111161111661116166661111111111161616611616116661111111666111611611166111666666611616666611691166611661666166116161166111111916161161161111111611111661111161616116116116661611116661116111111111111111111111111166111116111111111111616666611111116616166111661111111111611111111661161661159999999991111111111116161111111116111166611111111611111111111161111111111111100000000000000000000000000000000000000000000000000000000000000000000000000000000000000000000000000000000000000000000000000000000000000000000000000000000000000000000000000000000000000000000000000000000000000000000000000000000000000000000000000000000000000000000000000000000000000000000000000000000000000000000000000000000000000000000000000000000000000000000000000000000000000000000000000000000000000000000000000000000000000000000000000000000000000000000000000000000000000000000000000000000000000000000000000000000000000000000000000000000000000000000000000000000000000000000000000000000000000000000000000000000000000000000000000000000000000
1011544871 5CALIFOR 10001PELOSI  NAN11611111116111111166166991111111116161111161111119111111611111111111111611111161611161111111666199111111161666616166161911661161161116116111611111111111161611111111161111131666611161111111191111619111116196112111111111111111111116111111116161111611111161661116166611111111111116111434311111611111166111116661111111966111666111616611611111111611111111611661111161111161161111166111111111111111111111111616111111161111111616166661111166611111111661111116111111111111611111111166666611161111111111111166111116111166161699111111116111111166661111111611166616611616116661111111616111611611666199666666611616666111661166611966166666111661166111111116161161111111161611111661111161611116136166161611111611116111111111111111111119111166111116111119161111616666611611166616161161661161111111611611111661111116144334411619111111111111111111116116111166619111166611111116111161111911111119900000000000000000000000000000000000000000000000000000000000000000000000000000000000000000000000000000000000000000000000000000000000000000000000000000000000000000000000000000000000000000000000000000000000000000000000000000000000000000000000000000000000000000000000000000000000000000000000000000000000000000000000000000000000000000000000000000000000000000000000000000000000000000000000000000000000000000000000000000000000000000000000000000000000000000000000000000000000000000000000000000000000000000000000000000000000000000000000000000000000000000000000000000000000000000000000000000000000000000000000000000000000000000000000000000000000000
1011501171 6CALIFOR 10001BOXER  BARB11611111116111111111166611119111616161111661111111111111611199911111111611111161111161111111666199111111161666616166161111661161161116116111611111111111161611111111111111191666691161111111111111611111116166195111111111111111111616111111116111111611111161661116166611111111111116111999911111611111116111116661111111166111666111616611611111111611111111661661111161111161161111166111191119111111111111111616111116161111111616166661111166619111111661111111111111111111619111111166666611161161111111111166111199999999999999991111116111111166661611111611161616611616116661111111666111611619999911666666611616666111699966611661666166111991111611111116161161111111161611111661111161611119999166161611111611119911111111111111111111111166111116111111111111616666611616116616161661661119991111611611111666111116199299599991111111111111111111116116111116611111166611116116111161116112929999900000000000000000000000000000000000000000000000000000000000000000000000000000000000000000000000000000000000000000000000000000000000000000000000000000000000000000000000000000000000000000000000000000000000000000000000000000000000000000000000000000000000000000000000000000000000000000000000000000000000000000000000000000000000000000000000000000000000000000000000000000000000000000000000000000000000000000000000000000000000000000000000000000000000000000000000000000000000000000000000000000000000000000000000000000000000000000000000000000000000000000000000000000000000000000000000000000000000000000000000000000000000000000000000000000000000000
1011425671 7CALIFOR 10001MILLER  GEO11611111116611921111166111169111696166111161111811111111611111111111111611111161111161611111666191111111961166616166166111661161161116116111611111111191161611111111161111111669916161111111161111611111116666116111111611111111111116111111116661111621111161666116666611111111111616111999911911611111166191116661111916166111616116616611611111111619111961661661111661616161161111166161111119111111111111111616111116161111111616116666111166611111111661111111611111111111611111911166966611161111111191161166111199999966161661111111116111111166661611111111169616611696616661999911666111611616166111666666611616666119999166611611166166111611166111111116116166111111161611111661111161611116199166161611111611116111111111111111111119116166111116111111161111916666611611666666161661661111111191611611116661111116166111611611111111111111111111916116111116611111116611616196111161116911161111100000000000000000000000000000000000000000000000000000000000000000000000000000000000000000000000000000000000000000000000000000000000000000000000000000000000000000000000000000000000000000000000000000000000000000000000000000000000000000000000000000000000000000000000000000000000000000000000000000000000000000000000000000000000000000000000000000000000000000000000000000000000000000000000000000000000000000000000000000000000000000000000000000000000000000000000000000000000000000000000000000000000000000000000000000000000000000000000000000000000000000000000000000000000000000000000000000000000000000000000000000000000000000000000000000000000000
1011301171 8CALIFOR 10001DELLUMS  RO11691111116111111166166119161111116166691161119999611111611111111111111111111161111961611191666111111611161166616166161111661161161116116111611611111111161611111111111111111666616161111916111111611111116616166111111611111111111196111111116661111611111161661116966611111111111616991995211111611111111191116661111111166111666116616611611111111611111111611661111161111166161111166166191191111191111111111616111116161111111666666661111166611161111661111116191111111111619911111166666611161111611111111166191199999996161661111911116119111166661111611111166616611616116661111111666116611611166111666666611666666611661166611661166866116669911691111116161166111111161611111961111166611116116116161611111611116611111111111111111111111166111116111111161119616666611611966666161661661161111191611111116666111116966116611611111111111111111111916116111166611111166611111116111161916161161111900000000000000000000000000000000000000000000000000000000000000000000000000000000000000000000000000000000000000000000000000000000000000000000000000000000000000000000000000000000000000000000000000000000000000000000000000000000000000000000000000000000000000000000000000000000000000000000000000000000000000000000000000000000000000000000000000000000000000000000000000000000000000000000000000000000000000000000000000000000000000000000000000000000000000000000000000000000000000000000000000000000000000000000000000000000000000000000000000000000000000000000000000000000000000000000000000000000000000000000000000000000000000000000000000000000000000
1011405371 9CALIFOR 10001STARK  FORT11611111116611111161166111161111616166699999111811611111611111111111111611111161111161611111666199111111161166616166166611661161161116116116611111111111161611111111111111111666966161611116111111611111116666166111111111111111111616111111116669111611911161666116916691111111911116111999911111611111166191916661111111166119996116616611611111961611111161611661191661611161161116166111111111111111911111111616111116161111111616111166111166611119111691111111611111111111611911111166666611161666111111161166116116111166166699111111116111111166661611111111161616611616619999111111666116611619999911666666611616666111661166611611166166111991116611111116116166161111161611111661199161611116116146161611111611116111111111111111111111111166111116111111161111616666611611166616161661661111111111999611196661111116166116611991111111111191111111116116111166611111116611196691111161111961191119900000000000000000000000000000000000000000000000000000000000000000000000000000000000000000000000000000000000000000000000000000000000000000000000000000000000000000000000000000000000000000000000000000000000000000000000000000000000000000000000000000000000000000000000000000000000000000000000000000000000000000000000000000000000000000000000000000000000000000000000000000000000000000000000000000000000000000000000000000000000000000000000000000000000000000000000000000000000000000000000000000000000000000000000000000000000000000000000000000000000000000000000000000000000000000000000000000000000000000000000000000000000000000000000000000000000000
101105837110CALIFOR 10001EDWARDS  DO11611111116111111166166111161111116161111161111111111111611111111111161611111161611161111111166199111111161666616166161111661961161116116111611111111111169611111111161111111666611161111116111111611111116166159111111111111111111196111111116161111611111961666116166111111161111111111996111111611111111191116661111111166911666111616619599111111611111111611661111691616161161111166161111111111111111111111616111111161111111669966661111166611111111661111116111111111111611111111166666611161111111111111169999919611166161661111111116111111169991111611111166616611616116661161111666116611616166111666666611616696611661116611661666166111661166111111116161166111111161611111661199161611116116116161611111611116611111911111111111111111166111116111111161111616666611611166616166161661161111111611111111661111116166111611611111111111111111111111116111166611111111611111116111161116111199999900000000000000000000000000000000000000000000000000000000000000000000000000000000000000000000000000000000000000000000000000000000000000000000000000000000000000000000000000000000000000000000000000000000000000000000000000000000000000000000000000000000000000000000000000000000000000000000000000000000000000000000000000000000000000000000000000000000000000000000000000000000000000000000000000000000000000000000000000000000000000000000000000000000000000000000000000000000000000000000000000000000000000000000000000000000000000000000000000000000000000000000000000000000000000000000000000000000000000000000000000000000000000000000000000000000000000
101148377111CALIFOR 10001LANTOS  TOM11661111116161999161161111161111116666111161111111611111611199911111111611111161611161111111666199111111161161116166161111611161161116166199661111666616161661661111161111111616611161111111111111611111116116119111111111111111111196111111116111119611111161611161166111111111111111111999911111611111116111116661111111166111616111616611111991991611111111611999911169111999161991166111111111111111111111111611111111161111111616166661111166611111111661161111111111111111611191111166966611161111611111111166161116111166161661111111116111116166661611111611161616611616116661111111666111611616161111661666611616666111111166611666166166111619999911111116161161111111111611111666199111616116116116661611116661116111111111111111111111111666111116111911111111616666611616166616111111661111111111611111111661111111166111619991111111111666611111111116116166611199111111111111111111111111111999900000000000000000000000000000000000000000000000000000000000000000000000000000000000000000000000000000000000000000000000000000000000000000000000000000000000000000000000000000000000000000000000000000000000000000000000000000000000000000000000000000000000000000000000000000000000000000000000000000000000000000000000000000000000000000000000000000000000000000000000000000000000000000000000000000000000000000000000000000000000000000000000000000000000000000000000000000000000000000000000000000000000000000000000000000000000000000000000000000000000000000000000000000000000000000000000000000000000000000000000000000000000000000000000000000000000000
101156007112CALIFOR 20001CAMPBELL  T66161666611666111111661111161661616666111161161111111166161111116161116166111661111611116611111116111111111161161166111116161161111116111111611661666616111166616681111116661666111111611611661616666616611666161111611611111111111111616166111111661166111111611666161111116111111616111992911111111111116161116116111116611661111116611616611111111666661111611661111166611166161161111611111111118616111111166161611116661166666111166661116661161161661661166111661433661666611611666166611111661111661111166661666666666166161661661611116116661111116661111666616166616616111116111166111166111616111616111111166161111111111116661616166161611614411661611116116166661166166116666611611119116661133666161611111116111616611161111111111666661666111161166116111116661699999999661616616661161661116616111611111166661116661166111166166666611666666661666616666111166166616611661166161161116666611111100000000000000000000000000000000000000000000000000000000000000000000000000000000000000000000000000000000000000000000000000000000000000000000000000000000000000000000000000000000000000000000000000000000000000000000000000000000000000000000000000000000000000000000000000000000000000000000000000000000000000000000000000000000000000000000000000000000000000000000000000000000000000000000000000000000000000000000000000000000000000000000000000000000000000000000000000000000000000000000000000000000000000000000000000000000000000000000000000000000000000000000000000000000000000000000000000000000000000000000000000000000000000000000000000000000000000
101142577113CALIFOR 10001MINETA  NOR11611111116161111166166111161111116166111961111111119111661111111111111611111161611161111111666111111111161666616166161111661161161116166199611111611611161911111111161111111616619961111111111111611111116166111111111111111111111116111111116111611611111161661116166111111161111111991999911111611111111111116661111111166111616999616611611999992991111111611661111161611161161111166111111111111111111111111616111111161111111616166661111999991111111661111116111111111111611911111166666611161111111111111161111116111166161661111111116111116166661111111111161616611616116661111111666116611616159111666555423436666611661166611661666166111661166116111116161161116111161611111668111161616116116116161611111611116111111111111111111111111166119116111111111111616666611611116666161111661111111111611111111661111661166111611611113111111111111111111116116116611111111611116111111161111111111111100000000000000000000000000000000000000000000000000000000000000000000000000000000000000000000000000000000000000000000000000000000000000000000000000000000000000000000000000000000000000000000000000000000000000000000000000000000000000000000000000000000000000000000000000000000000000000000000000000000000000000000000000000000000000000000000000000000000000000000000000000000000000000000000000000000000000000000000000000000000000000000000000000000000000000000000000000000000000000000000000000000000000000000000000000000000000000000000000000000000000000000000000000000000000000000000000000000000000000000000000000000000000000000000000000000000000
101146607114CALIFOR 20001SHUMWAY  NO66161666611666161661611661161661611666616111161111611166166111616111666166111611666611116611661611166111616661161111166616116116611111661116166666666166611166616616666666661166161111666661669666166616661616661111661111611116116111616166161111661161111616111661911616666616111111116166616161166166666666666116999999999991111116161166661111666166666116161116111196611666111161111611111169116616911111196161611166116166666161666666616611161111661611166111111111161666161111166111111161616666166116166661666611111111611116166666111661666161111616111616616161166111661116161666111661166161111661111111166161111161116666616616611111666161611661611616661616161166161166666186661111166611111661616166666169111666666666611661166661666611616616661119611116661111166116161111616116116611161666161616611116661666611666161661166666116666661116611661666111166166616661999999966116666666166611600000000000000000000000000000000000000000000000000000000000000000000000000000000000000000000000000000000000000000000000000000000000000000000000000000000000000000000000000000000000000000000000000000000000000000000000000000000000000000000000000000000000000000000000000000000000000000000000000000000000000000000000000000000000000000000000000000000000000000000000000000000000000000000000000000000000000000000000000000000000000000000000000000000000000000000000000000000000000000000000000000000000000000000000000000000000000000000000000000000000000000000000000000000000000000000000000000000000000000000000000000000000000000000000000000000000000
101146137115CALIFOR 10011COELHO  ANT01616111116111111111161111161111116161111111111111111111611199111191911611111161619999900000000000000000000000000000000000000000000000000000000000000000000000000000000000000000000000000000000000000000000000000000000000000000000000000000000000000000000000000000000000000000000000000000000000000000000000000000000000000000000000000000000000000000000000000000000000000000000000000000000000000000000000000000000000000000000000000000000000000000000000000000000000000000000000000000000000000000000000000000000000000000000000000000000000000000000000000000000000000000000000000000000000000000000000000000000000000000000000000000000000000000000000000000000000000000000000000000000000000000000000000000000000000000000000000000000000000000000000000000000000000000000000000000000000000000000000000000000000000000000000000000000000000000000000000000000000000000000000000000000000000000000000000000000000000000000000000000000000000000000000000000000000000000000000000000000000000000000000000000000000000000000000000000000000000000000000000000000000000000000000000000000000000000000000000000000000000000000000000000000000000000000000000000000000000000000000000000000000000000000000000000000000000000000000000000000000000000000000000000000000000000000000000000000000000000000000000000000000000000000000000000000000000000000000000000000000000000000000000000000000000000000000000000000000000000000000000000000000000000000000000000000000000000000000000000000000000000000000000000000000000000000000000000000000000000000000000000000000000
101156357115CALIFOR 10022CONDIT  GAR00000000000000000000000000000000000000000000000000000000000000000000000000000000000000000000000000000000000000000000000000000000000000000000000000000000000000000000000000000000000000000000000000000000000000000000000000000000011191111111116111111661119111611616166111111111111111111116111911611111111111116161111911166111611911616611111111111611116116661961111161111161161111166111111111111111911111111611111111161111166616166661111166111111611161161116111111191111611911111166116611161111611111111966111111111116111661911161111661111166611611111111111611611611116618911111116111111611161191611661811616661111611161661666666199916161111111611116161661116111111611191661111111611191111116661611116611116111111111111111111111616666111116111111111111666616611616161111616169111111111116111111611661661911166616161669116666911116111111111619999911111111111611116116111111111169166611100000000000000000000000000000000000000000000000000000000000000000000000000000000000000000000000000000000000000000000000000000000000000000000000000000000000000000000000000000000000000000000000000000000000000000000000000000000000000000000000000000000000000000000000000000000000000000000000000000000000000000000000000000000000000000000000000000000000000000000000000000000000000000000000000000000000000000000000000000000000000000000000000000000000000000000000000000000000000000000000000000000000000000000000000000000000000000000000000000000000000000000000000000000000000000000000000000000000000000000000000000000000000000000000000000000000000
101144447116CALIFOR 10001PANETTA  LE11661111116111111111166111161111616666111161911111111111666111111111161611111161611161111111116111111111111666616166111111611161161116116111611111166616161611161111161111111616611161111111111111611111116166116111111161119111111111111111116161111611111161666116166111111111111111111999911111611111166116116666111111166111616111616611611111111611111111611661111661616111161111166111111119111111911111111616111116161111116616166661111166611111111661161111111111111111619111111166666611161111111111166166666616111166161661111161111661111166661611611111166616611916116661111111666111911611166111666666611616669111611166611661166116116161166111111116161161161111111611111661111113611194134166161611111661116111111111111111111111111166111116111111111111616666611616116666166111661111119111613611111661111616166111611611111111111111161111111114311116311111111611116111111161116111111131100000000000000000000000000000000000000000000000000000000000000000000000000000000000000000000000000000000000000000000000000000000000000000000000000000000000000000000000000000000000000000000000000000000000000000000000000000000000000000000000000000000000000000000000000000000000000000000000000000000000000000000000000000000000000000000000000000000000000000000000000000000000000000000000000000000000000000000000000000000000000000000000000000000000000000000000000000000000000000000000000000000000000000000000000000000000000000000000000000000000000000000000000000000000000000000000000000000000000000000000000000000000000000000000000000000000000
101146527117CALIFOR 20001PASHAYAN  C66161611661161166661111116166666166616161111111116161666166111666111161111161661161111161661611661661161166611161111111166111611111916166161166111666966116166666666666611111666611161116661166611166166611116111611661111616111611161116611616116669611116111111161691161661611161111111161111661111611111161616111111611666166111616111161161996116166116116161116161166611161611669999918111116116166611111161161111116811166666161166661111611161111961661166116161611661161161611666192666111111611116111161161116696111116161616611181111666666166661661113666611161166116611611111166611161111111166111611666616161161611611966666666666111616161111111611616161661661166316161166618611111116661911116616116616166111696611111111111111166666666111161116119111116666666111116661111616166116111116166111111611611166661166661611168166666616666666161611111611916116111111669666666161115111161161111600000000000000000000000000000000000000000000000000000000000000000000000000000000000000000000000000000000000000000000000000000000000000000000000000000000000000000000000000000000000000000000000000000000000000000000000000000000000000000000000000000000000000000000000000000000000000000000000000000000000000000000000000000000000000000000000000000000000000000000000000000000000000000000000000000000000000000000000000000000000000000000000000000000000000000000000000000000000000000000000000000000000000000000000000000000000000000000000000000000000000000000000000000000000000000000000000000000000000000000000000000000000000000000000000000000000000
101150327118CALIFOR 10001LEHMAN  RIC11691191196111111161166111961111619666111161111111111111611111911111161611111161611661111191116111111111161666616161161111611161161116116111611111666111161611161111111111111616611161111111111111611111116166119999991111111111111116111111116111111619991111611696166111111111111111111619911111611111161111116661111111166111616111616611699111111611111111661661111191611161161111166116119911111111111111111611111111161111111616166661111166619111111661111916119911111111611111111166666611161111611111111166111199999999999999991161111661111166661611111611161616611616116611111111666111611611166111666666611616666111611966611666666116116161166111111616161161161111111611111661199161611116199116161611111611916191111111111111111111111666111116111111111111616616611116161116611161661111111111611111111661111611999611611661111111111116111111111116111166611111161619116111111191116111161111100000000000000000000000000000000000000000000000000000000000000000000000000000000000000000000000000000000000000000000000000000000000000000000000000000000000000000000000000000000000000000000000000000000000000000000000000000000000000000000000000000000000000000000000000000000000000000000000000000000000000000000000000000000000000000000000000000000000000000000000000000000000000000000000000000000000000000000000000000000000000000000000000000000000000000000000000000000000000000000000000000000000000000000000000000000000000000000000000000000000000000000000000000000000000000000000000000000000000000000000000000000000000000000000000000000000000
101140717119CALIFOR 20001LAGOMARSINO66161661661666611161161616166666661666661111161116661666166111166111666666166661666111661661111661111161116611161161111161611611116616161161166111666666116166666666166616666666111111611661666611166666611616161611661111616111611161116666611116661161116116111661611161666611161111111161111661111666616166116116116611611616111616616616111116116166666116161111161166111166661661111611113316116666611111161161611111611166666161166661116611161111661661166111161611661166161611666111161111116611661111116161166661111116111111616666111616666166611666111666616111166111166111111166111661111111111116111111166161161111611666666611161111661616611161611616161166661166116166666118611111166661111661616166616166111666611111111616111666666666111161116116111116161111161116661111616166111611111666161616611611161661666661111116166666616666611111611111616111166111116611666166161116116666616111600000000000000000000000000000000000000000000000000000000000000000000000000000000000000000000000000000000000000000000000000000000000000000000000000000000000000000000000000000000000000000000000000000000000000000000000000000000000000000000000000000000000000000000000000000000000000000000000000000000000000000000000000000000000000000000000000000000000000000000000000000000000000000000000000000000000000000000000000000000000000000000000000000000000000000000000000000000000000000000000000000000000000000000000000000000000000000000000000000000000000000000000000000000000000000000000000000000000000000000000000000000000000000000000000000000000000
101146697120CALIFOR 20001THOMAS  WIL66191661661666116611111116166666666666191111169116161666166111666111666161161666166611166669299999611161116611161161111161911616111611161161166111666666119166666666666616666166661111611661616116666666611666161611611111116116611191616666611166611161116116111661611161111611161111111111116611111616616166116111116611611666111616661166661116611666161111161116161166111161611616161111111166116661611111161161111116611166666161666661116522259111661161166111161611661166161611666192292299925995255995999999999966161166161611611966111666666161111661111666616256616111161111111116611661116111111616111111116161111129599166666611661111666261166161611616161611661166166166666118661111116661111116616161616116111666611111111111116666666666111661116119611116966111611116661111611166116611166666161116611611166611611659259999995599616666661116611611616111116166111661666666661116116661661699900000000000000000000000000000000000000000000000000000000000000000000000000000000000000000000000000000000000000000000000000000000000000000000000000000000000000000000000000000000000000000000000000000000000000000000000000000000000000000000000000000000000000000000000000000000000000000000000000000000000000000000000000000000000000000000000000000000000000000000000000000000000000000000000000000000000000000000000000000000000000000000000000000000000000000000000000000000000000000000000000000000000000000000000000000000000000000000000000000000000000000000000000000000000000000000000000000000000000000000000000000000000000000000000000000000000000
101154137121CALIFOR 20001GALLEGLY  E66161661661666616661161616166666661666161111161116661666166111966111111666166661666611666661111661661161116611161111111166111616616611161961166111666666116166666666666616666666111111611661666661166666661616161611661111616111611161116666611116661161116116111661611166666611161111111169916661116666616166166116116616611696111616611666161116616166661116161116961166111166611661111611191116116666611111161161111111611166666161166661116611161111661661166111161611661166361611666111111111116611661111116661666643333116111111666666111616666166611666111666616111166111166111111166111661111111111116111111166161161111111666666611661111661616611161611616161166661166166166666118611111116661111661616166616166111666611111111616111666666616111161116119111116161111161116661111616166116611119996161616611611161661661661111116166666616666661111611111616111166111116611666166161116116666661111600000000000000000000000000000000000000000000000000000000000000000000000000000000000000000000000000000000000000000000000000000000000000000000000000000000000000000000000000000000000000000000000000000000000000000000000000000000000000000000000000000000000000000000000000000000000000000000000000000000000000000000000000000000000000000000000000000000000000000000000000000000000000000000000000000000000000000000000000000000000000000000000000000000000000000000000000000000000000000000000000000000000000000000000000000000000000000000000000000000000000000000000000000000000000000000000000000000000000000000000000000000000000000000000000000000000000
101140407122CALIFOR 20001MOORHEAD  C66161661661666111911611661166666661666666111191116661166166111666161116116161611166111666661111699161161116611161111116611116611116611161166166111666666111166666666666616666666111111611661666661166666611611616611661111616116611161616666611116661161116616111661611116666611161111116161116611116666616166666116116611611666111616611161161116666166661116161116169999999999611661111611111116116666611111166161611116616166666161661166116611161111661111166111161611661666161611666111111111616611666111166661666661111116111116666166111666666161111666111666616166616111661116161166111661111111111616111111166161111161611666666611611111661166611161611611661666661166116166666118661111116611111661616166616166111666611111111116161661666616111161116116111116161111161616661111616166116611161666161616611611661661661661161666166666616666661111611911616111166166116661611166161116116666666611600000000000000000000000000000000000000000000000000000000000000000000000000000000000000000000000000000000000000000000000000000000000000000000000000000000000000000000000000000000000000000000000000000000000000000000000000000000000000000000000000000000000000000000000000000000000000000000000000000000000000000000000000000000000000000000000000000000000000000000000000000000000000000000000000000000000000000000000000000000000000000000000000000000000000000000000000000000000000000000000000000000000000000000000000000000000000000000000000000000000000000000000000000000000000000000000000000000000000000000000000000000000000000000000000000000000000
101144057123CALIFOR 10001BEILENSON  11616911116111119166161661169111696166611661111111611111611111199111166661111161111161111111116199111111111161616166161111661161161116116111611611111111169611111111161111111666611911161111111111611111116166166999991111111111111699999111116161111611111161661661166611111111111111111611111111616111611111116661116111666119616111616611611111111611111111611661111161111166961111166161111111111111111111111616111111161111111616666661111199999111999661161111611111111111611111111166666611161111161111111161111116161166161661116111116111111166661616611111161616611611196116161111666116611611166111666666611616666111611116611666166166111611166111111616116166111111111611111661111161611616116166161611111661116111111111111111111111111166111116111191111111116166661616116616166119661161111111619611111661111616166116611611111111111116111111116616116166611111116611111111111161111111611119900000000000000000000000000000000000000000000000000000000000000000000000000000000000000000000000000000000000000000000000000000000000000000000000000000000000000000000000000000000000000000000000000000000000000000000000000000000000000000000000000000000000000000000000000000000000000000000000000000000000000000000000000000000000000000000000000000000000000000000000000000000000000000000000000000000000000000000000000000000000000000000000000000000000000000000000000000000000000000000000000000000000000000000000000000000000000000000000000000000000000000000000000000000000000000000000000000000000000000000000000000000000000000000000000000000000000
101142807124CALIFOR 10001WAXMAN  HEN11616111995292169166161111161111116666111161111111111111611111191119111611191161611161111191111111111116161669616166161111661161191116166111611111111111161611111111111111111616611161111116111111611911116199919911111111111111111916111911116161111611119161666199166611111111111111111616111111611111111111116661111191166191616119616611611119111611111111611661111191111161961119966111111111111111111111111696111111161991111616166661111166611111111661111111111111111191611111111166666611161111611111111196119916111166161961111111116111111166661111111111169616611616116661111111666116611611166111666666611666666621699116611661166666111611166111111116111191161111161611111661111161916116116166191611111661116111111111111111111119111166119116111111111111616666611611166666161169661111119111619611111666111616166116611611111111991116111111116116119166611911111111111116911161111111111119900000000000000000000000000000000000000000000000000000000000000000000000000000000000000000000000000000000000000000000000000000000000000000000000000000000000000000000000000000000000000000000000000000000000000000000000000000000000000000000000000000000000000000000000000000000000000000000000000000000000000000000000000000000000000000000000000000000000000000000000000000000000000000000000000000000000000000000000000000000000000000000000000000000000000000000000000000000000000000000000000000000000000000000000000000000000000000000000000000000000000000000000000000000000000000000000000000000000000000000000000000000000000000000000000000000000000
101106217125CALIFOR 10001ROYBAL  EDW11696111116261161166166111111119999299299999929999999122999911911111161611111161611666111111666111111111161666616166195111661161661116116116611611111111161619111111111111111666611161111111111111611111116166116111111611111111111116111111116111111611111161616116166111191161111611991616111111611111111111116661111111166111616111616611611111111611111111611661111691616166161911166166111111111111811111111616111111991111111616166661111166611161111661111116111111111111611119111166666611161611111111111116111116111966161661911111116111116166661111111111166616611616616661111111666116611611166111666666611616666611661166611661666166111961166111111116161666111111111611111661111161611119199116161611111611116611111111111111111111111166111116111119161111616666611611166616161161661161111191611111116661161116166116611611111111111111161119111116111166611111111611111116111111116161111111100000000000000000000000000000000000000000000000000000000000000000000000000000000000000000000000000000000000000000000000000000000000000000000000000000000000000000000000000000000000000000000000000000000000000000000000000000000000000000000000000000000000000000000000000000000000000000000000000000000000000000000000000000000000000000000000000000000000000000000000000000000000000000000000000000000000000000000000000000000000000000000000000000000000000000000000000000000000000000000000000000000000000000000000000000000000000000000000000000000000000000000000000000000000000000000000000000000000000000000000000000000000000000000000000000000000000
101150057126CALIFOR 10001BERMAN  HOW11616111116111991166161111161119616166111161111111111111611911111111161611111161611161191111116111111199961166616166111111661161161116116111611111616611161611161111111191111616611161111116119111611111116166111111161611191111111116111111116161119691111161696166166111111111111611111616119111611111111191116661111111199991616119616611611111111611112999611661111161111199161111166111111119111111111111111616111111161111111616166661111166691111111661111116111111111111611111111166666611161111611111111166111196111166161661111111119291111166661111111611169616611696116661111111666116611611166191666666611616666611661116611666166166191611166111111116111166111111111611111661111161116116116166161611111661116111111111111111111111111166119196111111111111616666611611166616161161661161119991619611111666111116166116611611111911911116111111116116111166611611111111111111111161111111111111100000000000000000000000000000000000000000000000000000000000000000000000000000000000000000000000000000000000000000000000000000000000000000000000000000000000000000000000000000000000000000000000000000000000000000000000000000000000000000000000000000000000000000000000000000000000000000000000000000000000000000000000000000000000000000000000000000000000000000000000000000000000000000000000000000000000000000000000000000000000000000000000000000000000000000000000000000000000000000000000000000000000000000000000000000000000000000000000000000000000000000000000000000000000000000000000000000000000000000000000000000000000000000000000000000000000000
101150347127CALIFOR 10001LEVINE  MEL11611111116111161166161991161111916666611161111111611911611111111111111611111161611161111111666111111111161666616166161111661161161116166111611111666611161611161111111111111616611161111111111111611111116166116111111611111111111116111111116111111611111161661116166111111111111611111616199111611111111111116661111111166111616111616611611111111611111199999999911161111161161111166111119999991119111111111616111111161111111616166661111166611111111661111119911111111991619911111166666611161111611111111166111116111166161661911111116111111166661111111611166616611616116661111111666111611611166111666666611616666111661916611661166166111611166111111116111161111111161611111661111111111116116166161611111669116111911111111111111111111166111116111111111111616666611611166616161161661119111111611611111666111611966116611611111111111116111111111196111166611691161111111111111161911111111119900000000000000000000000000000000000000000000000000000000000000000000000000000000000000000000000000000000000000000000000000000000000000000000000000000000000000000000000000000000000000000000000000000000000000000000000000000000000000000000000000000000000000000000000000000000000000000000000000000000000000000000000000000000000000000000000000000000000000000000000000000000000000000000000000000000000000000000000000000000000000000000000000000000000000000000000000000000000000000000000000000000000000000000000000000000000000000000000000000000000000000000000000000000000000000000000000000000000000000000000000000000000000000000000000000000000000
101146207128CALIFOR 10001DIXON  JULI11691111196161161161161111169119116166111161119991111111616111911111111611111161111961111111999999111111161661616166161191661161161116166999611111661116169661999911161111111616611161111111111111611111116169111111111111999111111116111111116119111619991161611116166111111111199992111616192111611911111111116661111111166119616111616619611111111611111111611661111191111161161116166118111119111191111111111616111111161111111616166661111166611111111661111116111111111111611911911166666611161111611111111166111196111166161999111111116111116166661691111691161611611616116661111111616111611611166191666666611616666611661316611661666166199661166111111116161161961111119611111661111161616196116116161611111669116111111111111111111119111166111196119111111111616666611111166616161169661111111111611111111661116661166116611619111111111116161111111116111166611111111611111111111161111111119999900000000000000000000000000000000000000000000000000000000000000000000000000000000000000000000000000000000000000000000000000000000000000000000000000000000000000000000000000000000000000000000000000000000000000000000000000000000000000000000000000000000000000000000000000000000000000000000000000000000000000000000000000000000000000000000000000000000000000000000000000000000000000000000000000000000000000000000000000000000000000000000000000000000000000000000000000000000000000000000000000000000000000000000000000000000000000000000000000000000000000000000000000000000000000000000000000000000000000000000000000000000000000000000000000000000000000
101105957129CALIFOR 10001HAWKINS  AU19611111116161111166166111161161116166111161111111111111611111111111111611111161611161111111999999111111161666999169161211661161161116116161611111111111196616111991111111111616611961111116111116699961116166116611111111116111111166111111116996111611116161996199666161111119961111111616199619611611111991196661111911166199999611616611611111111611111119999991199991116166161616166198111116111111111199991616111111199111111616199961119169921999999669911116161699611991611611911169666619152211611191161169999966161169199999991919996119199169999991111111161616611616116661111119666116611616969199666666611616656611661116611666666165911699999911119996151199161111111611111699299161991166116116169999999991116119199999911191111119111996119116921119199991999966611611166615961161661161191111991111111661199111166999999991911116111999991119196199911169999911111699191199919161999919999999900000000000000000000000000000000000000000000000000000000000000000000000000000000000000000000000000000000000000000000000000000000000000000000000000000000000000000000000000000000000000000000000000000000000000000000000000000000000000000000000000000000000000000000000000000000000000000000000000000000000000000000000000000000000000000000000000000000000000000000000000000000000000000000000000000000000000000000000000000000000000000000000000000000000000000000000000000000000000000000000000000000000000000000000000000000000000000000000000000000000000000000000000000000000000000000000000000000000000000000000000000000000000000000000000000000000000
101148797130CALIFOR 10001MARTINEZ  M11691111119161119161166111111191116666191111111111111111611111111111611161111161611161111191666999111119161116619116161111611161161116166191621311616111161111961111111111111611611161111111111111611111116166911999111111111111111116111111116111611611111161691166166111111111911111111116111911611111111191116661111111166111616911616611161111111611111111611611111161111161161911166111111111111191111111191616111111161111111616166661111166961111161669111116111111111111611111111166666611161111611111111116999919161111199999911111111611116166991611111611116616111611196699111111616199999999999991666666611616966611611166611169966166191661166111111116161161119111111619911666199161116116116116661611111611116191111111111111111111111166111116111119911111666669611616116111111661611111111111611199196661161111166191619999111111111111161111191116111166611111999999111111111111116161111119900000000000000000000000000000000000000000000000000000000000000000000000000000000000000000000000000000000000000000000000000000000000000000000000000000000000000000000000000000000000000000000000000000000000000000000000000000000000000000000000000000000000000000000000000000000000000000000000000000000000000000000000000000000000000000000000000000000000000000000000000000000000000000000000000000000000000000000000000000000000000000000000000000000000000000000000000000000000000000000000000000000000000000000000000000000000000000000000000000000000000000000000000000000000000000000000000000000000000000000000000000000000000000000000000000000000000
101148167131CALIFOR 10001DYMALLY  ME19916111116161111166166111961111116161611161911619611111619911111111116161111161611161611111696999111116161666616164161111661161161116116111611611111611161661111111111111111666611166111111111111611111116616216111111111111111111199999111116611111611111161661116166111111161111115111616111111611111111111116661116111166191666111696199529991111611111111611661111661116116161119966166111111111111111111111616111111161911111616161161111166611161111661111116191111111111611911111166666611161111611111199995999916666166161661111111116111111166661111611111166616611611116661111111666116611616666111666666611616655611661966611161666666116161122511111116161161161111111611111661111169611116116116191611111611116191111111111111111111119166111115111111111111616666611611116616161661661161199292991111116661111116166116611619111111111111161111299296111166611111116616111111119961116161111111100000000000000000000000000000000000000000000000000000000000000000000000000000000000000000000000000000000000000000000000000000000000000000000000000000000000000000000000000000000000000000000000000000000000000000000000000000000000000000000000000000000000000000000000000000000000000000000000000000000000000000000000000000000000000000000000000000000000000000000000000000000000000000000000000000000000000000000000000000000000000000000000000000000000000000000000000000000000000000000000000000000000000000000000000000000000000000000000000000000000000000000000000000000000000000000000000000000000000000000000000000000000000000000000000000000000000
101120017132CALIFOR 10001ANDERSON  G11691911116161119161161991161161116666111161111111111111611111111111111611111166111116111111661111111111161661616166169111661116161116166111661111666666161166666111161111111616611161111111161116611111116116119111111111611111111199999111116111611619991161616116166111111111111111111616199111611111111111116661116111666111616111616661161111111611116111611161111161116161161116166111111111111116111111111611111111161111111616166661111166611111611661161111111111111111611111111166666611161111611111111161111616111166161661111111111111116166661111111111161611611611116661111111666116611611166116666661111616666611661966611661666166111661166111111166161161161911111611111661111161616116199166161611111611116111111111111111111111111166111116111111111111616616611611116616166111661111111111611611111661161611166111611611111111111111161111111111111116611111111611111111111161116111161111100000000000000000000000000000000000000000000000000000000000000000000000000000000000000000000000000000000000000000000000000000000000000000000000000000000000000000000000000000000000000000000000000000000000000000000000000000000000000000000000000000000000000000000000000000000000000000000000000000000000000000000000000000000000000000000000000000000000000000000000000000000000000000000000000000000000000000000000000000000000000000000000000000000000000000000000000000000000000000000000000000000000000000000000000000000000000000000000000000000000000000000000000000000000000000000000000000000000000000000000000000000000000000000000000000000000000
101148137133CALIFOR 20001DREIER  DAV66161666661666616111611666166661111666661111161111611166166199516161116166116611166611116611111611161111616611161111111611116616116116161111166111666166111166666666666616661666111111611661661666166696611611611161666111616111116111616166611111661161111616111661111666666611111111116169916161116166666166616116616616611666111616611616611116616166666116161116111166111666611666111611111116116666611111166161611116661166666161666661116611161111661661166111161611661666161611666111611111616611161111116661166661111116111116661666116666666161111666111666616116616111161111111166161661111111111616111111166161111161111666666616161111661116611161611611111616661166166166666118611116116661111661616166616166111666611111111111111666666666111161116116611116666166161116161111616166116111166666161616611166666661661666161166166666616666666161666611666111166166116611661166666116116666666611100000000000000000000000000000000000000000000000000000000000000000000000000000000000000000000000000000000000000000000000000000000000000000000000000000000000000000000000000000000000000000000000000000000000000000000000000000000000000000000000000000000000000000000000000000000000000000000000000000000000000000000000000000000000000000000000000000000000000000000000000000000000000000000000000000000000000000000000000000000000000000000000000000000000000000000000000000000000000000000000000000000000000000000000000000000000000000000000000000000000000000000000000000000000000000000000000000000000000000000000000000000000000000000000000000000000000
101150707134CALIFOR 10001TORRES  EST11611111196111111166166111161111116166111161111111191111611111111111111611191161111661199999999933111111161666616166163116661161131116116111611111666111161161111191111111111616611161111111111191611111116166111111111111131111111134333111116111111613331161661111166116111111111111111616111111611111111111116661111111166111666111616611113111111611111111611661111131111161161111166111111111111111111111111611111111161111111616166661111166111111111661111116111111111111611111111166666611161111111111111161161116111166161661911111116111111166661111111111161616611616116661111111666111631611166111666444411616666611611366611661666116119661166111111166161161111111111611119666111161666116116116161611111611116191111111111111111111111166111116111111161111616666611616111116161111661911111111611111111661111191166111611611111111991111166111111116111166611111161611111111111111116111111111900000000000000000000000000000000000000000000000000000000000000000000000000000000000000000000000000000000000000000000000000000000000000000000000000000000000000000000000000000000000000000000000000000000000000000000000000000000000000000000000000000000000000000000000000000000000000000000000000000000000000000000000000000000000000000000000000000000000000000000000000000000000000000000000000000000000000000000000000000000000000000000000000000000000000000000000000000000000000000000000000000000000000000000000000000000000000000000000000000000000000000000000000000000000000000000000000000000000000000000000000000000000000000000000000000000000000
101146447135CALIFOR 20001LEWIS  JERR66191661661666616661111116116666666669969111161116661666166111666161666166166666666611666611661691661161116611161166161161611616111616166161166111666666116166666666666616116166616161166611666611166966661661111611661111116116911191616616611166611611116111111661611661666611161111991111116661111669611166116119116611611666111611611666111116666166661616161116161166111166611669999999911166116661611111161161911111616166666161666661111522259111661661166116161611669555251611666111111111616611666111111161116699999999999916666661111666616166661666111666619611166611616662111166611161616161165996111166116166666619999966166611666166166166666161111616161661661166116166666118661111116661999661616116666166119666661111111111111116666616116661116196111116166111161116661111616116116611166666161616111661166666666611611616166666616666616111599999992116616111111161666696161116616611611111600000000000000000000000000000000000000000000000000000000000000000000000000000000000000000000000000000000000000000000000000000000000000000000000000000000000000000000000000000000000000000000000000000000000000000000000000000000000000000000000000000000000000000000000000000000000000000000000000000000000000000000000000000000000000000000000000000000000000000000000000000000000000000000000000000000000000000000000000000000000000000000000000000000000000000000000000000000000000000000000000000000000000000000000000000000000000000000000000000000000000000000000000000000000000000000000000000000000000000000000000000000000000000000000000000000000000
101105737136CALIFOR 10001BROWN  GEOR11691111116161991191166111111161116166111161111111119111611111111111119991111161611161111111116111111111161661616166161111661161161916966111661111616111161661661111161111111616611161118111111111611111116166111999991111111111111116111119116111111611111161661116166199111111111111111616199999999911111111211661111111166119616111616661699991111611111111611661111161111161161111166111991111111116999999991529911111161111116616166661119999999111111661111116111111111111911911199166666611169111611911111161999996111166161661111111111111116166661111111111161611611616116661111111666111611619999911666666611616666611611166611161666166111661166111111616161161961111111611111661199161611116199116661611116661116111911111111111111111111166191119111111111111616666611611116616166161661111999999991111111661166661199999999991111111111916161111111116111116111911111611116611111111116111111119900000000000000000000000000000000000000000000000000000000000000000000000000000000000000000000000000000000000000000000000000000000000000000000000000000000000000000000000000000000000000000000000000000000000000000000000000000000000000000000000000000000000000000000000000000000000000000000000000000000000000000000000000000000000000000000000000000000000000000000000000000000000000000000000000000000000000000000000000000000000000000000000000000000000000000000000000000000000000000000000000000000000000000000000000000000000000000000000000000000000000000000000000000000000000000000000000000000000000000000000000000000000000000000000000000000000000
101150407137CALIFOR 20001MCCANDLESS 66161661661666116611611666366566661666666111161116661666166111666161666166161611666611166661992999666166666611161111116666611616616611161166166111666666116166666666666611666666161111666661166666666666661611661999991611116116611161616666993339661951116116111661611166116611161619991111616661166666666666666229116611661666111616161166661116161166666616169116161166611666611666111611611166166661611111166161611116616166666161611166116611161111661661166111161611661666161611666111111111616611666111166661666661111111611116666661111666666161111666111666616166166111661911111166111661611111111111111111166166111111111966666611661111611166611161611616161611661166116166666118661116116661111666616161666169111666611111111616161666666616116661116199111116166111161136661111616666116111166666161616611111661616616661111666166666616666611111611111611111166111111611661166161116116661661611600000000000000000000000000000000000000000000000000000000000000000000000000000000000000000000000000000000000000000000000000000000000000000000000000000000000000000000000000000000000000000000000000000000000000000000000000000000000000000000000000000000000000000000000000000000000000000000000000000000000000000000000000000000000000000000000000000000000000000000000000000000000000000000000000000000000000000000000000000000000000000000000000000000000000000000000000000000000000000000000000000000000000000000000000000000000000000000000000000000000000000000000000000000000000000000000000000000000000000000000000000000000000000000000000000000000000
101144147138CALIFOR 20001DORNAN  ROB66161661691666116161116996169666611666699999161116696166166199699991616169999911666611196661111699666161619611161111111116116616116616161111166111666666169166666666666611666166111111611661656666166616669611661611661111616116111191616666611119696161611666111661611666666616961111116161616161666666616166916116116616611666111616161166661116616166666116161116161116111666611669929511111161116696611111166961611166611166666161666666616991161111999119966111161911161666161111666111991111616661166111166161666661111116611116666666111166666166191666111666616111116111161611111166111661116111111619111221166162111661299666666611611611661666611661611611616616661166166166966118661116116691111991616166616166661666611116611666161666966616616161116119611116666116111116961111616166116111166666161116511116666656611661961166166666616666611111616611616111166166116661691666666116116666616611600000000000000000000000000000000000000000000000000000000000000000000000000000000000000000000000000000000000000000000000000000000000000000000000000000000000000000000000000000000000000000000000000000000000000000000000000000000000000000000000000000000000000000000000000000000000000000000000000000000000000000000000000000000000000000000000000000000000000000000000000000000000000000000000000000000000000000000000000000000000000000000000000000000000000000000000000000000000000000000000000000000000000000000000000000000000000000000000000000000000000000000000000000000000000000000000000000000000000000000000000000000000000000000000000000000000000
101146167139CALIFOR 20001DANNEMEYER 66161666461666616611611666166666161616666111161116661666166199966161616169966616111111666661111666666161616611161111616661116616616611161166166166666166116154444443445533554444341111666661666666166666661661666661666611616116616161616666661116666161116666111661611666666616161611116161611661116666666166666116616616611666111616161166161116666166666616161116161116611666611666161611111166166666611111166161616166616166666161661166616611111111661111166111161611661666161616666111111161616666166111666661666661111111611116666666111616666111111666111666616161166111661116161166611661166166111666111111166169929959999966666611111611661116611661611611616616616166166166666118661116116661111661616166666116611696661116616661166666666696611699996116616116161111166116661111611666116611169996166616611111666661611661161166166666616666611116616661666111166166616661661166666116666666666611600000000000000000000000000000000000000000000000000000000000000000000000000000000000000000000000000000000000000000000000000000000000000000000000000000000000000000000000000000000000000000000000000000000000000000000000000000000000000000000000000000000000000000000000000000000000000000000000000000000000000000000000000000000000000000000000000000000000000000000000000000000000000000000000000000000000000000000000000000000000000000000000000000000000000000000000000000000000000000000000000000000000000000000000000000000000000000000000000000000000000000000000000000000000000000000000000000000000000000000000000000000000000000000000000000000000000
101156017140CALIFOR 20001COX  C. CHR66161661661666116661111616166666661666611111161111611166166111666161666169916661166621696661111666161161616611161111111116116616111611161161166111666666111166616696666616666666111111661661666661166666661611166611661111619116616111616666661116666166116615111661111666666616161316116161199661116666616166666116116916611661111616611616611116916166666116661611161116111666661161111611199916166616111111166161616116611166666161666661116611161111661611166111161611661666161611666111111111616661163111166661666691111111611116966666116616696111111666111666616166616111111116161166111661116111111916111111166161111169999916616616161111661616699961611911611616911166169169966118611111166661199661616166616166111696611161111111111669666666611161116116611119666116166616161111616166116611166666161616611166666666611166161166166666616666661111616611666911166166616611666166166116116666616611100000000000000000000000000000000000000000000000000000000000000000000000000000000000000000000000000000000000000000000000000000000000000000000000000000000000000000000000000000000000000000000000000000000000000000000000000000000000000000000000000000000000000000000000000000000000000000000000000000000000000000000000000000000000000000000000000000000000000000000000000000000000000000000000000000000000000000000000000000000000000000000000000000000000000000000000000000000000000000000000000000000000000000000000000000000000000000000000000000000000000000000000000000000000000000000000000000000000000000000000000000000000000000000000000000000000000
101148397141CALIFOR 20001LOWERY  BIL66191661691566116661111299966616661666161111161116161666166119696161666169961611616611196661661691661191116611161166161191611611111916161191166111666666119166616696666616666666611161116611619611166666611111111611611111116191911191616611611166611611116116111661611191666611161111111116116661111966611166116111116911611619111611611611111116116166611116161111161166111161611966111611119996116661611111161161111111611166666161666661111611161999611161166111191611961666161611966199111111616611666111119161116692999999999999961666111659616116661661111696616616111111119661111166111161611911166116111666116166166611611166666611666111696161166191111616161611961166669166116118611116116661111961616166616169111666611111111111111166666616116191119116111116161111161116661111616114333339999666161616111661166661666611611616166666916666666111611111611911116111116661661166161116116611611111600000000000000000000000000000000000000000000000000000000000000000000000000000000000000000000000000000000000000000000000000000000000000000000000000000000000000000000000000000000000000000000000000000000000000000000000000000000000000000000000000000000000000000000000000000000000000000000000000000000000000000000000000000000000000000000000000000000000000000000000000000000000000000000000000000000000000000000000000000000000000000000000000000000000000000000000000000000000000000000000000000000000000000000000000000000000000000000000000000000000000000000000000000000000000000000000000000000000000000000000000000000000000000000000000000000000000
101156217142CALIFOR 20001ROHRABACHER66161661661666961661111961166661611616111111161119111166166111616161616166116666166611616611111611961111116111161116111116116116116111161111166111666166116661616666666616666666111111161661666666166696611661666611661161616116111161616666661119666166116616111661611666666616161611116161116161116666116166666116116616611666111616611666161116616166666116161116161116111666161166111611111111116666611111166161616116616166666161666661116611161111661111166111661611661666161611166111611111616666166111166661666611111111611116666666116111666161111666111666616161166111116116999966111661116116111666111111166161111161116616666616161111661616611161611611611616611166166166666118661116111161111661616166611116611666611161611611111666666616616161116116611116666616611616661111616666116611116666161616611116666611611168161166166666616666611111616611616111166166116111661666161116116666116611600000000000000000000000000000000000000000000000000000000000000000000000000000000000000000000000000000000000000000000000000000000000000000000000000000000000000000000000000000000000000000000000000000000000000000000000000000000000000000000000000000000000000000000000000000000000000000000000000000000000000000000000000000000000000000000000000000000000000000000000000000000000000000000000000000000000000000000000000000000000000000000000000000000000000000000000000000000000000000000000000000000000000000000000000000000000000000000000000000000000000000000000000000000000000000000000000000000000000000000000000000000000000000000000000000000000000
101150517143CALIFOR 20001PACKARD  RO66961661611666111661611661161661611666116111161111611166166111616161666166116611666611116611661611161111116611161111166616116116611116661116166161666166111166666616666616661666111161111661669666166616661616661999991111611116111111616166111111661161111616111661111116666611111111116169916191111166666166166111116111611691111119111166661111666166661116161116133196111666111161111611111119116611611111161161111116116166666161666666111611161111661611166111111111161666161111166116111161616666666111166161666611111166161611166666111661666161111616111616616161166111661116161666111661116161111616111111166161111161199916616616611111661119911661611616161616161166116166666618661116166611111661616166666161111666611116111611161661666616616611111111611116161111161116661111616666116611169996161616611611161661611661161611166666116666661111599599995111166166116661661166661116116666661111600000000000000000000000000000000000000000000000000000000000000000000000000000000000000000000000000000000000000000000000000000000000000000000000000000000000000000000000000000000000000000000000000000000000000000000000000000000000000000000000000000000000000000000000000000000000000000000000000000000000000000000000000000000000000000000000000000000000000000000000000000000000000000000000000000000000000000000000000000000000000000000000000000000000000000000000000000000000000000000000000000000000000000000000000000000000000000000000000000000000000000000000000000000000000000000000000000000000000000000000000000000000000000000000000000000000000
101150047144CALIFOR 10001BATES  JIM 11661111116111991111166111161611611116611199111811611111661111111111111611111161111161611611116933111191119166616166161111661161166116116111611611111116161611111111111111111666116111111111161111611111116666166111111111111111111116111166116161111611111161611116166616111111111116996616111111611111111161111669611111166111666116616611611111111611161111661661111161611166161111166161111111191111111111111616699999169111111616166661111166619111111669111111611111911111611911111166666611161111611111166666161699999999999961111111116111111116116111111611161616611616116661111111666116111611111111611111861616666111611116111616166166116111111611611116111166116111119611161666111161611116199116161611111661116111111111111111111119111666119116111111161111616666611611111616161161611111119991611111111661111116161111111611111111111111111116166666166111161111116611111611611111116169999999900000000000000000000000000000000000000000000000000000000000000000000000000000000000000000000000000000000000000000000000000000000000000000000000000000000000000000000000000000000000000000000000000000000000000000000000000000000000000000000000000000000000000000000000000000000000000000000000000000000000000000000000000000000000000000000000000000000000000000000000000000000000000000000000000000000000000000000000000000000000000000000000000000000000000000000000000000000000000000000000000000000000000000000000000000000000000000000000000000000000000000000000000000000000000000000000000000000000000000000000000000000000000000000000000000000000000
