1151406681 1ALASKA  200  YOUNG, DONA1916161111166666666161191166611111166666666166666116191611111161000000000000000000000000000000000
1152137641 1ALABAMA 200  BYRNE, BRAD1116161111166666666161111116611111166666666166666116111611991161000000000000000000000000000000000
1152119241 2ALABAMA 200  ROBY, MARTH1116161111166666666161111116611111166666666166666116111611111161000000000000000000000000000000000
1152030141 3ALABAMA 200  ROGERS, MIK1116161111166666666161111116611111666666666166666116111611111161000000000000000000000000000000000
1152970141 4ALABAMA 200  ADERHOLT, R1116161111166666666661111116611111166666666166666116111611111161000000000000000000000000000000000
1152119341 5ALABAMA 200  BROOKS, MO 1116161111166666666161111116611161166666666166666116111611111161000000000000000000000000000000000
1152150041 6ALABAMA 200  PALMER, GAR1116161111166966666161111116611111166666666166666116111611111161000000000000000000000000000000000
1152110241 7ALABAMA 100  SEWELL, TER6661616661611111111616116669996616611111111611111661666166116616000000000000000000000000000000000
1152110642 1ARKANSA 200  CRAWFORD, R1116161111166669666161111116611111166666666166666116111611111161000000000000000000000000000000000
1152150342 2ARKANSA 200  HILL, FRENC1116161111166666666161111166611111166666666166666116111611111161000000000000000000000000000000000
1152110842 3ARKANSA 200  WOMACK, STE1116161111166666666161111116611111166666666166666116111611111161000000000000000000000000000000000
1152156342 4ARKANSA 200  WESTERMAN, 1116161111166666666161111116611111166666666166666116111611111161000000000000000000000000000000000
1152173961 1ARIZONA 100  O'HALLERAN,6661616661611111111616116666616616111111111611111661666661116616000000000000000000000000000000000
1152150161 2ARIZONA 200  MCSALLY, MA1116161111166666666161111166611111166666666166666116111611111161000000000000000000000000000000000
1152030561 3ARIZONA 100  GRIJALVA, R6661616666611111111616996691166616611111111611111661666166996616000000000000000000000000000000000
1152110361 4ARIZONA 200  GOSAR, PAUL1116161111166666666161111166611161166666666166666116111611111161000000000000000000000000000000000
1152170561 5ARIZONA 200  BIGGS, ANDR1116161111166666666161111116611111166666666166666116111611111161000000000000000000000000000000000
1152110561 6ARIZONA 200  SCHWEIKERT,1116161111166666666161111116611111166666666166666116111611111161000000000000000000000000000000000
1152150261 7ARIZONA 100  GALLEGO, RU6661699999999999999999116661166616611111111611111661666166116616000000000000000000000000000000000
1152030461 8ARIZONA 200  FRANKS, TRE1116161119166666666161111116611111166666666166666116111611111161000000000000000000000000000000000
1152130061 9ARIZONA 100  SINEMA, KYR6661661661611111111616116696616116111111161616111161166661116616000000000000000000000000000000000
1152130271 1CALIFOR 200  LAMALFA, DO1116161111166966666161111116611111666666666169666116111611111161000000000000000000000000000000000
1152130371 2CALIFOR 100  HUFFMAN, JA6661616666611111111616116611166616111111111611111611699166116916000000000000000000000000000000000
1152095871 3CALIFOR 100  GARAMENDI, 6661616666611111111616116611116616611111111611111661666166116616000000000000000000000000000000000
1152090371 4CALIFOR 200  MCCLINTOCK,1116161111166666666161111116611111166666666166666116111661111161000000000000000000000000000000000
1152990171 5CALIFOR 100  THOMPSON, M6661616666611111111616116661116616611111111611111661666161116616000000000000000000000000000000000
1152053871 6CALIFOR 100  MATSUI, DOR6661616661611111111616116611116616611111111611111661666166116616000000000000000000000000000000000
1152130471 7CALIFOR 100  BERA, AMI  6661616661611111111616116666116616111111111611111661666661116616000000000000000000000000000000000
1152130571 8CALIFOR 200  COOK, PAUL 1116161111166666666161111116611111166666666166666116111611111161000000000000000000000000000000000
1152070271 9CALIFOR 100  MCNERNEY, J6661616666611111111616116611116616611111111611111661666166116616000000000000000000000000000000000
115211097110CALIFOR 200  DENHAM, JEF1116161111969666166161111166611111166666666166666116111611111161000000000000000000000000000000000
115215047111CALIFOR 100  DESAULNIER,6661616666611111111616116661166616611111111611111661666166116616000000000000000000000000000000000
115154487112CALIFOR 100  PELOSI, NAN6661616666611111111616116611166619999999991611111661699166116616000000000000000000000000000000000
115297787113CALIFOR 100  LEE, BARBAR6661616666611111111616116669999996611111111611111661666166116616000000000000000000000000000000000
115207627114CALIFOR 100  SPEIER, KAR6661616666611111111616116611116616611111111611111661666166996616000000000000000000000000000000000
115213067115CALIFOR 100  SWALWELL, E6661616666611111111616116666666616611111111611111661666166116616000000000000000000000000000000000
115205017116CALIFOR 100  COSTA, JIM 6661696661611111111616116666616611111111161111111661696661116699000000000000000000000000000000000
115217287117CALIFOR 100  KHANNA, ROH6661616661611111111616116661166616611111111611111661666166116616000000000000000000000000000000000
115293127118CALIFOR 100  ESHOO, ANNA6661616666611111111616116611616616611111111611111661666161116616000000000000000000000000000000000
115295047119CALIFOR 100  LOFGREN, ZO6661616667611111111616116611116616611111111611111661666666116616000000000000000000000000000000000
115217407120CALIFOR 100  PANETTA, JA6661616661611111111616116611616616611111111611111661666161116616000000000000000000000000000000000
115213077121CALIFOR 200  VALADAO, DA1116161111166666666161111166611111166666666166666116111611111161000000000000000000000000000000000
115203077122CALIFOR 200  NUNES, DEVI1116161111166666666161111116611111166666666166666116111611111161000000000000000000000000000000000
115207037123CALIFOR 200  MCCARTHY, K1116161111166666666161111116611111166666666166666116111611111161000000000000000000000000000000000
115217097124CALIFOR 100  CARBAJAL, S6661616666611111111616116611116616611111111611111661666166116616000000000000000000000000000000000
115215057125CALIFOR 200  KNIGHT, STE1116161111166666666161111166611111166666666166666116111611111161000000000000000000000000000000000
115213087126CALIFOR 100  BROWNLEY, J6661616661611111111616116661116616611111111611111661666661116616000000000000000000000000000000000
115209557127CALIFOR 100  CHU, JUDY  6661616666611111111616116611116616611111111611111661966166116616000000000000000000000000000000000
115201047128CALIFOR 100  SCHIFF, ADA6661616661611111111616116661116616611111111611111661666166116616000000000000000000000000000000000
115213097129CALIFOR 100  CARDENAS, T6661616661611111111616116666116616611111111611111161666166116616000000000000000000000000000000000
115297077130CALIFOR 100  SHERMAN, BR6661616661611111111616116611166616611111111611111661666161116616000000000000000000000000000000000
115215067131CALIFOR 100  AGUILAR, PE6661616661611111111616116661116616611111111611111661666666116616000000000000000000000000000000000
115299037132CALIFOR 100  NAPOLITANO,6661616661611111111616116611166616611111111611111661666166116616000000000000000000000000000000000
115215077133CALIFOR 100  LIEU, TED  6661616661611111111616116661116616611111111611111661666966116619000000000000000000000000000000000
115293167134CALIFOR 100  BECERRA, XA6661699999999999999999999999999999999999999911111661666169990000000000000000000000000000000000000
115215087135CALIFOR 100  TORRES, NOR6661616661619111111616116661116616611111111611111661666166116616000000000000000000000000000000000
115213117136CALIFOR 100  RUIZ, RAUL 6661616661611111111616116611116616611111111611111661666666996616000000000000000000000000000000000
115211107137CALIFOR 100  BASS, KAREN6661616666611111111616116661169996611111111611111661666166116616000000000000000000000000000000000
115203107138CALIFOR 100  SANCHEZ, LI6661616661611191111616116691166616611111111611111661666166116616000000000000000000000000000000000
115293217139CALIFOR 200  ROYCE, EDWA1116161111166666666161111116611111166666666166666116111611111161000000000000000000000000000000000
115293177140CALIFOR 100  ROYBAL-ALLA6661616661611111111616116611166616611111111611111661666166116616000000000000000000000000000000000
115213127141CALIFOR 100  TAKANO, MAR6661616666611111111616119999996616611111111611111661666166116616000000000000000000000000000000000
115293237142CALIFOR 200  CALVERT, KE1116161111166666666161111116611111166666666166666116111611111161000000000000000000000000000000000
115291067143CALIFOR 100  WATERS, MAX6661699666611911111616116611166696111111111611111661696166116616000000000000000000000000000000000
115217037144CALIFOR 100  BARRAGAN, N6661616661611111111616116661166616611111111611111661666166116616000000000000000000000000000000000
115215097145CALIFOR 200  WALTERS, MI1116161111166666666161111116611111166666666166666116111611111161000000000000000000000000000000000
115217117146CALIFOR 100  CORREA, JOS6661616661611111111616996611116616111111111611111661666661116616000000000000000000000000000000000
115213137147CALIFOR 100  LOWENTHAL, 6661616666611111111616116661166616611111111611111661666166116616000000000000000000000000000000000
115156217148CALIFOR 200  ROHRABACHER1119161111166666666161111166611111166666666166666116111611111161000000000000000000000000000000000
115201077149CALIFOR 200  ISSA, DARRE1916161111166666666161111116611111166666666166666116111611111161000000000000000000000000000000000
115209637150CALIFOR 200  HUNTER, DUN1116161111166666666161111116611161166666666166666116111611111161000000000000000000000000000000000
115213147151CALIFOR 100  VARGAS, JUA6661616661611111111616116661116616611111111611111661666166116616000000000000000000000000000000000
115213157152CALIFOR 100  PETERS, SCO6661616661611111111616116666616616111111111616111161166666116616000000000000000000000000000000000
115201087153CALIFOR 100  DAVIS, SUSA6661616661611111111616116611116616611111111611111661666166116616000000000000000000000000000000000
1152971062 1COLORAD 100  DEGETTE, DI6661616666611111111616116611116616611111191611111661666166116616000000000000000000000000000000000
1152090462 2COLORAD 100  POLIS, JARE6661616661611111111616116616616616611111111611111661666666116616000000000000000000000000000000000
1152111162 3COLORAD 200  TIPTON, SCO1116161111166666661161111166611111166661666166666116111611111161000000000000000000000000000000000
1152151062 4COLORAD 200  BUCK, KENNE1116161111166666666161111166611161166666666166666116111611111161000000000000000000000000000000000
1152070462 5COLORAD 200  LAMBORN, DO1116161111166666666161111116611119999966666166666116111611111161000000000000000000000000000000000
1152090662 6COLORAD 200  COFFMAN, MI1116161111166666666161111166611111166666666166666116111611119961000000000000000000000000000000000
1152070562 7COLORAD 100  PERLMUTTER,6661916661611111111616999999999991111111111611111661666161116616000000000000000000000000000000000
11529908 1 1CONNECT 100  LARSON, JOH6661616666611111111616116661116616611111111611111661666166916616000000000000000000000000000000000
11520706 1 2CONNECT 100  COURTNEY, J6661616661611111111616116611116616611111111611111661666166116616000000000000000000000000000000000
11529109 1 3CONNECT 100  DELAURO, RO6661616666611111111616116611166616611111111911111661666166116616000000000000000000000000000000000
11520907 1 4CONNECT 100  HIMES, JAME6661616661611111111616116616616616111111111611111661666666116616000000000000000000000000000000000
11521316 1 5CONNECT 100  ESTY, ELIZA6661616661611111111616116661116616611111111611111661666166116616000000000000000000000000000000000
1152170611 1DELAWAR 100  BLUNT ROCHE6961616666611111111616996611116616611111111611111661666166116616000000000000000000000000000000000
1152171943 1FLORIDA 200  GAETZ, MATT1116161111166666666161111166611111166666666166666116111611111161000000000000000000000000000000000
1152171443 2FLORIDA 200  DUNN, NEAL 1116161111166666666161111116611111166666666166666116111611111161000000000000000000000000000000000
1152131743 3FLORIDA 200  YOHO, TED  1116161111166666666161111116611111166666666166666116111611111161000000000000000000000000000000000
1152174443 4FLORIDA 200  RUTHERFORD,1116161111166666666161111116611191999999999999999999999999111161000000000000000000000000000000000
1152173243 5FLORIDA 100  LAWSON, ALF6661616961611111111616116611616616611111111611111661666166116616000000000000000000000000000000000
1152131843 6FLORIDA 200  DESANTIS, R1116161111166666666161111166611111166666666166666116111611111161000000000000000000000000000000000
1152173843 7FLORIDA 100  MURPHY, STE6661616661611111111616116661616616111111111111111661666666996616000000000000000000000000000000000
1152090943 8FLORIDA 200  POSEY, BILL1116161111166666666161111116611111166666666166666116111611111161000000000000000000000000000000000
1152174643 9FLORIDA 100  SOTO, DARRE6661616661611111111616116611116616611111111611111661666666116616000000000000000000000000000000000
115217134310FLORIDA 100  DEMINGS, VA6661616661611111111616116611116616611111111611111661966166116616000000000000000000000000000000000
115211164311FLORIDA 200  WEBSTER, DA1116161111166666666161111116611111166666666166666116111611991161000000000000000000000000000000000
115207584312FLORIDA 200  BILIRAKIS, 1116161111166666666161111116611111166666666166666116111611111161000000000000000000000000000000000
115217124313FLORIDA 100  CRIST, CHAR6661616669611111111616116661116616611111111611111661696661116616000000000000000000000000000000000
115207084314FLORIDA 100  CASTOR, KAT6661616661611111111616116661116616611111111611111661666166116616000000000000000000000000000000000
115211174315FLORIDA 200  ROSS, DENNI1116161111166666666161111116611111166666666166666116111611111161000000000000000000000000000000000
115207094316FLORIDA 200  BUCHANAN, V1116161191166666666161991116611111166666666166666116111619111161000000000000000000000000000000000
115209104317FLORIDA 200  ROONEY, THO1916161111166666666161111116611111166666666166666116111611111161000000000000000000000000000000000
115217354318FLORIDA 200  MAST, BRIAN1116161111166666666161111166611111166666666166666116111611111161000000000000000000000000000000000
115217424319FLORIDA 200  ROONEY, FRA1116161111166666666161111116611111166666666166666116111611111161000000000000000000000000000000000
115293374320FLORIDA 100  HASTINGS, A6661616661611111111616116661166616611111111611111661666166116616000000000000000000000000000000000
115213214321FLORIDA 100  FRANKEL, LO6661916661611111111616116611166616611111111699999999999999116616000000000000000000000000000000000
115209594322FLORIDA 100  DEUTCH, THE6661616661611111111616116611116616611111111611111661666166116616000000000000000000000000000000000
115205044323FLORIDA 100  WASSERMAN S6661616661611111111616116611116616611111111611111661696166116616000000000000000000000000000000000
115211184324FLORIDA 100  WILSON, FRE6661616661611111111619119661166616611111111611111661666966116616000000000000000000000000000000000
115203164325FLORIDA 200  DIAZ-BALART1116161111166696666161111116611111166666666166666116111611111161000000000000000000000000000000000
115215124326FLORIDA 200  CURBELO, CA1116161111166666666161111166619111166666666166666116111611111161000000000000000000000000000000000
115156344327FLORIDA 200  ROS-LEHTINE1116161111111666666161991166611111166666666166666116111611111161000000000000000000000000000000000
1152151344 1GEORGIA 200  CARTER, BUD1116161111166666666161111166611111166666666166666116111611111161000000000000000000000000000000000
1152933944 2GEORGIA 100  BISHOP, SAN6961616666611111111616996611119996611111111611111161166166116616000000000000000000000000000000000
1152171744 3GEORGIA 200  FERGUSON, A1116161111166666666161111116611111166666666166666116111611111161000000000000000000000000000000000
1152071244 4GEORGIA 100  JOHNSON, HA6661616166611111111616119999999996611111111611111611696166116616000000000000000000000000000000000
1151543144 5GEORGIA 100  LEWIS, JOHN6661616666611111111616116661169996611111111611111661666166116616000000000000000000000000000000000
1152050544 6GEORGIA 200  PRICE, TOM 1999999991999999999999999999999999999999999999999999999999999999000000000000000000000000000000000
1152112244 7GEORGIA 200  WOODALL, RO1116161111166666666161111166611111166666666166666116111611111161000000000000000000000000000000000
1152112344 8GEORGIA 200  SCOTT, AUST1116161111166666666161111116611111166666666166666116111611111161000000000000000000000000000000000
1152132344 9GEORGIA 200  COLLINS, DO1116161111166666666161111166611111166666666166666116111611111161000000000000000000000000000000000
115215144410GEORGIA 200  HICE, JODY 1116161111166666666161111116611111166666666166666116111611111161000000000000000000000000000000000
115215154411GEORGIA 200  LOUDERMILK,1116161111166666666161111116611111166666666166666116111611111161000000000000000000000000000000000
115215164412GEORGIA 200  ALLEN, RICK1116161111166666666161111116611111166666666166666116111611111161000000000000000000000000000000000
115203214413GEORGIA 100  SCOTT, DAVI6661619661611111111616116611116616111111111611111661166161116616000000000000000000000000000000000
115209624414GEORGIA 200  GRAVES, TOM1116161111166666666161111166611111666666666166666116111611111161000000000000000000000000000000000
1152112482 1HAWAII  100  HANABUSA, C6961616661611111111616116611166616611111111611111661666166116616000000000000000000000000000000000
1152132482 2HAWAII  100  GABBARD, TU6661616666611111111616116611166616111111111911111661666166116699000000000000000000000000000000000
1152152031 1IOWA    200  BLUM, ROD  1116161111166666666161111166611111166611666166661116111611111161000000000000000000000000000000000
1152072031 2IOWA    100  LOEBSACK, D6661616666611111111616116661116616611111111611111661966661116616000000000000000000000000000000000
1152152131 3IOWA    200  YOUNG, DAVI1116161111166666666161111116611111166666666166666116111611111161000000000000000000000000000000000
1152032531 4IOWA    200  KING, STEVE1916161111166666666161111116611111166666666166666116111611111161000000000000000000000000000000000
1152112563 1IDAHO   200  LABRADOR, R1116161111166666666161111116611161166666666166666116111661611161000000000000000000000000000000000
1152991063 2IDAHO   200  SIMPSON, MI1116161111166666666161991116611111166666666166666116111611111161000000000000000000000000000000000
1152934621 1ILLINOI 100  RUSH, BOBBY6661999999999999999999999999999999999999999911111661699999999999000000000000000000000000000000000
1152137121 2ILLINOI 100  KELLY, ROBI6661616666611111111616119999999996611111111611111661666166116616000000000000000000000000000000000
1152050821 3ILLINOI 100  LIPINSKI, D6661616661611111111616116611116616111111111611111661666667116111000000000000000000000000000000000
1152934821 4ILLINOI 100  GUTIARREZ, 6961616666911911111616996961969616611111111611111669666166996616000000000000000000000000000000000
1152095421 5ILLINOI 100  QUIGLEY, MI6661616661611111111616116611116616611111111611111661666166116616000000000000000000000000000000000
1152071521 6ILLINOI 200  ROSKAM, PET1116161111166666666161111116611111166666666166666116111611111161000000000000000000000000000000000
1152971721 7ILLINOI 100  DAVIS, DANN6661616966611111111616999999996616611111111611111661666166116616000000000000000000000000000000000
1152173021 8ILLINOI 100  KRISHNAMOOR6661616661611111111616116611116616611111111611111661666166116616000000000000000000000000000000000
1152991121 9ILLINOI 100  SCHAKOWSKY,6661616666611111111616119999996616611111111611111661666166116616000000000000000000000000000000000
115213262110ILLINOI 100  SCHNEIDER, 6661616661611111111616116616616616111111111611111661666666116616000000000000000000000000000000000
115207492111ILLINOI 100  FOSTER, BIL6661616666611111111616116611116616111111111611111661666666116616000000000000000000000000000000000
115215192112ILLINOI 200  BOST, MIKE 1116161111166666666161111166611111166666666166666116111611111161000000000000000000000000000000000
115213282113ILLINOI 200  DAVIS, RODN1116161111166666666161111166611111166666666166666116111611111161000000000000000000000000000000000
115211292114ILLINOI 200  HULTGREN, R1116161111166666666161111116611111166666666166666116111611111161000000000000000000000000000000000
115297182115ILLINOI 200  SHIMKUS, JO1116161111166666666161111116611111166666666166666116111611111161000000000000000000000000000000000
115211282116ILLINOI 200  KINZINGER, 1116161111166666666161111166611111166666666166666116111611111161000000000000000000000000000000000
115213292117ILLINOI 100  BUSTOS, CHE6661616666611111111616116611116616111111111611111661666666996616000000000000000000000000000000000
115215622118ILLINOI 200  LAHOOD, DAR1116161111166666666161111166611111166666666166666116111611111161000000000000000000000000000000000
1151512422 1INDIANA 100  VISCLOSKY, 6661616661611111111616996661166616611111111611111661666666116616000000000000000000000000000000000
1152133022 2INDIANA 200  WALORSKI, J1116161111166666666161111116611111166666666166666116111611111161000000000000000000000000000000000
1152170222 3INDIANA 200  BANKS, JAME1116161111166666666161111116611111166666666166666116111611111161000000000000000000000000000000000
1152113122 4INDIANA 200  ROKITA, TOD1116161111166966666161111166611111666666666166666116111611111161000000000000000000000000000000000
1152133122 5INDIANA 200  BROOKS, SUS1116161111166666666161111116611111166666666166666116111611111161000000000000000000000000000000000
1152133222 6INDIANA 200  MESSER, LUK1116161111196666666161191116611111166666666166666116111611191161000000000000000000000000000000000
1152075722 7INDIANA 100  CARSON, AND6661616666611111111616116611166616611111111611111661666166116616000000000000000000000000000000000
1152113222 8INDIANA 200  BUCSHON, LA1116161111166666666161111166611111166666666166666116111611111161000000000000000000000000000000000
1152172522 9INDIANA 200  HOLLINGSWOR1116161111166666666161111116611111166666666166666116111611111161000000000000000000000000000000000
1152173432 1KANSAS  200  MARSHALL, R1116161111166666666161111116611111166666666166666116111611111161000000000000000000000000000000000
1152091532 2KANSAS  200  JENKINS, LY1116161111999999999999111166611111166666666166666116111611111161000000000000000000000000000000000
1152113532 3KANSAS  200  YODER, KEVI1116161111166666666161111166611111166666666166666116111611111161000000000000000000000000000000000
1152113632 4KANSAS  200  POMPEO, MIK1999999999999999999999999999999999999999999999999999999999990000000000000000000000000000000000000
1152156551 1KENTUCK 200  COMER, JAME1116161111166666666161111116611111166666666166666116111611111161000000000000000000000000000000000
1152091651 2KENTUCK 200  GUTHRIE, BR1116161111166666666161111116611111166666666166666116111611111161000000000000000000000000000000000
1152072351 3KENTUCK 100  YARMUTH, JO6661616666611111111616116611116616611111111611111661666166116616000000000000000000000000000000000
1153110251 4KENTUCK 200  MASSIE, THO6116661111166666666161111116611161166666666166666116111661611161000000000000000000000000000000000
1151485451 5KENTUCK 200  ROGERS, HAR1116161111166666666161111116611111166666666166666116111611111161000000000000000000000000000000000
1152133351 6KENTUCK 200  BARR, GARLA1116161111166666666161111116611111166666666166666116111611111161000000000000000000000000000000000
1152075945 1LOUISIA 200  SCALISE, ST1116161111166666666161111116611111166666666166666116111611111161000000000000000000000000000000000
1152113745 2LOUISIA 100  RICHMOND, C6661696691611111111616119661169996611111111611111661666166996616000000000000000000000000000000000
1152172445 3LOUISIA 200  HIGGINS, CL1116161111166666666161111116611111166666666166666116111611111161000000000000000000000000000000000
1152172745 4LOUISIA 200  JOHNSON, MI1116161111166666666161111116611111166666666166666116111611111161000000000000000000000000000000000
1152152245 5LOUISIA 200  ABRAHAM, RA1116161111166666666161111116611111166666666166666116111611111161000000000000000000000000000000000
1152152345 6LOUISIA 200  GRAVES, GAR1116161111166666666161111166611111166666666166666116111611111161000000000000000000000000000000000
11515616 3 1MASSACH 100  NEAL, RICHA6661616661611111111616116661166616111111111691111661666166116616000000000000000000000000000000000
11529729 3 2MASSACH 100  MCGOVERN, J6661616666611111111616116661166616611111111611111661666166116616000000000000000000000000000000000
11520754 3 3MASSACH 100  TSONGAS, NI6661616666611111111616116611116616611111111611111661666666116616000000000000000000000000000000000
11521335 3 4MASSACH 100  KENNEDY, JO6661616661611111111616116611116616611111111611111661666166116616000000000000000000000000000000000
11521375 3 5MASSACH 100  CLARK, KATH6661616666611111111616116661166616611111111611111661666166116616000000000000000000000000000000000
11521525 3 6MASSACH 100  MOULTON, SE6661616661611111111616116616616616611111111611111661666161116616000000000000000000000000000000000
11529919 3 7MASSACH 100  CAPUANO, MI6661616667611111111616116661166616611111111611111661666166116616000000000000000000000000000000000
11520119 3 8MASSACH 100  LYNCH, STEP6961616666611111111616116661166616611111111611111661666166116616000000000000000000000000000000000
11521140 3 9MASSACH 100  KEATING, WI6661616661611111111616116661116616611111111611111661696161116616000000000000000000000000000000000
1152113952 1MARYLAN 200  HARRIS, AND1116161111166666666161111116619999999999999966666116111611111161000000000000000000000000000000000
1152032952 2MARYLAN 100  RUPPERSBERG6661616661611111111616116611116616111111111611111661666161116616000000000000000000000000000000000
1152072452 3MARYLAN 100  SARBANES, J6661616661611111111616116661166616611111111611111661666166116616000000000000000000000000000000000
1152170752 4MARYLAN 100  BROWN, ANTH6661616661611111111616116611119996611111111611111661666166116616000000000000000000000000000000000
1151487352 5MARYLAN 100  HOYER, STEN6661616661611111111616119661116616611111111611111661666166116616000000000000000000000000000000000
1152133452 6MARYLAN 100  DELANEY, JO6661616661611111111616116661116616111111111611111661666661116616000000000000000000000000000000000
1152958752 7MARYLAN 100  CUMMINGS, E6661616661611111111616116611166616611111111611111661666166116616000000000000000000000000000000000
1152174152 8MARYLAN 100  RASKIN, JAM6661616661611111111616116661166616611111111611111661666166116616000000000000000000000000000000000
11520920 2 1MAINE   100  PINGREE, CH6661616666611111111616116611116616611111111611111661666166116616000000000000000000000000000000000
11521524 2 2MAINE   200  POLIQUIN, B1116161111166666666161111166611111166666666166666116111611111161000000000000000000000000000000000
1152170423 1MICHIGA 200  BERGMAN, JO1116161111166666666161111116611111166666666166666116111611111161000000000000000000000000000000000
1152114223 2MICHIGA 200  HUIZENGA, B1116161111166666666161111116611111166666666166666116111611111161000000000000000000000000000000000
1152114323 3MICHIGA 200  AMASH, JUST1116661116166666666161111166611661166666666166666116111666611161000000000000000000000000000000000
1152152623 4MICHIGA 200  MOOLENAAR, 1116161111166666666161111166611111166666666166666116111611111161000000000000000000000000000000000
1152137223 5MICHIGA 100  KILDEE, DAN6661616666611111111616116611166616611111111611111661666166116616000000000000000000000000000000000
1151544623 6MICHIGA 200  UPTON, FRED1116161111166666666161111166611111166666666166666116111611111161000000000000000000000000000000000
1152072523 7MICHIGA 200  WALBERG, TI1116161191166666666161111166611111166666666166666116111611111161000000000000000000000000000000000
1152152723 8MICHIGA 200  BISHOP, MIC1116161111166666666161111116611111166666666166666116111611911161000000000000000000000000000000000
1151503323 9MICHIGA 100  LEVIN, SAND6661616661611111111616116611116616611111111611111661666166116616000000000000000000000000000000000
115217372310MICHIGA 200  MITCHELL, P1116161111166666666161111116611111166666666166666116111611111161000000000000000000000000000000000
115215282311MICHIGA 200  TROTT, DAVI1116161111166666666161111116611111166666666166666116111611111161000000000000000000000000000000000
115215292312MICHIGA 100  DINGELL, DE6661616666611111111616119999996616611111111611111661666166116616000000000000000000000000000000000
115107132313MICHIGA 100  CONYERS, JO6661616666611111111616116611166616611111111611111661666166996616000000000000000000000000000000000
115215302314MICHIGA 100  LAWRENCE, B6661616661611111111616116611116616611111111611111661666966996616000000000000000000000000000000000
1152072633 1MINNESO 100  WALZ, TIM  6661616661611111111616116611116616111111111611111661666661116616000000000000000000000000000000000
1152173333 2MINNESO 200  LEWIS, JASO1116161111166666666161111116611111166666666166666116111611111161000000000000000000000000000000000
1152092433 3MINNESO 200  PAULSEN, ER1116161111166666666161111166611111166666666166666116111611111161000000000000000000000000000000000
1152012233 4MINNESO 100  MCCOLLUM, B6661616666611111111616116661119616611111111611111661666166116616000000000000000000000000000000000
1152072733 5MINNESO 100  ELLISON, KE6661616666616111111616116611166616611111111611111661666166116616000000000000000000000000000000000
1152153133 6MINNESO 200  EMMER, THOM1116161111166666666161111116611111166666666166666116111611111161000000000000000000000000000000000
1152912733 7MINNESO 100  PETERSON, C6661611661161611111611116661116611161666661111111661666661116111000000000000000000000000000000000
1151426333 8MINNESO 100  NOLAN, RICH6661616666611111111616116661116616911111111611111661666161116616000000000000000000000000000000000
1152014734 1MISSOUR 100  CLAY, WILLI6661616666611111111616116661169996611111111611111661666166116616000000000000000000000000000000000
1152133734 2MISSOUR 200  WAGNER, ANN1116161111166666666161991116611111166666666166666116111611111161000000000000000000000000000000000
1152092634 3MISSOUR 200  LUETKEMEYER1116161111166666666161111116611111166666666166666116111611111161000000000000000000000000000000000
1152114934 4MISSOUR 200  HARTZLER, V1116161111166666666161111116611111166666666166666116111611111161000000000000000000000000000000000
1152051734 5MISSOUR 100  CLEAVER, EM6661616661611111111616116611166619999999999911111661666999116616000000000000000000000000000000000
1152012434 6MISSOUR 200  GRAVES, SAM1116161111166666666161111166611111166666666166666116111611111161000000000000000000000000000000000
1152115034 7MISSOUR 200  LONG, BILLY1116161111166666666161111116611111166666666166666116111611111161000000000000000000000000000000000
1152137334 8MISSOUR 200  SMITH, JASO1116161111166666666161111166611111166666666166666116111611111161000000000000000000000000000000000
1152156146 1MISSISS 200  KELLY, TREN1116161111166666666161111116611111166666666166666116111611111161000000000000000000000000000000000
1152936846 2MISSISS 100  THOMPSON, B6661616666611111111616116661166616611111111611111661666166116616000000000000000000000000000000000
1152092546 3MISSISS 200  HARPER, GRE1116161111166666666161111116611111166666666166666116111611111161000000000000000000000000000000000
1152114846 4MISSISS 200  PALAZZO, ST1116161111166666666161111166611111166666666166666116111611111161000000000000000000000000000000000
1152153264 1MONTANA 200  ZINKE, RYAN1916169991166666666161999999999999999999999999999999999999999999000000000000000000000000000000000
1152034047 1NORTH C 100  BUTTERFIELD6661616696611111111616996611119996611111111611111661666166116616000000000000000000000000000000000
1152134947 2NORTH C 200  HOLDING, GE1116161111166666666161111166611111166666666166666116111611111161000000000000000000000000000000000
1152954647 3NORTH C 200  JONES, WALT1916661666161616166161999991611161111611666111111666611669999999000000000000000000000000000000000
1151543847 4NORTH C 100  PRICE, DAVI6661616666611111111916116611116616611111111611111661666166116616000000000000000000000000000000000
1152052147 5NORTH C 200  FOXX, VIRGI1116161111166666666161111166611111166666666166666116111611111161000000000000000000000000000000000
1152154347 6NORTH C 200  WALKER, BRA1116161111166666666161111116611111166669666196666116111611111161000000000000000000000000000000000
1152154447 7NORTH C 200  ROUZER, DAV1116161111166666666161111166611111166666666166666116111611111161000000000000000000000000000000000
1152134647 8NORTH C 200  HUDSON, RIC1116161111166666666161111166611111166666666166666116111611111161000000000000000000000000000000000
1152134747 9NORTH C 200  PITTENGER, 1116161111166666666161111166611111166666666166666116111611111161000000000000000000000000000000000
115205224710NORTH C 200  MCHENRY, PA1116161111166666666161111116611111166666666166666116111611111161000000000000000000000000000000000
115213484711NORTH C 200  MEADOWS, MA1116161111166666666161111116611111666666666166666116111611111161000000000000000000000000000000000
115215454712NORTH C 100  ADAMS, ALMA6961616661611111111616116661116616611111111611111661666166116616000000000000000000000000000000000
115217084713NORTH C 200  BUDD, THEOD1116161111166666666161111116611161166666666166666116111611111161000000000000000000000000000000000
1152135036 1NORTH D 200  CRAMER, KEV1116161111166666666161111116611111166666666169666116111611111161000000000000000000000000000000000
1152051835 1NEBRASK 200  FORTENBERRY1116161111166666666161111116611111166666666166666116111611111161000000000000000000000000000000000
1152170135 2NEBRASK 200  BACON, DONA1116161111166666666161111116611111166666666166666116111611111161000000000000000000000000000000000
1152072935 3NEBRASK 200  SMITH, ADRI1116161111166666666161111116611111166666666166666116111611111161000000000000000000000000000000000
11520731 4 1NEW HAM 100  SHEA-PORTER6661616667611111111616116661116616611111111611111661666166116616000000000000000000000000000000000
11521340 4 2NEW HAM 100  KUSTER, ANN6661616666611111111616116661116616111111111611111661666661116616000000000000000000000000000000000
1152153612 1NEW JER 100  NORCROSS, D6661616661611111111616116611116616611111111611111661666161116616000000000000000000000000000000000
1152953912 2NEW JER 200  LOBIONDO, F1116161111166666166661111166611111166666666166666116111611111161000000000000000000000000000000000
1152153712 3NEW JER 200  MACARTHUR, 1116161111166666666161111166611111166666669166666116111661111161000000000000000000000000000000000
1151486312 4NEW JER 200  SMITH, CHRI1116161111166666166661111116611111166666666166666116111611111161000000000000000000000000000000000
1152172312 5NEW JER 100  GOTTHEIMER,6661611661611111111616116661116616611111111611111161166661116616000000000000000000000000000000000
1151545412 6NEW JER 100  PALLONE, FR6661616661611111111616116661166616611111111611111661666166116616000000000000000000000000000000000
1152092912 7NEW JER 200  LANCE, LEON1116161111166666666161111166611111166661666166666116111611111161000000000000000000000000000000000
1152054212 8NEW JER 100  SIRES, ALBI6661616661611111111616116661166616661111111611111661666161116616000000000000000000000000000000000
1152974112 9NEW JER 100  PASCRELL, W6661616661611111111616116611166616111111111611111661666161116616000000000000000000000000000000000
115311031210NEW JER 100  PAYNE, DONA6661616666611111111616116671169996611111111611111661966166999916000000000000000000000000000000000
115295411211NEW JER 200  FRELINGHUYS1116161111166666666161111116611911166666666166666116111611111161000000000000000000000000000000000
115215381212NEW JER 100  WATSON COLE6661616666611111111616116661169996611111111611111661666166116616000000000000000000000000000000000
1152134166 1NEW MEX 100  LUJAN GRISH6661616661611111111616116611116616611111111611111661666166116616000000000000000000000000000000000
1152033766 2NEW MEX 200  PEARCE, STE1116161111166666666161111166611111166666666166666116111611111161000000000000000000000000000000000
1152093266 3NEW MEX 100  LUJAN, BEN 6661616661911111111616116611116616611111111611111661666166116616000000000000000000000000000000000
1152092765 1NEVADA  100  TITUS, ALIC6661616661611111111616116611116616611111111611111661666166116616000000000000000000000000000000000
1152119665 2NEVADA  200  AMODEI, MAR1116161111166666666161111116611111166666666166666116111611111161000000000000000000000000000000000
1152174365 3NEVADA  100  ROSEN, JACK6661616661611111111616116696116616611111111611111161666666116616000000000000000000000000000000000
1152172965 4NEVADA  100  KIHUEN, RUB6661696666611111111616116661166616611111111611111661666166116616000000000000000000000000000000000
1152153913 1NEW YOR 200  ZELDIN, LEE1116161111166666666161111116611111166666666166666116111611111161000000000000000000000000000000000
1152937513 2NEW YOR 200  KING, PETER1116161111166666666161111116611111166666666166666116111611111161000000000000000000000000000000000
1152174713 3NEW YOR 100  SUOZZI, THO6661616661911111111616116661116616111111111611111161199661116616000000000000000000000000000000000
1152154013 4NEW YOR 100  RICE, KATHL6961616661611111111616116666616616611111111611111661666666116616000000000000000000000000000000000
1152977613 5NEW YOR 100  MEEKS, GREG6661616696611111111616116611116616611111111611111661696166116616000000000000000000000000000000000
1152134213 6NEW YOR 100  MENG, GRACE6661616661611111111616996611116616611111111611111661666166116616000000000000000000000000000000000
1152937813 7NEW YOR 100  VELAZQUEZ, 6661616691611111111616116661166616611111111611111661666166119616000000000000000000000000000000000
1152134313 8NEW YOR 100  JEFFRIES, H6661616661611111111616116611116616611111111611111661666166116616000000000000000000000000000000000
1152073313 9NEW YOR 100  CLARKE, YVE6661616661611111111616116661116616611111111611111661666166916616000000000000000000000000000000000
115293771310NEW YOR 100  NADLER, JER6661616661611111111616116611169996611111111611111661666166116616000000000000000000000000000000000
115215601311NEW YOR 200  DONOVAN, DA1116161111166666666161111116611111166666666166666116111611111161000000000000000000000000000000000
115293791312NEW YOR 100  MALONEY, CA6661616661611111111616116611116616611111111611111669666166116616000000000000000000000000000000000
115217151313NEW YOR 100  ESPAILLAT, 6661616661611111111616116661166616611111111611111661666166116616000000000000000000000000000000000
115299251314NEW YOR 100  CROWLEY, JO6661616661911111111616119661116616111111111611111661699166116616000000000000000000000000000000000
115291341315NEW YOR 100  SERRANO, JO6661616666611111111616116661166616611111111611111661666166116616000000000000000000000000000000000
115156031316NEW YOR 100  ENGEL, ELIO6661616661611111111616116611116616111111111611111661666166916616000000000000000000000000000000000
115156121317NEW YOR 100  LOWEY, NITA6661616661611111111616116661166616611111111611111661666166116616000000000000000000000000000000000
115213441318NEW YOR 100  MALONEY, SE6661616661611111111616116661116616611111111611111661666161116616000000000000000000000000000000000
115217161319NEW YOR 200  FASO, JOHN 1116161111166666666161111116611111166666666166666116111611111161000000000000000000000000000000000
115209341320NEW YOR 100  TONKO, PAUL6661616666611111111616116671166616611111111611111661666166116616000000000000000000000000000000000
115215411321NEW YOR 200  STEFANIK, E1116161111116616666161111116611111166666666166666116111611111161000000000000000000000000000000000
115217491322NEW YOR 200  TENNEY, CLA1116161111166666666161111116611111166666666166666116111611111161000000000000000000000000000000000
115211011323NEW YOR 200  REED, THOMA1116161111166666666161111166611111166666666166666116111611111161000000000000000000000000000000000
115215421324NEW YOR 200  KATKO, JOHN1116161111116666666161111166611111166666666166666116111661111161000000000000000000000000000000000
115154441325NEW YOR 100  SLAUGHTER, 6661616666611111111616116661166616611111111611111661666166119999000000000000000000000000000000000
115205191326NEW YOR 100  HIGGINS, BR6961616661611111111616116611116616611111111611111661666166116616000000000000000000000000000000000
115213451327NEW YOR 200  COLLINS, CH1116199999999999999999111116611111166666666166666116111611111161000000000000000000000000000000000
1152955024 1OHIO    200  CHABOT, STE1116161111166666666161111116611111166666666166666116111611111161000000000000000000000000000000000
1152135124 2OHIO    200  WENSTRUP, B1116161111166666666161111166611111166666666166666116111611111161000000000000000000000000000000000
1152135224 3OHIO    100  BEATTY, JOY6661616661611111111616116611116616611111111611111661666166916616000000000000000000000000000000000
1152073824 4OHIO    200  JORDAN, JIM1116161111166666666161111166611161166666666166666116111611611161000000000000000000000000000000000
1152075524 5OHIO    200  LATTA, ROBE1116161111166666666161111116611111166666666166666116111611111161000000000000000000000000000000000
1152116224 6OHIO    200  JOHNSON, BI1116161111166666666161111166611111166666666166666116111611111161000000000000000000000000000000000
1152116524 7OHIO    200  GIBBS, BOB 1116161111166666666161111116611111166666666166666116111611111161000000000000000000000000000000000
1152156424 8OHIO    200  DAVIDSON, W1116161111166666666161111116611111166666666166666116111611111161000000000000000000000000000000000
1151502924 9OHIO    100  KAPTUR, MAR6661616666611111111616111611166616111111111611111661666166996616000000000000000000000000000000000
115203422410OHIO    200  TURNER, MIC1116161111166666666161111166611111166666666166666116111611111161000000000000000000000000000000000
115209412411OHIO    100  FUDGE, MARC6961616661611111111616116661169996111111111611111661666166116616000000000000000000000000000000000
115201302412OHIO    200  TIBERI, PAT1116161111166666666161111166611111166666666166666116111611111161000000000000000000000000000000000
115203432413OHIO    100  RYAN, TIMOT6661616661611911111616999999999999999999999999999999966161116616000000000000000000000000000000000
115213532414OHIO    200  JOYCE, DAVI1116161111166666666161111166611111166666666166666116111611119161000000000000000000000000000000000
115211632415OHIO    200  STIVERS, ST1116161111166666666161111166611111196666666166666116111611111161000000000000000000000000000000000
115211642416OHIO    200  RENACCI, JI1916161111166666666161111166611111166666666166666116111611111161000000000000000000000000000000000
1152135453 1OKLAHOM 200  BRIDENSTINE1116161111166666666161111116611111166666666166666116111611111161000000000000000000000000000000000
1152135553 2OKLAHOM 200  MULLIN, MAR1116161111166666666161111116619111166666666166666116111611111161000000000000000000000000000000000
1152939353 3OKLAHOM 200  LUCAS, FRAN1116161111166666666161111116611111166666666166666116111611111161000000000000000000000000000000000
1152034453 4OKLAHOM 200  COLE, TOM  1116161111166666666161111116611911166666666166666116111611111161000000000000000000000000000000000
1152154653 5OKLAHOM 200  RUSSELL, ST1116161111166666666161991116611111166666666166666116111611111161000000000000000000000000000000000
1152119872 1OREGON  100  BONAMICI, S6661616661611111111616116611166616611111111611111661666166116616000000000000000000000000000000000
1152993272 2OREGON  200  WALDEN, GRE1116161111166666666161111116611111166666666166666116111611111161000000000000000000000000000000000
1152958872 3OREGON  100  BLUMENAUER,6661616666611111611616116611166616611111111611111661666166999999000000000000000000000000000000000
1151541072 4OREGON  100  DEFAZIO, PE6661616666611111111616116661116616611111111611111661666161116616000000000000000000000000000000000
1152094472 5OREGON  100  SCHRADER, K9000000000000000000000006661616616111111111111111161666666116916000000000000000000000000000000000
1152977714 1PENNSYL 100  BRADY, ROBE6661616661611111111616116661166616611111111611111661666166116616000000000000000000000000000000000
1152156614 2PENNSYL 100  EVANS, DWIG6661616667611111111616116611119996611111111611111661696166116616000000000000000000000000000000000
1152116714 3PENNSYL 200  KELLY, MIKE1116161111166666666161111116611111166666666166666116111611111161000000000000000000000000000000000
1152135614 4PENNSYL 200  PERRY, SCOT1116161111166666666161991166611161166666666166666116111611111161000000000000000000000000000000000
1152094614 5PENNSYL 200  THOMPSON, G1116161111166666666161111166611111166666666166666116111611111161000000000000000000000000000000000
1152154714 6PENNSYL 200  COSTELLO, R1116161111166666666161111166611111166666666166666116111611111161000000000000000000000000000000000
1152116814 7PENNSYL 200  MEEHAN, PAT1116161111166666666161111166611111166666666166666116111611111161000000000000000000000000000000000
1152171814 8PENNSYL 200  FITZPATRICK1116161111116666666161111166611111666666666166116116111661111161000000000000000000000000000000000
1152013414 9PENNSYL 200  SHUSTER, WI1116161111166666666161111116619111166666666166666116111611111161000000000000000000000000000000000
115211701410PENNSYL 200  MARINO, THO1116161111166666666161111116611111166666666166666116111611111161000000000000000000000000000000000
115211711411PENNSYL 200  BARLETTA, L1116161111166666666161111116611111166666666166666116111611111161000000000000000000000000000000000
115213571412PENNSYL 200  ROTHFUS, KE1116161111166666666161111116611111166666666166666116111611111161000000000000000000000000000000000
115215481413PENNSYL 100  BOYLE, BREN6661616661611111111616996661116616611111111611111661666166116616000000000000000000000000000000000
115295611414PENNSYL 100  DOYLE, MICH6661616666611111111616116661116616611111111611111661666166116616000000000000000000000000000000000
115205261415PENNSYL 200  DENT, CHARL1116161111166616666161111116611111166666666166616116111661111161000000000000000000000000000000000
115217451416PENNSYL 200  SMUCKER, LL1116161111116666666661111116611111166666666166666116111611111161000000000000000000000000000000000
115213581417PENNSYL 100  CARTWRIGHT,6661616661611111111616116611166616611111111611111661666161116616000000000000000000000000000000000
115203461418PENNSYL 200  MURPHY, TIM1116161111166666666161111116611111166666666166666116911611111161000000000000000000000000000000000
11521172 5 1RHODE I 100  CICILLINE, 6661616661611111111616116611166616611111111611111661666166116616000000000000000000000000000000000
11520136 5 2RHODE I 100  LANGEVIN, J6661616661611111111616116661166616611111111611111661666166116616000000000000000000000000000000000
1152956548 1SOUTH C 200  SANFORD, MA1116161111166666666161111116611161166666666166666116111611111161000000000000000000000000000000000
1152013848 2SOUTH C 200  WILSON, ADD1116161111166666666161111116611111166666666166666116111611111161000000000000000000000000000000000
1152117448 3SOUTH C 200  DUNCAN, JEF1116161111166666666161999999991111166666666166666116111611991161000000000000000000000000000000000
1152117548 4SOUTH C 200  GOWDY, TREY1916161111166666666161111116611111166666666166666116111611111161000000000000000000000000000000000
1152117648 5SOUTH C 200  MULVANEY, M1999999991999999999999999996619999999999999999999999999999999999000000000000000000000000000000000
1153930148 6SOUTH C 100  CLYBURN, JA6661616666611111111616116661169996611111111611111661666999916616000000000000000000000000000000000
1152135948 7SOUTH C 200  RICE, TOM  1116161191166666666161191176611111166666666966666116111611111161000000000000000000000000000000000
1152117737 1SOUTH D 200  NOEM, KRIST1116161111166666666161111116611111166666666166666116111611111161000000000000000000000000000000000
1152094754 1TENNESS 200  ROE, DAVID 1116161111166666666161111116611111166666666166666116111611111161000000000000000000000000000000000
1151545554 2TENNESS 200  DUNCAN, JOH1116161116166666166161111116611111166666666166661116111611111161000000000000000000000000000000000
1152117854 3TENNESS 200  FLEISCHMANN1116161111166666666161111116611111166666666166666116111611111161000000000000000000000000000000000
1152117954 4TENNESS 200  DESJARLAIS,1116161111166666666161111116611111166666696166666116111611111161000000000000000000000000000000000
1151501954 5TENNESS 100  COOPER, JAM6661616661611111111616116616616616111111111611111661666661116616000000000000000000000000000000000
1152118054 6TENNESS 200  BLACK, DIAN1116161111166666666161111119611111166666666166666116111611111161000000000000000000000000000000000
1152035154 7TENNESS 200  BLACKBURN, 1116161111166666666161111116611111166666666166666116111611111161000000000000000000000000000000000
1152173154 8TENNESS 200  KUSTOFF, DA1116161111166666666161111116611111166666666166666116111611111161000000000000000000000000000000000
1152074854 9TENNESS 100  COHEN, STEP6661616666611111111616116661166616611111111611111661666161116616000000000000000000000000000000000
1152052749 1TEXAS   200  GOHMERT, LO1116161116166666666161111196611161166666666166666116111611611161000000000000000000000000000000000
1152052849 2TEXAS   200  POE, TED   1116199111166666666161111166611161166666666166666116111611111161000000000000000000000000000000000
1152914349 3TEXAS   200  JOHNSON, SA1116161111166666666161111116611111166666666166666116111611111161000000000000000000000000000000000
1152154949 4TEXAS   200  RATCLIFFE, 1116161111166666666161111166611111166666666166666116111611111161000000000000000000000000000000000
1152035249 5TEXAS   200  HENSARLING,1116161111166666666161111116611111166666666166666116111611111161000000000000000000000000000000000
1151508549 6TEXAS   200  BARTON, JOE1116161111166666666161111116611111166666666166666116111611991161000000000000000000000000000000000
1152013949 7TEXAS   200  CULBERSON, 1116161111166666666961111116611111166666666166666116111611111161000000000000000000000000000000000
1152976049 8TEXAS   200  BRADY, KEVI1116161111166666666161911116611111166666666166666116111611111161000000000000000000000000000000000
1152052949 9TEXAS   100  GREEN, AL  6661616666611111111616116611169996611111111611111661666166116616000000000000000000000000000000000
115205304910TEXAS   200  MCCAUL, MIC1116161111166666666161111916611111666666666166666116111611111161000000000000000000000000000000000
115205314911TEXAS   200  CONAWAY, K.1116161111166666666161111166611111166666666166666116111611111161000000000000000000000000000000000
115297624912TEXAS   200  GRANGER, KA1116161111166666666161111116611111166666666166666116111611111161000000000000000000000000000000000
115295724913TEXAS   200  THORNBERRY,1116161111166666666161111116611111166666666166666116111611111161000000000000000000000000000000000
115213604914TEXAS   200  WEBER, RAND1116161111166666666161111166611111166666666166666116111611111161000000000000000000000000000000000
115217224915TEXAS   100  GONZALEZ, V6661696661611111111616116611116619111111111611111661666166116616000000000000000000000000000000000
115213614916TEXAS   100  O'ROURKE, B6661616666691111111616116611116616611111111611111661666166116616000000000000000000000000000000000
115211824917TEXAS   200  FLORES, BIL1116161111166666666161111166611111166666666166666116111611111161000000000000000000000000000000000
115295734918TEXAS   100  JACKSON LEE6661616661611111111616116669999996611111111611111661666166116616000000000000000000000000000000000
115217004919TEXAS   200  ARRINGTON, 1116161111166666666161111116611111166666666166666116111611111161000000000000000000000000000000000
115213624920TEXAS   100  CASTRO, JOA6661616666611111111616116661116616611111111611111661666166116616000000000000000000000000000000000
115154454921TEXAS   200  SMITH, LAMA1116161111166666666161119116611111166666666166666116111611111161000000000000000000000000000000000
115209484922TEXAS   200  OLSON, PETE1116161111166666666161111116611111166666666166666116111611111161000000000000000000000000000000000
115215504923TEXAS   200  HURD, WILLI1116161111166666666161111166611111166666666166666116111611111161000000000000000000000000000000000
115205324924TEXAS   200  MARCHANT, K1916161111166666666161111166611111116666666169666116111611111161000000000000000000000000000000000
115213644925TEXAS   200  WILLIAMS, R1116161111166666666161111116611111166666666166666116111611111161000000000000000000000000000000000
115203554926TEXAS   200  BURGESS, MI1116161111166666666161111166611111166666666166666116111611111161000000000000000000000000000000000
115211844927TEXAS   200  FARENTHOLD,1116161111166666666161111116611111166666666166666116111611111161000000000000000000000000000000000
115205334928TEXAS   100  CUELLAR, HE6661611661611111111611116611116616111111111111111161166661116611000000000000000000000000000000000
115393044929TEXAS   100  GREEN, RAYM6661616661611111111616116661166616611111111611111661666999116616000000000000000000000000000000000
115393054930TEXAS   100  JOHNSON, ED6661616666611111111616116611169996611111111611111661666169119999000000000000000000000000000000000
115203564931TEXAS   200  CARTER, JOH1116161111166666666161111116611111166666666166666116111611111161000000000000000000000000000000000
115297594932TEXAS   200  SESSIONS, P1116161111166666666161111116611111166666666166666116111611111161000000000000000000000000000000000
115213654933TEXAS   100  VEASEY, MAR6661616661611111111616116661116616611111111611111661666166116916000000000000000000000000000000000
115213664934TEXAS   100  VELA, FILEM6661616661611111111616116611116616111111111611111661666166116616000000000000000000000000000000000
115295714935TEXAS   100  DOGGETT, LL6661616666611111111616116611166616611111111611111661666166116616000000000000000000000000000000000
115215514936TEXAS   200  BABIN, BRIA1116161111166666666161111116611111166666666166666116111611111161000000000000000000000000000000000
1152035767 1UTAH    200  BISHOP, ROB1116161111166666666161111116611111166666666166666116111611111161000000000000000000000000000000000
1152136767 2UTAH    200  STEWART, CH1116161111166666666161111116611111166666666166666116111611111161000000000000000000000000000000000
1152094967 3UTAH    200  CHAFFETZ, J1116161111166666666161111166611111166666666166666116111611111161000000000000000000000000000000000
1152155267 4UTAH    200  LOVE, LUDMY1116161111166666666161111116611111166666666166666116111611111161000000000000000000000000000000000
1152075640 1VIRGINI 200  WITTMAN, RO1116161111166666666161111116611111166666666166666116111611111161000000000000000000000000000000000
1152174840 2VIRGINI 200  TAYLOR, SCO1116161111166666666161111116611111166666666166666116111611111161000000000000000000000000000000000
1153930740 3VIRGINI 100  SCOTT, ROBE6661616666611111111616116611166616611111111611111661666166116616000000000000000000000000000000000
1152173640 4VIRGINI 100  MCEACHIN, A6661616661611111111616116611116616611111111611111661666166116616000000000000000000000000000000000
1152172140 5VIRGINI 200  GARRETT, TH1116161111166666666161111116611111166666666166666116911611111161000000000000000000000000000000000
1153930840 6VIRGINI 200  GOODLATTE, 1116161111166666666161111116611111196666666166666116111611111161000000000000000000000000000000000
1152155340 7VIRGINI 200  BRAT, DAVID1116161111166666666161111116611161166666666169666116111611111161000000000000000000000000000000000
1152155440 8VIRGINI 100  BEYER, DONA6661696666611111111616116661116616611111111611111661666161116616000000000000000000000000000000000
1152119140 9VIRGINI 200  GRIFFITH, H1116161111166666666161111166611161166666666166666116111611111161000000000000000000000000000000000
115215554010VIRGINI 200  COMSTOCK, B1116161111166966666161111116611111166666666166666116111611111161000000000000000000000000000000000
115209524011VIRGINI 100  CONNOLLY, G6661616666611111111616116661116616611111111611111661666661116616000000000000000000000000000000000
11520750 6 1VERMONT 100  WELCH, PETE6661616666611111111616116611166616611111111611111661666166116616000000000000000000000000000000000
1153110173 1WASHING 100  DELBENE, SU6661616661611111111616116611116616611111111611111661666666116616000000000000000000000000000000000
1152014573 2WASHING 100  LARSEN, RIC6661616661611111111616116611116616611111111611111661666166116616000000000000000000000000000000000
1152118773 3WASHING 200  HERRERA BEU1116161111166666666161111166611111166666666166616116111611111161000000000000000000000000000000000
1152155673 4WASHING 200  NEWHOUSE, D1116161111166666666161111116611111166666666166666116111611111161000000000000000000000000000000000
1152053573 5WASHING 200  MCMORRIS RO1116161111166666666161111116611111166666666166666116111611111161000000000000000000000000000000000
1152136873 6WASHING 100  KILMER, DER6661616661611111111616116661116616611111111611111661666666116616000000000000000000000000000000000
1152172673 7WASHING 100  JAYAPAL, PR6661616666611111111616116661166616611111111611111661666166116616000000000000000000000000000000000
1152053673 8WASHING 200  REICHERT, D1116161111166666666161111116611111166666666166666116111611991161000000000000000000000000000000000
1152976873 9WASHING 100  SMITH, ADAM6661616661611111111616116611166616611111111611111661666166116616000000000000000000000000000000000
115213697310WASHING 100  HECK, DENNY6661616666611111111616116611116616611111111611111661666166116616000000000000000000000000000000000
1152993925 1WISCONS 200  RYAN, PAUL 9000000000000000000000000000000000000000000000000000000010000000000000000000000000000000000000000
1152137025 2WISCONS 100  POCAN, MARK6661616666611111111616116611166616611111111611111661666166996616000000000000000000000000000000000
1152976925 3WISCONS 100  KIND, RON  6661616661611111111616116666616616611111111611111661666666116616000000000000000000000000000000000
1152053725 4WISCONS 100  MOORE, GWEN6661616666611111111616916661169996611111111611111661696166116616000000000000000000000000000000000
1151465725 5WISCONS 200  SENSENBRENN1116161111166666666161111116611111166666666166666116111611111161000000000000000000000000000000000
1152155925 6WISCONS 200  GROTHMAN, G1116161111166666666161111116611161166666666166666116111611111161000000000000000000000000000000000
1152118925 7WISCONS 200  DUFFY, SEAN1116161111166666666161111166611111166666666166666116111611111161000000000000000000000000000000000
1152172025 8WISCONS 200  GALLAGHER, 1116161111166666666161111116611111166666666166666116111611111161000000000000000000000000000000000
1152118856 1WEST VI 200  MCKINLEY, D1116161111166666661161111166611111166661666166666116111611111161000000000000000000000000000000000
1152155756 2WEST VI 200  MOONEY, ALE1116161111166666666161111116611111166661666166666116111611111161000000000000000000000000000000000
1152155856 3WEST VI 200  JENKINS, EV1116161111166666661161111166611111166661666166666116111611111161000000000000000000000000000000000
1152171068 1WYOMING 200  CHENEY, LIZ1116161111166666666161111116611111166666666166666116111611111161000000000000000000000000000000000
1154030081 0ALASKA  200  MURKOWSKI, 0000000000000000000000000000000000000000000000000000000000000000166616661616166116116161611111111
1154150081 0ALASKA  200  SULLIVAN, D0000000000000000000000000000000000000000000000000000000000000000166616661616166116166161611111111
1154970041 0ALABAMA 200  SESSIONS, J0000000000000000000000000000000000000000000000000000000000000000166699999999999999999999911999911
1159465941 0ALABAMA 200  SHELBY, RIC0000000000000000000000000000000000000000000000000000000000000000166666661616166116166161611111111
1152010142 0ARKANSA 200  BOOZMAN, JO0000000000000000000000000000000000000000000000000000000000000000166666661616166116116161611111111
1152130142 0ARKANSA 200  COTTON, TOM0000000000000000000000000000000000000000000000000000000000000000166616661616166116166161611111111
1151503961 0ARIZONA 200  MCCAIN, JOH0000000000000000000000000000000000000000000000000000000000000000166616661616166116116161611111111
1152010061 0ARIZONA 200  FLAKE, JEFF0000000000000000000000000000000000000000000000000000000000000000161616661616166116116161611111111
1154170171 0CALIFOR 100  HARRIS, KAM0000000000000000000000000000000000000000000000000000000000000000616161116161611661611616161116161
1154930071 0CALIFOR 100  FEINSTEIN, 0000000000000000000000000000000000000000000000000000000000000000916161999999999999999999991111111
1152111262 0COLORAD 200  GARDNER, CO0000000000000000000000000000000000000000000000000000000000000000166616661616166116166161611111111
1154091062 0COLORAD 100  BENNET, MIC0000000000000000000000000000000000000000000000000000000000000000616161116161611661661616161111161
11520707 1 0CONNECT 100  MURPHY, CHR0000000000000000000000000000000000000000000000000000000000000000616161116161611661611616166111191
11541101 1 0CONNECT 100  BLUMENTHAL,0000000000000000000000000000000000000000000000000000000000000000616161116161611661611616166116691
1151501511 0DELAWAR 100  CARPER, THO0000000000000000000000000000000000000000000000000000000000000000616961116161611661661616161111161
1154091611 0DELAWAR 100  COONS, CHRI0000000000000000000000000000000000000000000000000000000000000000616161116161611661661616161111166
1151465143 0FLORIDA 100  NELSON, CLA0000000000000000000000000000000000000000000000000000000000000000616161116161611661611616161111161
1154110243 0FLORIDA 200  RUBIO, MARC0000000000000000000000000000000000000000000000000000000000000000161616661616166116166161611111111
1152990944 0GEORGIA 200  ISAKSON, JO0000000000000000000000000000000000000000000000000000000000000000166666661616166116166161611111911
1154150144 0GEORGIA 200  PERDUE, DAV0000000000000000000000000000000000000000000000000000000000000000166666661616166116166161611111111
1152071382 0HAWAII  100  HIRONO, MAZ0000000000000000000000000000000000000000000000000000000000000000616161116161611661611616161111161
1154111282 0HAWAII  100  SCHATZ, BRI0000000000000000000000000000000000000000000000000000000000000000616161116161611661611616161111111
1151422631 0IOWA    200  GRASSLEY, C0000000000000000000000000000000000000000000000000000000000000000166666661616166116616161611111111
1154150231 0IOWA    200  ERNST, JONI0000000000000000000000000000000000000000000000000000000000000000166616661616166116166161611111111
1152934563 0IDAHO   200  CRAPO, MICH0000000000000000000000000000000000000000000000000000000000000000161616661616166116166161611111111
1154090263 0IDAHO   200  RISCH, JAME0000000000000000000000000000000000000000000000000000000000000000161616661616166116166161611111111
1151502121 0ILLINOI 100  DURBIN, RIC0000000000000000000000000000000000000000000000000000000000000000616161116161611661611616166111161
1152132521 0ILLINOI 100  DUCKWORTH, 0000000000000000000000000000000000000000000000000000000000000000616161116161611661611616166111161
1152071722 0INDIANA 100  DONNELLY, J0000000000000000000000000000000000000000000000000000000000000000616161116161611661661616161111111
1152113322 0INDIANA 200  YOUNG, TODD0000000000000000000000000000000000000000000000000000000000000000166616661616166116166161611111111
1151485232 0KANSAS  200  ROBERTS, CH0000000000000000000000000000000000000000000000000000000000000000166666661616166116166161611111111
1152972232 0KANSAS  200  MORAN, JERR0000000000000000000000000000000000000000000000000000000000000000161616661616166116166161619111111
1151492151 0KENTUCK 200  MCCONNELL, 0000000000000000000000000000000000000000000000000000000000000000166666661616166116166161611111111
1154110451 0KENTUCK 200  PAUL, RAND 0000000000000000000000000000000000000000000000000000000000000000661666661616166616116161661111161
1152091945 0LOUISIA 200  CASSIDY, BI0000000000000000000000000000000000000000000000000000000000000000166616661616166116166161611111111
1154170345 0LOUISIA 200  KENNEDY, JO0000000000000000000000000000000000000000000000000000000000000000161666661616166116116161611111111
11514435 3 0MASSACH 100  MARKEY, EDW0000000000000000000000000000000000000000000000000000000000000000616161116161611661611616166111161
11541301 3 0MASSACH 100  WARREN, ELI0000000000000000000000000000000000000000000000000000000000000000616161116161611661611616166116661
1151540852 0MARYLAN 100  CARDIN, BEN0000000000000000000000000000000000000000000000000000000000000000616161116161611661611616161111161
1152033052 0MARYLAN 100  VAN HOLLEN,0000000000000000000000000000000000000000000000000000000000000000616161116161611661611616166116161
11541300 2 0MAINE   328  KING, ANGUS0000000000000000000000000000000000000000000000000000000000000000616161116161611661611616161111111
11549703 2 0MAINE   200  COLLINS, SU0000000000000000000000000000000000000000000000000000000000000000166111611111161116116111111111111
1152092323 0MICHIGA 100  PETERS, GAR0000000000000000000000000000000000000000000000000000000000000000616161116161611661611616161111161
1152973223 0MICHIGA 100  STABENOW, D0000000000000000000000000000000000000000000000000000000000000000616161116161611661611616161111161
1154070033 0MINNESO 100  KLOBUCHAR, 0000000000000000000000000000000000000000000000000000000000000000616161116161611661611616161111111
1154090433 0MINNESO 100  FRANKEN, AL0000000000000000000000000000000000000000000000000000000000000000616161116161611661611616161111161
1152973534 0MISSOUR 200  BLUNT, ROY 0000000000000000000000000000000000000000000000000000000000000000169966661616166116166161611111111
1154070134 0MISSOUR 100  MCCASKILL, 0000000000000000000000000000000000000000000000000000000000000000616161116161611661611616161111111
1151400946 0MISSISS 200  COCHRAN, WI0000000000000000000000000000000000000000000000000000000000000000166666661616166116166161611111111
1152953446 0MISSISS 200  WICKER, ROG0000000000000000000000000000000000000000000000000000000000000000166666661616166116166161611111111
1152133864 0MONTANA 200  DAINES, STE0000000000000000000000000000000000000000000000000000000000000000161616661616166116166161611111111
1154070264 0MONTANA 100  TESTER, JON0000000000000000000000000000000000000000000000000000000000000000616161116161611661661616166111161
1152954847 0NORTH C 200  BURR, RICHA0000000000000000000000000000000000000000000000000000000000000000166616661616166116166161611111111
1154150447 0NORTH C 200  TILLIS, THO0000000000000000000000000000000000000000000000000000000000000000169999661616166116166161611111111
1154110736 0NORTH D 200  HOEVEN, JOH0000000000000000000000000000000000000000000000000000000000000000166616661616166116166161611111111
1154130336 0NORTH D 100  HEITKAMP, M0000000000000000000000000000000000000000000000000000000000000000616161116161611661661616161111111
1154130235 0NEBRASK 200  FISCHER, DE0000000000000000000000000000000000000000000000000000000000000000166616661616166116166161611111111
1154150335 0NEBRASK 200  SASSE, BENJ0000000000000000000000000000000000000000000000000000000000000000161616661616166616166161611111111
11540906 4 0NEW HAM 100  SHAHEEN, JE0000000000000000000000000000000000000000000000000000000000000000616161116161611661611616161111111
11541702 4 0NEW HAM 100  HASSAN, MAR0000000000000000000000000000000000000000000000000000000000000000616161116161611661611616161111111
1152937312 0NEW JER 100  MENENDEZ, R0000000000000000000000000000000000000000000000000000000000000000616161116161611661661616161111161
1154130812 0NEW JER 100  BOOKER, COR0000000000000000000000000000000000000000000000000000000000000000616161116161611661661616166116661
1152093066 0NEW MEX 100  HEINRICH, M0000000000000000000000000000000000000000000000000000000000000000616161116161611661661616161116166
1152992466 0NEW MEX 100  UDALL, THOM0000000000000000000000000000000000000000000000000000000000000000616161116161611661611616166116666
1152073065 0NEVADA  200  HELLER, DEA0000000000000000000000000000000000000000000000000000000000000000166116661116111111116111111111111
1154170065 0NEVADA  100  CORTEZ MAST0000000000000000000000000000000000000000000000000000000000000000616161116161611661611616161116161
1151485813 0NEW YOR 100  SCHUMER, CH0000000000000000000000000000000000000000000000000000000000000000616161116161611661611616161111111
1152073513 0NEW YOR 100  GILLIBRAND,0000000000000000000000000000000000000000000000000000000000000000616161116161611661611616166166661
1152938624 0OHIO    200  PORTMAN, RO0000000000000000000000000000000000000000000000000000000000000000166616661116666116166161611111111
1152938924 0OHIO    100  BROWN, SHER0000000000000000000000000000000000000000000000000000000000000000616161116161611661611616161111161
1151542453 0OKLAHOM 200  INHOFE, JAM0000000000000000000000000000000000000000000000000000000000000000166616661616166116166161611111111
1152116653 0OKLAHOM 200  LANKFORD, J0000000000000000000000000000000000000000000000000000000000000000161616661616166116166161611111111
1151487172 0OREGON  100  WYDEN, RONA0000000000000000000000000000000000000000000000000000000000000000616161116161611661611616166116661
1154090872 0OREGON  100  MERKLEY, JE0000000000000000000000000000000000000000000000000000000000000000616161116161611661611616166116661
1152993514 0PENNSYL 200  TOOMEY, PAT0000000000000000000000000000000000000000000000000000000000000000161616661616166116166161611111111
1154070314 0PENNSYL 100  CASEY, ROBE0000000000000000000000000000000000000000000000000000000000000000616161116161611661661616161111161
11529142 5 0RHODE I 100  REED, JOHN 0000000000000000000000000000000000000000000000000000000000000000616161116161611661611616161111111
11540704 5 0RHODE I 100  WHITEHOUSE,0000000000000000000000000000000000000000000000000000000000000000616161116161611661611616161111111
1152117348 0SOUTH C 200  SCOTT, TIM 0000000000000000000000000000000000000000000000000000000000000000161616661616166116166161611111111
1152956648 0SOUTH C 200  GRAHAM, LIN0000000000000000000000000000000000000000000000000000000000000000169916661616166116166161611111111
1152975437 0SOUTH D 200  THUNE, JOHN0000000000000000000000000000000000000000000000000000000000000000166616661616166116116161611111111
1154150537 0SOUTH D 200  ROUNDS, MAR0000000000000000000000000000000000000000000000000000000000000000166666661616166116166161611111111
1154030454 0TENNESS 200  ALEXANDER, 0000000000000000000000000000000000000000000000000000000000000000166666661616166116166161619111111
1154070554 0TENNESS 200  CORKER, ROB0000000000000000000000000000000000000000000000000000000000000000166616661616166116166161611111111
1154030549 0TEXAS   200  CORNYN, JOH0000000000000000000000000000000000000000000000000000000000000000166666661616166116166161611111111
1154130449 0TEXAS   200  CRUZ, RAFAE0000000000000000000000000000000000000000000000000000000000000000161616661616166616116161611111111
1151450367 0UTAH    200  HATCH, ORRI0000000000000000000000000000000000000000000000000000000000000000166666661616166116666161611111111
1154111067 0UTAH    200  LEE, MIKE  0000000000000000000000000000000000000000000000000000000000000000161616661616166616116161611111111
1154090940 0VIRGINI 100  WARNER, MAR0000000000000000000000000000000000000000000000000000000000000000616161116161611661661616161111111
1154130540 0VIRGINI 100  KAINE, TIMO0000000000000000000000000000000000000000000000000000000000000000616161116161611661611616161111911
11514307 6 0VERMONT 100  LEAHY, PATR0000000000000000000000000000000000000000000000000000000000000000616161116161611661611616166111161
11529147 6 0VERMONT 328  SANDERS, BE0000000000000000000000000000000000000000000000000000000000000000616161116161611661611616166111666
1153931073 0WASHING 100  CANTWELL, M0000000000000000000000000000000000000000000000000000000000000000616161116161611661661616161111161
1154930873 0WASHING 100  MURRAY, PAT0000000000000000000000000000000000000000000000000000000000000000616161116161611661661616166111161
1152994025 0WISCONS 100  BALDWIN, TA0000000000000000000000000000000000000000000000000000000000000000616161116161611661611616166111161
1154111125 0WISCONS 200  JOHNSON, RO0000000000000000000000000000000000000000000000000000000000000000166616661616166116166161611111111
1152014656 0WEST VI 200  CAPITO, SHE0000000000000000000000000000000000000000000000000000000000000000166666661116166116166161611111111
1154091556 0WEST VI 100  MANCHIN, JO0000000000000000000000000000000000000000000000000000000000000000616161116161611661611116161111111
1154070768 0WYOMING 200  BARRASSO, J0000000000000000000000000000000000000000000000000000000000000000166666661616166116166161611111111
1154970668 0WYOMING 200  ENZI, MICHA0000000000000000000000000000000000000000000000000000000000000000166666661616166116166161611111111
