1049990999 0USA     10000CLINTON    99999999999999199999999999999999999999999999996999999999999999999999999999999999999999999991199996999999999999969999919999699999199991919699999999999199999999999999996999999996999999999999969699999999999999999999999999999699999999999999999999699999999999999999699999999999991999999999969991999999999999999999999999999999999999969999999669696999999999969996999999196919991199699999999999999999999999999999999966969699999696999999666999999999999999999999999999999999999999999999999999999999999999999999999999999699199996996991999999999699999969919999999991996199999991999969999999999996199999196699999999991199999691919191699699169996999996999999999919966911199991916699699991916969999969199999111969919991999999999691699999999699999999969969999996699999991916999996999999999619699991996999699996969999961999999199999999999169969999999916969999969969999699999969999999996669999999999999191999199999999999999999999919691699699969699999999999996999999991699999969699919991999999969999996919969999999969991699999999999919999991999996911919969996999169999996999991961999999999699999969699699999919969999999969999999999699199199999999999999699999996999916969999999999999999999999999999699999999999999919699999991999999999999699996996999969999699999999999919999999691999911999966999999191999999969999999999699999999699999999991919999999999919199999999999999999999999999999999999999999999999999999999999999999999999999999999999691919999999999991999919999999999919999999999996999996699199996999999999999999999999999999999999999999999699999999999999999999999999996619199999111999996999999999999999699966911991999196999999999999999919999999999999999999999999999999999999199999966999999996999999999999916919999999999999999999999916961999996999996999999999999999999999999999999919999991661961969996199999699919669999199191669999696999999999999999999999999999999999999999999999999999999999996999919999666699991996999699669919661199699966616969696966999191919999999999999191991199691969996996969699969999919969999999999991999991999961999919999999999999999999999999999999999999999999999999999999999999999999669919691119999999919991996991669969999999969999191999999999919999199999999999999999996999199699999996699111191999999999999919999999999999999991619999
1041406681 1ALASKA  20001YOUNG  DON 11611111111161111691666666616666911111666666161966611666666666666666666666666116666666666111661161661611666666611661166616191169661699666111661166166191666661116666661166616661161111166661616116666661111666661116666661166111111611116111166666111116116116611666161611661111111111111166161111161611661111666666666666661161116666611119666111161661666616611161111661661166196696111611116696669166661191616661611166966661116161966666169999999911111111111619999611611111111116666666666111161161666666661111661111666111661611111111166616661666666616611666661661611666669666616111666666666966619999999999999999999999999999999999916166616661616661166661161611111116191116661116111911166611161666666661666611116661616611166111111111166161111116111911119661111111161161961161911119111111999996161116111111111111111111111166611111111999991111111161111999619119999911611611199111691111111111999999911611111111116966966661611111116116111111111666111161161111111616111616111111111661166119911111111911611111111119111111111161116111111696661611116166111661161611611166661111661661161619666661611166661611111661966661111116666666111161666666161666166116666111666161161116661111166111166116661616166111666116119166166111111166666996161116669161166669111611911666111116191166161116111169999916111111111111111111111161111111111161111111111110000000000000000000000000000000000000000000000000000000000000000000000000000000000000000000000000000000000000000000000000000000000000000000000000000000000000000000000000000000000000000000000000000000000000000000000000000000000000000000000000000000000000000000000000000000000000000000000000000000000000000000000000000000000000000000000000000000000000000000000000000000000000000000000000000000000000000000000000000000000000000000000000000000000000000000000000000000000000000000000000000000000000000000000000000000000000000000000000000000000000000000000000000000000000000000000000000000000000000000000000000000000000000000000000000000000000000000000000000000000000000000000000000000000000000000000000000000000000000000000000000000000000000000000000000000000000000000000000000000000000000000000000000000000000000000000000000000000000000000000000000000000000000000000000000000000000000000000000000000000000000000000000000000
1041509041 1ALABAMA 20001CALLAHAN   11611111111161111611696666611166611111666666161166611666666666666666666666666116616666666111661161661611666666611661166616161161661616666111661166166111666661116666661166616661161111166661616116666661111666661116666661166116161611116111166616111116116116611666161616661111111111111166111111161611666191661666666666661161116666611111666111161661666116616161111661666161116616111611116666666166661111666161611166666611116161666666166111111111111111111611619611611111111116666661666111161166666666661111661111166111661611111111166616661666666616611666661616611666666166616111666666666666611666661661661169916666166116661616116166616661616661166661161619911116191116661116111996661611161916611661666611116666616611166111111111166161111116111111111661111111161161161161111119111191119116161116111111661119911116111166611111111611611111111169161611611119116111611619999999999911111111111116161619119999116611966661611111116166111111111669111166161661111616166616111111111661166111111111111111611111111111111111111161116111111616666611111161111661166611619166661166116661161616666696661666661611111661166661116696666666111166666666661666669916666161616661161116666111166111666616661616166111661611111166161111111161666116111116666661116611111111191666111116111166161166161111111116111111111111111111111161111111111111111111161110000000000000000000000000000000000000000000000000000000000000000000000000000000000000000000000000000000000000000000000000000000000000000000000000000000000000000000000000000000000000000000000000000000000000000000000000000000000000000000000000000000000000000000000000000000000000000000000000000000000000000000000000000000000000000000000000000000000000000000000000000000000000000000000000000000000000000000000000000000000000000000000000000000000000000000000000000000000000000000000000000000000000000000000000000000000000000000000000000000000000000000000000000000000000000000000000000000000000000000000000000000000000000000000000000000000000000000000000000000000000000000000000000000000000000000000000000000000000000000000000000000000000000000000000000000000000000000000000000000000000000000000000000000000000000000000000000000000000000000000000000000000000000000000000000000000000000000000000000000000000000000000000000000
1042930041 2ALABAMA 20001EVERETT    11611111111161111611666666611166611111666666161166611666666666666666619666666116616666666111661661661611666666611661166616161161661616666111661166166111661661116666661166616661161111166661616116666661111666661116666661166116661611116111166616111116116116611666161611111111111111111166111111161111666111666666666666661161116666611111666111161661666116616166911661666161116616111611116666666166661111616161611166666111116161666666116111111111111111111611611611611111111166666666666111161166661666661111661111166111661611111111166616661616666616616616661616611666666166616111666669666666611666661161661161616666166166161116116166616661616661166661161611111116161116661116111116661611166616611666666616116666616611166161111111166161111116611111116661111111161161661161611119111111111116161116111111111111611116111166111111111611611111111161111611611111116111611611161111611111111111111116161661111111116661161661916111116116111111116661111166161661111616166616111111111661166111111111111611111111111116111111611161116111111616661611661161111661166611611166661166116661661616666661161666661611116666966661116666666666111166666666161616666116616161616661111116661199166111666616661616166111666111611166199999961161666616161111666661116616111111661666711116111166161166111111111116111611111116111111111161111111111111111111161110000000000000000000000000000000000000000000000000000000000000000000000000000000000000000000000000000000000000000000000000000000000000000000000000000000000000000000000000000000000000000000000000000000000000000000000000000000000000000000000000000000000000000000000000000000000000000000000000000000000000000000000000000000000000000000000000000000000000000000000000000000000000000000000000000000000000000000000000000000000000000000000000000000000000000000000000000000000000000000000000000000000000000000000000000000000000000000000000000000000000000000000000000000000000000000000000000000000000000000000000000000000000000000000000000000000000000000000000000000000000000000000000000000000000000000000000000000000000000000000000000000000000000000000000000000000000000000000000000000000000000000000000000000000000000000000000000000000000000000000000000000000000000000000000000000000000000000000000000000000000000000000000000000
1041563241 3ALABAMA 10001BROWDER    66111111111611166161616661166116661111666666111666666666666666666661616666666116111111111161666161661661116616111166616661616661616661616666111199999911661611111666161116616691161111166161611111661116111611111611116611111111111616116111166111619999666116611161611161111611199111116611611161661991111111666666666666661161666666611111166661161661616161161116661611166166111611166161666161166111116669191161166616611611116161111111111916111666666666666161116166166616669616611111666996616616616111111116166169616661611611666611166661666666666616616666611661661116666661111116611666166666611166611661611616666661661616161161161666616661111116161111161611116161116616111116191611116161111161116161161161111161691116661611111666111611661116116116611661111111161616116116166666616111191111611616161166616611661116666116116111111116161111116616161666166119666116116116611616161166166161111161111661166661666661161111111111666611661166161661111161661661166161166111111111666111611111116666161111611111111111611611161111116116666661661111111161666611661669111161166111161111161111661919999999991119991161166661666616666661111166166666116666661699999999999999161661111111611161161161611116666111966161111111161111111116666666166116666111661161661111116666161116111161111161111611111116111611111111111661116161111111111116616111161610000000000000000000000000000000000000000000000000000000000000000000000000000000000000000000000000000000000000000000000000000000000000000000000000000000000000000000000000000000000000000000000000000000000000000000000000000000000000000000000000000000000000000000000000000000000000000000000000000000000000000000000000000000000000000000000000000000000000000000000000000000000000000000000000000000000000000000000000000000000000000000000000000000000000000000000000000000000000000000000000000000000000000000000000000000000000000000000000000000000000000000000000000000000000000000000000000000000000000000000000000000000000000000000000000000000000000000000000000000000000000000000000000000000000000000000000000000000000000000000000000000000000000000000000000000000000000000000000000000000000000000000000000000000000000000000000000000000000000000000000000000000000000000000000000000000000000000000000000000000000000000000000000000
1041100041 4ALABAMA 10001BEVILL     66111111111111196161616661661116666111666661111116666161666666666666616616966116161116111161661161661661116616111166616661616661116161616166111616111116161611111666111116116611161111166666611111161116166616111611111616191111111616616111166161616161666116611161661166611611111111116111611111661111111111666666666666661161666616611161166666161661616161111116666611166166111616161661616666666161116666166161166616611611116161111111611111111666666666666161116166166666666616666661666616616616666111116661166661616161616611666611166661666661666616116666116161661116666661116116611166166166111166116611611161966661611616161111161166616661111116166111161611116161116616611116111611116161111161116161161161116111611116661611111666161611661666111111611116611111166616116116166666616611161111111611111166666611661116666116116111116119991611616616166166166111666166116166619999961666166161111161111661166699666661161111111111666999961161161661111116661661166166161611111111666111611616166666661111611111111111611611961111116116666161999999999961666661691166111161666111661111161111661111661161661111111161166661666616669999911166666666616166661166616116999999161161161111661161161161611616666116166661111611666111111116166666666116666661619999999611116666166616111166111111111611166111111611111111111661116111111111111616666116161610000000000000000000000000000000000000000000000000000000000000000000000000000000000000000000000000000000000000000000000000000000000000000000000000000000000000000000000000000000000000000000000000000000000000000000000000000000000000000000000000000000000000000000000000000000000000000000000000000000000000000000000000000000000000000000000000000000000000000000000000000000000000000000000000000000000000000000000000000000000000000000000000000000000000000000000000000000000000000000000000000000000000000000000000000000000000000000000000000000000000000000000000000000000000000000000000000000000000000000000000000000000000000000000000000000000000000000000000000000000000000000000000000000000000000000000000000000000000000000000000000000000000000000000000000000000000000000000000000000000000000000000000000000000000000000000000000000000000000000000000000000000000000000000000000000000000000000000000000000000000000000000000000000
1042910041 5ALABAMA 10001CRAMER     66111111111111166161616666666116666111666666111669666166666666666661616666166116111116111161661161661661116116111166616161616661611661616166111166166116661611111666161116616661161111166611611111161116161611111611116661111111111616616111166111616161666111611161161161111611199111116111611161661911116111666666666666661169666666611111166666111661616161161116611611166166111111161661666666666111116666161111166616611611116111111111111116111666666666666161911166166616661116666661666616616616616611611111166161616161111611666611166661666666666616616666116161661116666661111116611666166666611666661661611616661161661616161161161666166661611116166111111611116161116616611116111611116111116611116161161161111111616616661611111666116611611161166111611661111111161616116116166666616111661161611616161166616611661116666116116111166116111111666616161666166119666166116116699999961166166161111161111661166661666661161111111111661611661166161661111161661661166161166611111111666111611111116611111111611111111111611611161111116116666661661111111111666661661666111166166111161111161111661111661161661111111161166661666616666661111166166666616666661666616116666611161661161111611161161161111116666111116111111111111611111116666666161116666111611161669611116666161116111166111161111611111116111611111111111661116161111111111116616111161610000000000000000000000000000000000000000000000000000000000000000000000000000000000000000000000000000000000000000000000000000000000000000000000000000000000000000000000000000000000000000000000000000000000000000000000000000000000000000000000000000000000000000000000000000000000000000000000000000000000000000000000000000000000000000000000000000000000000000000000000000000000000000000000000000000000000000000000000000000000000000000000000000000000000000000000000000000000000000000000000000000000000000000000000000000000000000000000000000000000000000000000000000000000000000000000000000000000000000000000000000000000000000000000000000000000000000000000000000000000000000000000000000000000000000000000000000000000000000000000000000000000000000000000000000000000000000000000000000000000000000000000000000000000000000000000000000000000000000000000000000000000000000000000000000000000000000000000000000000000000000000000000000000
1042930141 6ALABAMA 20001BACHUS     11611111111161111619666666611966611111666666161166611666666666666666616666666116666666666111661661661611666666611661166616161161661611666111611166166111661661116666661166616661161111166661616116666661111616661116616661166111111611116111166616111116196116111666161616111111111111911166111111161611666111666666666666661161116666611111666111161661666116611161111161666161116916111111116666666116661111611111611166616669116161666666166111111111111111111611611611611111111116616666666111161116666666661191661161166111661611611199116616661116111116616611661616999966666116616111666661666166611666661161661161616666166116661616116166616661616661161661161611116166161116661116111116661611161616666166666611111166616111166111111111166161111116111111111661111111161161161161111116111161111116161116111111111711911111119166611111111611611111111161111611611111116111611611111111611111111111111116161611111111116661161661611111116116111111111661111166161661111616666616111111111661166111111111111111611111111111111111111161116111111616661691161161111661166611611166661111111661199616666666161166161611111661166611116616666666111166666666166611666116616111616169161116661111166111666611661611166111666111111166161111111161661116116616666661116611111111111696111119911166161116111111111116111619999111111116111161111111111111111111111110000000000000000000000000000000000000000000000000000000000000000000000000000000000000000000000000000000000000000000000000000000000000000000000000000000000000000000000000000000000000000000000000000000000000000000000000000000000000000000000000000000000000000000000000000000000000000000000000000000000000000000000000000000000000000000000000000000000000000000000000000000000000000000000000000000000000000000000000000000000000000000000000000000000000000000000000000000000000000000000000000000000000000000000000000000000000000000000000000000000000000000000000000000000000000000000000000000000000000000000000000000000000000000000000000000000000000000000000000000000000000000000000000000000000000000000000000000000000000000000000000000000000000000000000000000000000000000000000000000000000000000000000000000000000000000000000000000000000000000000000000000000000000000000000000000000000000000000000000000000000000000000000000000
1042930241 7ALABAMA 10001HILLIARD   66166661161611166166111111166111166616111161616616166111119161111111161111111611161116161661116116116166111111166116611161696616116161161666116611611166911117161111116611161116111116161111111161661116666111116661191166611911111116671161166161616661666666611111619161666661161166196661666191611999991111666666616666661161666616916666661666116116116661116616666611161666666111666166661661611661196666161661166669661616616116111911661166111666666666666166166166166666999966616111666616616616116111111161166666616661116166166616166661666661699999999999999999999911111661161166611166111916661116116696116616161161611611161161661611161166111996111116111611116161616661161991611661196166619161116166111166116111991166661611161666161916961661666666666116611111111616616616666666616611666161616611611166666661661116666111116116166166161611666616166166176169666666116166661666166666166161111661661166666661666661111111916611661611661166666116161116616166666161666161116611666116611616666666666611611666111116666611666116111116666161161166616611666916611166161111116111661116661111661119961611166161116161666661666616111116611166111661616166111661161666661616161661111116661666161161111116611116116661116661616111111116116666666616666161661169661611616166166661611611611911616611116111111111111116661661616616699911111666666116161610000000000000000000000000000000000000000000000000000000000000000000000000000000000000000000000000000000000000000000000000000000000000000000000000000000000000000000000000000000000000000000000000000000000000000000000000000000000000000000000000000000000000000000000000000000000000000000000000000000000000000000000000000000000000000000000000000000000000000000000000000000000000000000000000000000000000000000000000000000000000000000000000000000000000000000000000000000000000000000000000000000000000000000000000000000000000000000000000000000000000000000000000000000000000000000000000000000000000000000000000000000000000000000000000000000000000000000000000000000000000000000000000000000000000000000000000000000000000000000000000000000000000000000000000000000000000000000000000000000000000000000000000000000000000000000000000000000000000000000000000000000000000000000000000000000000000000000000000000000000000000000000000000000
1042930542 1ARKANSA 10001LINCOLN    66161116111111999999999666666116661111666666111666166661666666166661616661166116161111111661661166661661116616111166611161116661116111611666111111666116661111111161111111161111161116161611611111161116166611111661616611611111111616116111161161916161666661611161616161666669911116116661616161611111166119611661611166616169666661161111166661116161616666111166661111111111111111666161661166616611116666111111116616611111616116111111116116611666666666666116611666166666661161616611166611616616116666661161116161616161111661666611116661666661666616616611661111161116666661111116116616666111661166611166611611661161616616161111199911161116611116111111111111116111166616611661611116111196111166661161169161116116116116611611111666116691611661666616666666199991161616116116166666616611661161611611661166666611661116611111199111111166111111666611161166166161666116116116699999966616166161111661161111166661666661116116111661661611661166661661116161166661166166161111666111666111611166116666661111611111111119611999161161116116666161661111191699961666661666111111116111161999999999999999999999999999999999999999999999999999999999999999999999999999999999999999999999999999999999999999999999999999999999999999999999999999999999999999999999999999999999999666111116111666199999999999961116111691111111999999999999611111111111116111999990000000000000000000000000000000000000000000000000000000000000000000000000000000000000000000000000000000000000000000000000000000000000000000000000000000000000000000000000000000000000000000000000000000000000000000000000000000000000000000000000000000000000000000000000000000000000000000000000000000000000000000000000000000000000000000000000000000000000000000000000000000000000000000000000000000000000000000000000000000000000000000000000000000000000000000000000000000000000000000000000000000000000000000000000000000000000000000000000000000000000000000000000000000000000000000000000000000000000000000000000000000000000000000000000000000000000000000000000000000000000000000000000000000000000000000000000000000000000000000000000000000000000000000000000000000000000000000000000000000000000000000000000000000000000000000000000000000000000000000000000000000000000000000000000000000000000000000000000000000000000000000000000000000
1041405842 2ARKANSA 10001THORNTON   66161111161611166611116111111111166696616166616611966611666111111611666611161111161116611611111116616166116616161116616661666661116199999966111111611116611111111161116611161111191116116611611161661116116111111661111666661611111616616161166161616661666111611161611166161669911116116611661161611111111111111661111661161166661661161111166666611661116619196616666611111999999999999966666666166111116666161666116666661611661116111111666116111166666666666166611666166666666666666611166616616611166161611166166661616111111116661111166661666666666616616116611161661116666661111116616666161166111611116661611616661661661616111111661661666111611116161911111611166161116616611111611611616611611161166161119161111166616116611611111666111616661661661616691116699999999999999999999999616611661161616616161166666661661116666111116111111166161611666616166166166111666166116166611116166666169999111161161161166661666116111116111111661611661166166616199916616666166161666111111111666111611116169999999911611111111111611611161116116116666161161116611991666616666166111161166111661111191111661116669699991161111161166661661116669999911166166666616166161666616166661616161691111111661169161166111116699916116661111611699999911116666666661116666161611169661611116666116611111616611161111611166111111611111119999961116616611111111616666111161610000000000000000000000000000000000000000000000000000000000000000000000000000000000000000000000000000000000000000000000000000000000000000000000000000000000000000000000000000000000000000000000000000000000000000000000000000000000000000000000000000000000000000000000000000000000000000000000000000000000000000000000000000000000000000000000000000000000000000000000000000000000000000000000000000000000000000000000000000000000000000000000000000000000000000000000000000000000000000000000000000000000000000000000000000000000000000000000000000000000000000000000000000000000000000000000000000000000000000000000000000000000000000000000000000000000000000000000000000000000000000000000000000000000000000000000000000000000000000000000000000000000000000000000000000000000000000000000000000000000000000000000000000000000000000000000000000000000000000000000000000000000000000000000000000000000000000000000000000000000000000000000000000000
1042930642 3ARKANSA 20001HUTCHINSON 11611111111161111611666666611166611111666666161166611666666666666666666666666116666666666111661661661611666661611661166616161161661616666111661166166111666661116666661166616661161111166661616116666661111666661116666661166111116611116111116616111116111116611666161611111111111111111166111111161611666111666666666666661161116666611111666111161661666116611161111161666161116616111111116661166916661111616111611116611661116161666666116119111111111111111619611611611111111116616661616111661166661666661611661116166111661611111116111616661616166616616666661116611666666666616111666661666611611661661161661161916666166119991616116116616611616661166661161611116616161116611116111116661616161666666661666611111661616611166111111111166161111116911111111661111111161161161161111111111161111116161116161111111111611116666166611111111611611111111161111611611111116111611611111111699911111111111116161611111111116111161661611111116116111111116666111166161661111616111616111111111661166111111111111111611116991111111111111161116111111616661611661161111661166611611166661166116661161616116661111166111611116661661111111116666666111166166666161616166116616111616161111116661111116111666616661616166111666611111166161111161161661616166116666661116619999111611699111116111166161116611111111116111611116116111611116161111111111111111111111610000000000000000000000000000000000000000000000000000000000000000000000000000000000000000000000000000000000000000000000000000000000000000000000000000000000000000000000000000000000000000000000000000000000000000000000000000000000000000000000000000000000000000000000000000000000000000000000000000000000000000000000000000000000000000000000000000000000000000000000000000000000000000000000000000000000000000000000000000000000000000000000000000000000000000000000000000000000000000000000000000000000000000000000000000000000000000000000000000000000000000000000000000000000000000000000000000000000000000000000000000000000000000000000000000000000000000000000000000000000000000000000000000000000000000000000000000000000000000000000000000000000000000000000000000000000000000000000000000000000000000000000000000000000000000000000000000000000000000000000000000000000000000000000000000000000000000000000000000000000000000000000000000000
1042930742 4ARKANSA 20001DICKEY     11611111111161111611666666611166611111666666161166611666666666666666666666666116666666666111661661661611666666611661166616161161661616666111661166196111666661116666661166616661161111166661616116666661111666669116666661661111116611116111116616111166111116611666161611111119911111111166119999999611666111666666666666661191116666611111666111161661666116611161111161661161199999999911116661166116661111616111611166616661116161666666161111111111111111111611611611611111111116616661666111169166611666669611611611166111661611111111111616661666666616616666161616611666666666616111666661666666611661661161661161616666166116661616116116616611616661166661161611111161161116661116111116661611161669666661666611116661616611166111111111166191111116111111111661111111161161161191999999111161111116161116111111111111611111111166611111111611611111111961111611611119116111611611111111611111611199111116161991111111116616161661119116116116111111191666111166161661111616161616111111191661166111111111111111611116111111111111111161116111911616669999999961111661166611611166666166116661161616116661111166111611111661166661111116666666111166666666166619666116616111616161161116666199116111666616661616166911666111611166161111111161666616161116661161166619111111111669911116111166199999999991111116111611116119111111111161119111111111111111161110000000000000000000000000000000000000000000000000000000000000000000000000000000000000000000000000000000000000000000000000000000000000000000000000000000000000000000000000000000000000000000000000000000000000000000000000000000000000000000000000000000000000000000000000000000000000000000000000000000000000000000000000000000000000000000000000000000000000000000000000000000000000000000000000000000000000000000000000000000000000000000000000000000000000000000000000000000000000000000000000000000000000000000000000000000000000000000000000000000000000000000000000000000000000000000000000000000000000000000000000000000000000000000000000000000000000000000000000000000000000000000000000000000000000000000000000000000000000000000000000000000000000000000000000000000000000000000000000000000000000000000000000000000000000000000000000000000000000000000000000000000000000000000000000000000000000000000000000000000000000000000000000000000
1042950061 1ARIZONA 20001SALMON     11611911111161199911666666611166611111666666161166611666666666666666616666666116666666666111661161661611666666611661166616161161661616666111661166166111666661116666661166616661161111166661616116616661111666661116666611166111111611116111111616111116116119111666161611116111111111111166111111161611666111666666666666661611116666611111616111161661666116611161111661666161176616111111116166169166661111616111611111111161116161966666166111611111111111111611611611611111111116116661611111661166611666661611611111166611661611111111116616111116111166616611161616611666666116616111666661666616611666661161661161616666166116161116116166616611616661166661161611161666161116661119911116661616161616661666666611111161616611166111111111166161116116111111111661111111161161161161111111111161111116161116161111111111611111111166611111111611611111111161111611611111116111611611111111611111111111111116161661111111111111161661911116116116111116116666111161161166111666161616111111111616166111111111111111161191111111111111111161116111111616661611111166111161166611611166666166116666161616661661111666111611111661161111166616666666111111666661661611116116616111616161161116666111116111666116661611166111666111111166161111111161661116111611161161116611111111111666111116116166161166161111111116111611116111111111111161111111111111111111161160000000000000000000000000000000000000000000000000000000000000000000000000000000000000000000000000000000000000000000000000000000000000000000000000000000000000000000000000000000000000000000000000000000000000000000000000000000000000000000000000000000000000000000000000000000000000000000000000000000000000000000000000000000000000000000000000000000000000000000000000000000000000000000000000000000000000000000000000000000000000000000000000000000000000000000000000000000000000000000000000000000000000000000000000000000000000000000000000000000000000000000000000000000000000000000000000000000000000000000000000000000000000000000000000000000000000000000000000000000000000000000000000000000000000000000000000000000000000000000000000000000000000000000000000000000000000000000000000000000000000000000000000000000000000000000000000000000000000000000000000000000000000000000000000000000000000000000000000000000000000000000000000000000
1042910161 2ARIZONA 10001PASTOR     66161111111611166161111111166111166616611111616611166111111111111611161111111616116616111611611116116166111111111116611161616616116161611661111611611166111111111111116611161116111166611116161661661116666111116661111166611611161116611161166161616161666111611111611166666661111116116661666161611111111111111611111619999999661661161661666666616111111661116616666111111666611111166666661611111611116666161161166966661116666616111111611166111666666666666161116166166666666661666111166616616611169911116161166661661661116166666611166661666661666616611166611161661161111661111166611166111166161111116116111616661161611616111161161616161166111116111111111611116161116611611611611611116166666161116111111161111111111116661611116666161616661661166166669116611111616616116616166666616611666161616661111166666661661111661111116111166166161111666616166166176116666666116166611666199666166161111161611111166661666666116116111161661611661166661116161116616166666161666161666611666161611116666666666611611666111161661611961116116116666161111166611611611611666166111111116111161111161111961111661111166161111111166661661111666111111111111111116166111661611166661116161661111111611166111161111116661116116661116661616111111116116666666616666161611161661611116111166666111611611111111619911199999919999111661661116616611111111616666111161610000000000000000000000000000000000000000000000000000000000000000000000000000000000000000000000000000000000000000000000000000000000000000000000000000000000000000000000000000000000000000000000000000000000000000000000000000000000000000000000000000000000000000000000000000000000000000000000000000000000000000000000000000000000000000000000000000000000000000000000000000000000000000000000000000000000000000000000000000000000000000000000000000000000000000000000000000000000000000000000000000000000000000000000000000000000000000000000000000000000000000000000000000000000000000000000000000000000000000000000000000000000000000000000000000000000000000000000000000000000000000000000000000000000000000000000000000000000000000000000000000000000000000000000000000000000000000000000000000000000000000000000000000000000000000000000000000000000000000000000000000000000000000000000000000000000000000000000000000000000000000000000000000000
1041445461 3ARIZONA 20001STUMP      11611111111161111661666666611166611111666666161166611666666666666666616666666116616666666111661161661611666666611661166616161161661616666111661166166111666661116666661166616661166111166661616116616661111666661116666611166116166611116111111616111116116116111666161616611111111111111166111111161611666111666666666666661611116666611111666111161666666166611166111661666161116616111611116166666166661111616111611161116161116161666666116611119111111111111611611611611111111161616166666111161166611666661611111111166111661611116111116616661116666666616611161616616666666116616161666661666666611666661161661161616666166116661616116166616661616661166661161611111616161116661916111116661611161616611666666616116666616611166161111111166161111116611111111661611111161161161161111111111161111666161116111111111111611116111166611111111661611111111161111611611111116111611611111111611111111111111116161661111111116666666661611111116116111111111666111166161661111616161616111111111666166111111111111111161116111111111111111161616111111616666611161166111661166611611166661166116661161616666661111666611611161666166661111666666666111161666666161611166616666111616661161116666111116611666616661611166111666111111166161661161161661116111616166161116611116111111666611116161166161166161111111166116611111669111116111161111111111111111111161110000000000000000000000000000000000000000000000000000000000000000000000000000000000000000000000000000000000000000000000000000000000000000000000000000000000000000000000000000000000000000000000000000000000000000000000000000000000000000000000000000000000000000000000000000000000000000000000000000000000000000000000000000000000000000000000000000000000000000000000000000000000000000000000000000000000000000000000000000000000000000000000000000000000000000000000000000000000000000000000000000000000000000000000000000000000000000000000000000000000000000000000000000000000000000000000000000000000000000000000000000000000000000000000000000000000000000000000000000000000000000000000000000000000000000000000000000000000000000000000000000000000000000000000000000000000000000000000000000000000000000000000000000000000000000000000000000000000000000000000000000000000000000000000000000000000000000000000000000000000000000000000000000000
1042950161 4ARIZONA 20001SHADEGG    11611111111161111611666666611166611111666666161166611666666666666666616666666116666666666111661661661611666666611661166616161161661696666111661166666111666661116666661166616661161111166661616166116661111666661116666661666111111611116111111616111116111116111666161611111111111111111166111111161611666111666666666666661611116666611111666111161661666116611161111161666161116616111111116161166616661111616111611111116161116661666666166111611111111111111611611611611111111116616166611111661166611666661611611611166111661611111111116616611116116916611611161616611666666116616611666661666616611666661161661161616666166116661616116116616661616661166161161111111616161116661616111116661616161666661666666611116661616611166111111111166161111116111111111661111111161161196166111611111161111116166916161111111111611111111166611111111611611111111161111611611111116111611611111119911111611116111116161611111111116116161661611116116116111111111666116166161661111616161616111111111616166111111111111111161116111111116111111161116111111616666611161166111161166611611666666166116661161616666661111166111611111661161111166616666666111111666666161611166116616111116161161116666111116111666616661611166111666111111166161111161161661116116616111661116611116111161666611116111166161166161116111166116611116111111116111161111111111111111111111110000000000000000000000000000000000000000000000000000000000000000000000000000000000000000000000000000000000000000000000000000000000000000000000000000000000000000000000000000000000000000000000000000000000000000000000000000000000000000000000000000000000000000000000000000000000000000000000000000000000000000000000000000000000000000000000000000000000000000000000000000000000000000000000000000000000000000000000000000000000000000000000000000000000000000000000000000000000000000000000000000000000000000000000000000000000000000000000000000000000000000000000000000000000000000000000000000000000000000000000000000000000000000000000000000000000000000000000000000000000000000000000000000000000000000000000000000000000000000000000000000000000000000000000000000000000000000000000000000000000000000000000000000000000000000000000000000000000000000000000000000000000000000000000000000000000000000000000000000000000000000000000000000000
1041510561 5ARIZONA 20001KOLBE      11611111111161111611666666611166611111666666161166611666666666666666666666666116666666666111661666661611666666611661166116161161661616666111661166166111666661116666661166666661161111161661616116116661111666661116666611166111111611116111166666111116116666611666161616661111119116111166111111199611666111161666666666661611111166611111666111116661666116616161111161666161116116111611116166666166661111616161611166661111116616666666166111111111111111111611611611611111111116616666666111161116616666661666611661166111161166616111111616161116166616616611661616611666166616611611666661666666611666661161661611661166666166661616116116166611616661166661161611111116161116661116191116661611161616666661666611116111616611166111111111166161111111166161161661611111161161161161111111111161611116161116161111111111611116666166119111111611611111161161161611611111116111611611111119911111111111111116161611119999116116166661611111111116111111111661111111166666111616161619111611111661166111911111111111161111111111111111111161116111111616661611111116161666166611611166661166116661161616666661166666661611111661161611116616666666111166166666666666166116666161616661161116666111166116666616661116161116616611111166116111111161661116166116161661116611116111111666111116111166161116111116161116111111111111161111111161111111111111111111111110000000000000000000000000000000000000000000000000000000000000000000000000000000000000000000000000000000000000000000000000000000000000000000000000000000000000000000000000000000000000000000000000000000000000000000000000000000000000000000000000000000000000000000000000000000000000000000000000000000000000000000000000000000000000000000000000000000000000000000000000000000000000000000000000000000000000000000000000000000000000000000000000000000000000000000000000000000000000000000000000000000000000000000000000000000000000000000000000000000000000000000000000000000000000000000000000000000000000000000000000000000000000000000000000000000000000000000000000000000000000000000000000000000000000000000000000000000000000000000000000000000000000000000000000000000000000000000000000000000000000000000000000000000000000000000000000000000000000000000000000000000000000000000000000000000000000000000000000000000000000000000000000000000
1042950261 6ARIZONA 20001HAYWORTH   11611111111161111691666666611166611111666666161166611666666666666666616666666116666666666111661661661611666666611661166616161161661616666111661166166111666661116666661166616661166111166661616116616661111666661116616691166111111611116111161616111116111116611666161616611111111111111166111111161611666111666666666666661611116666611111616111161661666116611161111661666161116616111111116116166116661111616111611116616161116161666666166111611111111111111611611611611111111116666666611111661161611666661611611111166611661611111111116611161116111116611611661616611666666116616111666661666616611666661161661161616666166116161116116166616661616661166661161611111116161116661116111116661616166666661661666611116661616611166111111111166161111116111111111661111111161161161161111111111161111116161116161111111111611111116166611111111611611111111166111611611111116111611611111111611161111111111116161611111111116116166661111116116116111111111666111166161161111611161616111111111666166111111111111111161116111111111111111161116111111616661611111166111161166611611166661166116661161616666661111166161611111661161111111116666666111161666666111661166116616111616161161116666111116111666116661611166111661111111166161111111161661116111616166161116611111111111666111116111166161116111111111116111611116111111111111161111111111111111111111110000000000000000000000000000000000000000000000000000000000000000000000000000000000000000000000000000000000000000000000000000000000000000000000000000000000000000000000000000000000000000000000000000000000000000000000000000000000000000000000000000000000000000000000000000000000000000000000000000000000000000000000000000000000000000000000000000000000000000000000000000000000000000000000000000000000000000000000000000000000000000000000000000000000000000000000000000000000000000000000000000000000000000000000000000000000000000000000000000000000000000000000000000000000000000000000000000000000000000000000000000000000000000000000000000000000000000000000000000000000000000000000000000000000000000000000000000000000000000000000000000000000000000000000000000000000000000000000000000000000000000000000000000000000000000000000000000000000000000000000000000000000000000000000000000000000000000000000000000000000000000000000000000000
1042910371 1CALIFOR 20001RIGGS      11611111111161111611666666619166611111666666161166691666666666666666616666666116666666666111661161661611666666611661166116191161661616666111661166166191666661116666661166616661161111166661616116616661111666661116616661196111111611116111161616111116116116111666161616111111111116111166111111161611666111666666666666661611116666619119666111161666666966611161111111661166191616111111116666666166661111616161611166611611116161666666166111111111111111111619611611611111111116666661666111161166616666661111611661666111661611611111166616161666666116616611661161611666666666616111666616666616611661661196661611666166166116161616199916616616611661161661161611111166161116661196111116611611161666666661666611116961116611166111111111166161911116111111111661911111169161161161911111111161111116161916661111111111611111166966611111111611611111111161191611611111116111611611191111611111111111111116111611111111996117161661111111116116111119111661111161161661111616161616111111111161166111111111111911611111119111111111111161116119911616661611111191111966166611611161611111161661161616666611111111161611119661166611111111666616611111666666161666166616911616616161111116666111166119666116161116166111666611111166166111111161666996166116166161116119111111999666111116199166161111611111111199999911111111111111111161111111111111111191161110000000000000000000000000000000000000000000000000000000000000000000000000000000000000000000000000000000000000000000000000000000000000000000000000000000000000000000000000000000000000000000000000000000000000000000000000000000000000000000000000000000000000000000000000000000000000000000000000000000000000000000000000000000000000000000000000000000000000000000000000000000000000000000000000000000000000000000000000000000000000000000000000000000000000000000000000000000000000000000000000000000000000000000000000000000000000000000000000000000000000000000000000000000000000000000000000000000000000000000000000000000000000000000000000000000000000000000000000000000000000000000000000000000000000000000000000000000000000000000000000000000000000000000000000000000000000000000000000000000000000000000000000000000000000000000000000000000000000000000000000000000000000000000000000000000000000000000000000000000000000000000000000000000
1041542071 2CALIFOR 20001HERGER     11611111111161111611666666611166611111166666161166611666666666696666616666666116666666666111661161661611669666611661166616161161661696666111661166166111666661116666661166616661161111166666616116116661111666661116666661166111111611119111111616111116116116111666161616111111111111111166111111161611666111666666666666661611116666611111666111161661666116611166111661661161196616111111116166666166661111616111611116116161116161666966116111111111111111111619611611611111111166616666661111161166611666661611611111166111661611111111116616661616666616166611161616611666666166616111666661666661611661661161661166616666166196661616116166616661116691166661191611111616161116611116111116661611161666666611666611116611616611166111111111166161111116611111111661111111166161161161111111111161111116161116111111111111611111111169611111111611611111111161111611611111116111611611191111611111111111111116111611111111116666666661111111916116111111111666111166661661111616161616111111111666166111111111111111111116111111111111111161116111111616661611999961111661166611611166661166116669961616116661111666611611111666166661116116666666111166666666661611166116616111116161161116666111116111666616661611666111666111111166161611111161666616116616116661116619111111111666111116111166161116161111111166111611116991111111111161111111111111111119111110000000000000000000000000000000000000000000000000000000000000000000000000000000000000000000000000000000000000000000000000000000000000000000000000000000000000000000000000000000000000000000000000000000000000000000000000000000000000000000000000000000000000000000000000000000000000000000000000000000000000000000000000000000000000000000000000000000000000000000000000000000000000000000000000000000000000000000000000000000000000000000000000000000000000000000000000000000000000000000000000000000000000000000000000000000000000000000000000000000000000000000000000000000000000000000000000000000000000000000000000000000000000000000000000000000000000000000000000000000000000000000000000000000000000000000000000000000000000000000000000000000000000000000000000000000000000000000000000000000000000000000000000000000000000000000000000000000000000000000000000000000000000000000000000000000000000000000000000000000000000000000000000000000
1041462471 3CALIFOR 10001FAZIO      66161161161611966116111111166111166616611111616611166111111111111111161111961111111111111611166166116166111111161116611161616611116161111666111111611166611111111111111611161116111111111111111161161116616111111661116661111611111996619991166166616661666666611111611166666661161116166611661161611111111161616111111666611616666661166666166669999999996661166616666611111666161111166666666611666161116696166666116666666616666616111111661111111666666666666116116166166666666616666611166116616611166111111666166666616661116996666611166661666666666616616166616161611166116661111116611166111166161116116611116611161161611616111661161666169661111916161111111111116161116696111161111661116166616111116111199996111111616166611661111666111616661661166166669116611111161616616116666699616611666161616666161166666661661116666111116111111166161611666616166166196161666166116166691666199999999999111161161166166661666661111116116111661611661166666116161116616666166161166111666611666111611616666666666611661661119166661619161116116116666161661116611611666611661166111161116111661111661111661116661111111111116111666661661116666111111116116166666166161666611166661611161661111116661166111161111116611116111661111611699999999999999666666116666161611166661611616111166611111611611111111611161111111119999996661661116611611111111616666611161610000000000000000000000000000000000000000000000000000000000000000000000000000000000000000000000000000000000000000000000000000000000000000000000000000000000000000000000000000000000000000000000000000000000000000000000000000000000000000000000000000000000000000000000000000000000000000000000000000000000000000000000000000000000000000000000000000000000000000000000000000000000000000000000000000000000000000000000000000000000000000000000000000000000000000000000000000000000000000000000000000000000000000000000000000000000000000000000000000000000000000000000000000000000000000000000000000000000000000000000000000000000000000000000000000000000000000000000000000000000000000000000000000000000000000000000000000000000000000000000000000000000000000000000000000000000000000000000000000000000000000000000000000000000000000000000000000000000000000000000000000000000000000000000000000000000000000000000000000000000000000000000000000000
1042910471 4CALIFOR 20001DOOLITTLE  11611111111161911611666666611166611111666666161966611666666666666666616666666116666666666111661161661611666666611661166616161161661616666111661166166111666661116666661166616661166111166661616116161661111666661116616611166111111611116111111616111116111116111666161616111111111111111166111111161611666111666666666666661611116666611111616111161661666116611161111661661161116616191111116166666166661191616161611116616161116161666666111111119111111111111619611611611111111166666966666111661166661666661611611611166111661611111116116616661666666616616611161616611666666116616611666661666666611666661161661161616666166116161616116166616661116661166661961611111116161196661116111116661611161666666616666611116661616161166111111111166161111116611111111661111111161161161161111111111161111116161116111111111111611116111166611111111611611111111161111611619111116111611611191111611111111111191116111611111111116666166661611116116116111111111666111966661161111616161616111111111666166111111111111111611111111111111111111161116111111616666611161166111661166611611166661166116661161616966661111166111619191666166661111616666666111166666666661611166116616111616161111116661111166111666616661611166111666111611966166111111161661116116616166661166669116111111666111116111166161116161111111166111611111111111116111161111111111111111111999910000000000000000000000000000000000000000000000000000000000000000000000000000000000000000000000000000000000000000000000000000000000000000000000000000000000000000000000000000000000000000000000000000000000000000000000000000000000000000000000000000000000000000000000000000000000000000000000000000000000000000000000000000000000000000000000000000000000000000000000000000000000000000000000000000000000000000000000000000000000000000000000000000000000000000000000000000000000000000000000000000000000000000000000000000000000000000000000000000000000000000000000000000000000000000000000000000000000000000000000000000000000000000000000000000000000000000000000000000000000000000000000000000000000000000000000000000000000000000000000000000000000000000000000000000000000000000000000000000000000000000000000000000000000000000000000000000000000000000000000000000000000000000000000000000000000000000000000000000000000000000000000000000000
1041464971 5CALIFOR 10001MATSUI     66161111161611166161111111166111166619611666616111166111111611111111161661111616161116611611111111116166111111161999999999916616116161111666111611611116111111111111116611161116111166111111161661661116666111116661111166611611111616611161166166616161666666611111611161666661111116116611661161611111111111111111111111661616661611161661666666616616116611166616666611111616111111199966666661166161116696166661116666666616666616111111661166111666666666666161116166166666666616161111666616616611166111116666166666611661116996666611166661666666666616611166616161661166166661191166611166111116161116116611111611961161611666111116661661166161111116161111161111116161616611111116111611116161611111116111111161111111611116611611111666111616661661166161661116611111116616116616166666616611666161616611661166666661661116666111616111111166161611666616166166176111666666116166611666166666166199111661161111166661666661111166111111661611661166661116161611616166166161666161666611666116611616666666666111661661111161661611191116116116666161111116611611666616661166161161666111661111166111661116661111166169911161116661666111666661111116116111166166611661619166661116161661161111661166111161111116611616116661111611699999999999999666666111661161611161661611116116166666111611611111611611166111111111111911661661116616611111111616666616161610000000000000000000000000000000000000000000000000000000000000000000000000000000000000000000000000000000000000000000000000000000000000000000000000000000000000000000000000000000000000000000000000000000000000000000000000000000000000000000000000000000000000000000000000000000000000000000000000000000000000000000000000000000000000000000000000000000000000000000000000000000000000000000000000000000000000000000000000000000000000000000000000000000000000000000000000000000000000000000000000000000000000000000000000000000000000000000000000000000000000000000000000000000000000000000000000000000000000000000000000000000000000000000000000000000000000000000000000000000000000000000000000000000000000000000000000000000000000000000000000000000000000000000000000000000000000000000000000000000000000000000000000000000000000000000000000000000000000000000000000000000000000000000000000000000000000000000000000000000000000000000000000000000
1042930971 6CALIFOR 10001WOOLSEY    66161111161611966166111111166111166616116111616611196111111111111111161111111611161916111661111116116166116111169116611161666666116161111666111611611116111111611111116611161116111116611111161611661116666111116961111166611611111916671161166166616161666116611111616166666661111116116611666161611111111111111111111111116616661111191661661666616116111661166616666111111616661111666166661111111611116666166661116661661616666616111111661166111666666666666161116166166666666616111111166616616611166111116166166166611661116166666611166161116661666111166666616161661161111661161166111166161611161161116616116616161161611611111161661111161116111116111616111111116161616611111661611661116166611161916116111161111111111116611611111666161611611661166666666116611111116616616616666666616611666161616661661166666661661116666111116111166166161611666616166166176161666666116166661666166666166161111661161166166661666666111116111661661661661166661116161716616166166161666161666611666111611616166666666111611666111161661611161116116119666161111166111611666616666166161111116111661111111111111111661111161161111111116611661111111111611111111111666166111661161166661116111661116111661166111161111116611616116661116611616111111116116666666611661111611161661611116666166661611611611111611611166111111611116111661661116616611111111616666616161610000000000000000000000000000000000000000000000000000000000000000000000000000000000000000000000000000000000000000000000000000000000000000000000000000000000000000000000000000000000000000000000000000000000000000000000000000000000000000000000000000000000000000000000000000000000000000000000000000000000000000000000000000000000000000000000000000000000000000000000000000000000000000000000000000000000000000000000000000000000000000000000000000000000000000000000000000000000000000000000000000000000000000000000000000000000000000000000000000000000000000000000000000000000000000000000000000000000000000000000000000000000000000000000000000000000000000000000000000000000000000000000000000000000000000000000000000000000000000000000000000000000000000000000000000000000000000000000000000000000000000000000000000000000000000000000000000000000000000000000000000000000000000000000000000000000000000000000000000000000000000000000000000000
1041425671 7CALIFOR 10001MILLER  GEO66161161161611166161111111166111166616111161616911196111111111111111161111111619161111111661116116116166119111661116611161616616116161111666111611611116111111161111116619999916111116611111169999991116666111116661111111611611111116661166166161696661666666611111611166666661111166116611661191611191111911111119111199999999661111166666661666616116111661166616666111111616661161666966661611111611116666116161166661661616666616111111661111611666666666666161169966166666666661111111166616616611166111116666116666611661116161666916166661116661119991166166116161661161116661161166111166111111111116116691111616161161611616161161661611161166111116911111111111111161116661111161611961116116611161116116111166111111111166611611611699961611611661666166666119911111116616616616666666616611666661616661661166666661661111661111116111166166161611666616666166176661666666116166666666166666166199111661161166166661666111111616916661661611661166661116161111616616166161666111666611666111611666666666666111661661111161661611661116116116666161611116999911666116669166161111116111661111111161111111661111111161111116111616669111111111611111111111666166611661161116661116111661111161661666111161111116611699999999999999916111161116166666166111661111661161699611116161166661666611611161616611166111111611116116661661116616611111111616666616161610000000000000000000000000000000000000000000000000000000000000000000000000000000000000000000000000000000000000000000000000000000000000000000000000000000000000000000000000000000000000000000000000000000000000000000000000000000000000000000000000000000000000000000000000000000000000000000000000000000000000000000000000000000000000000000000000000000000000000000000000000000000000000000000000000000000000000000000000000000000000000000000000000000000000000000000000000000000000000000000000000000000000000000000000000000000000000000000000000000000000000000000000000000000000000000000000000000000000000000000000000000000000000000000000000000000000000000000000000000000000000000000000000000000000000000000000000000000000000000000000000000000000000000000000000000000000000000000000000000000000000000000000000000000000000000000000000000000000000000000000000000000000000000000000000000000000000000000000000000000000000000000000000000
1041544871 8CALIFOR 10001PELOSI     66161161161611999969111111166111166666611161616611166111111111111111161119111611161111111611116116116166111111161116611161616616116161111666111611611166111111161111116611161116111116611111169999991116666111116669111166611611111196661161166161616661666661611111611166666661161196116691666119999111911119111111111111116616661111169661666666616116119961116616666911111616611111699961661611111161116666191661116666661616666616111111661116111666666666666161666166166666666616111111666616116611166111116166166666611661116166666611166161116661666111166166616161661161116661161116111166191111169116116116111611161161661616161161661611166116111996111666199111111161116611111161611611116166611161116111111161111111111166611611111666161616661661166666666119911111116616116616166666616611669161616611661166667661661996661111117999911166991611666616666166176661666166116166611666199966166161111661161166166661666166111116111666661661661166691116161111616166166161666161666611666116611666969999996611161166111161661611161116111116666961111166111611666116666166161161116111661111111111111111661911166161911111111611661111111111611111191111616166611661761166661116111671111161661166111161111116611666116661116611616111111116116666666111661111911161699611916666166661611611611161616611166111111111111111667761177616611111111616666616161610000000000000000000000000000000000000000000000000000000000000000000000000000000000000000000000000000000000000000000000000000000000000000000000000000000000000000000000000000000000000000000000000000000000000000000000000000000000000000000000000000000000000000000000000000000000000000000000000000000000000000000000000000000000000000000000000000000000000000000000000000000000000000000000000000000000000000000000000000000000000000000000000000000000000000000000000000000000000000000000000000000000000000000000000000000000000000000000000000000000000000000000000000000000000000000000000000000000000000000000000000000000000000000000000000000000000000000000000000000000000000000000000000000000000000000000000000000000000000000000000000000000000000000000000000000000000000000000000000000000000000000000000000000000000000000000000000000000000000000000000000000000000000000000000000000000000000000000000000000000000000000000000000000
1041301171 9CALIFOR 10001DELLUMS    66166176161611166161111111166111166616111111616611166111111111111111161111111611161111111661111116116166111111166116611161696616116161111666116111611116111117661111116611161116111616611116161661661116666111116961111166611611111116661161166161666661666666611111611166666661111166116661666161616911116111111111111111116616661111161661661666616116111661166616666111111616611111666166661611111161116666166666166661661616666616111111661166111666666666666169999996166666666666111111166666616611166111116166166666611661116161666616166161116661116161161166616161666161111661161166111166111111161116116616116616961161611661111161661611161116611116111116111111116161616661166661611611116166611161116116111169111111111166611611616666161616661661666166661116611111616616116616166669616611666661616661661166666661661116666111116111166166161611666616666166179166666666116166661666166666166161999661666166166661666161111116111661661661661166669116199916616166666161666161666611666166611666166666666111661666111161661611166116111116666161111166116611666116616666161111116611661111111161111111661111666169191111116616661111111111611111111111616166111661161166661116111661111161661666111161111116611666116661116661616111161116116661666611661111661161661611116111166661616611611161616611166111111619999111661661116616661111111666999999999990000000000000000000000000000000000000000000000000000000000000000000000000000000000000000000000000000000000000000000000000000000000000000000000000000000000000000000000000000000000000000000000000000000000000000000000000000000000000000000000000000000000000000000000000000000000000000000000000000000000000000000000000000000000000000000000000000000000000000000000000000000000000000000000000000000000000000000000000000000000000000000000000000000000000000000000000000000000000000000000000000000000000000000000000000000000000000000000000000000000000000000000000000000000000000000000000000000000000000000000000000000000000000000000000000000000000000000000000000000000000000000000000000000000000000000000000000000000000000000000000000000000000000000000000000000000000000000000000000000000000000000000000000000000000000000000000000000000000000000000000000000000000000000000000000000000000000000000000000000000000000000000000000000
104293107110CALIFOR 20001BAKER  BILL11611111111161111611666666611166611111666666161966611666666666666666616666666116666666666111661661661611666666611661166616161161661616666111661166166191666661116666661166616661166111166666616116116661111666661116666611166111111611116111111916111116111116611666161616161111111111111166111111161611666111699666666666661661116666611111616111161661666116661161119661666161116616111111116666666166661111616111611116116661116161666666111111111111111111111619911911611111111116666666611111661166611666661611611611166111661611111116116616661116166616616666161116611666666116616611666661666666611666661661666161616666166166661616116166616661616661166166161611111116161116661116111116661616161666666611666611111161611161166111111111166161111116111111111661199111111161161161111111111161111116161116111111111111611111111166611111111611611111111161111611619111116111611611111111611111111111111116161611111111111111161661611116116166111111111666111161161611111616161616111111111666166111111111111111611111111111111111111161116111111616666611161966111661166611611166661166116661161616666661111166111619991661166661116616666666111116666666661611666116616111116161111116666111116111666616661611166111666111611166161611111161661116616616166661116619111111111666111116111166161166161111111116119611116111111111111161111111111111111111111110000000000000000000000000000000000000000000000000000000000000000000000000000000000000000000000000000000000000000000000000000000000000000000000000000000000000000000000000000000000000000000000000000000000000000000000000000000000000000000000000000000000000000000000000000000000000000000000000000000000000000000000000000000000000000000000000000000000000000000000000000000000000000000000000000000000000000000000000000000000000000000000000000000000000000000000000000000000000000000000000000000000000000000000000000000000000000000000000000000000000000000000000000000000000000000000000000000000000000000000000000000000000000000000000000000000000000000000000000000000000000000000000000000000000000000000000000000000000000000000000000000000000000000000000000000000000000000000000000000000000000000000000000000000000000000000000000000000000000000000000000000000000000000000000000000000000000000000000000000000000000000000000000000
104293117111CALIFOR 20001POMBO      11611111111161111661666666616166611111666666161999911666666666666666616666666116666666666111666161661611666666611661166616161161661616666111661166166161666661116666161166616661161111166661616116616661111666661116616611166111111611116111111616111616111116611666161616161111191111161166111111161911666161666666666666661611116666616116616111161661666116611161111661666161196616111111116166666166661161616161611116616161116161666666111111111111111111111619611611611111111166666616666111661166661666661611611111166111661611111116116616661616666616616666161616611666666166616611666661666666611666661161661161616666166116161616116166616661116661166661161611111116161116661116111166661611166666666616666616116666616661166161111111166161111116611111116661111111161161661161611111111161111116161196111111111111611116111166611111111611611111111161111699611111116111611611191111611111111111111116161611111111116666666661116116116116111111116666111166111161111616161616111111111666166111611111111611611116111119111111611161116111111616666611161161111661166611611166661166116661161616666661111161111691116666666666111616666666111166666666161611166116916111116161111116661116116111666616661611166111666111619166161111161161661116616616666161116619111111961666611116111166161116161111111116111611111116111111111161111111111111111111111110000000000000000000000000000000000000000000000000000000000000000000000000000000000000000000000000000000000000000000000000000000000000000000000000000000000000000000000000000000000000000000000000000000000000000000000000000000000000000000000000000000000000000000000000000000000000000000000000000000000000000000000000000000000000000000000000000000000000000000000000000000000000000000000000000000000000000000000000000000000000000000000000000000000000000000000000000000000000000000000000000000000000000000000000000000000000000000000000000000000000000000000000000000000000000000000000000000000000000000000000000000000000000000000000000000000000000000000000000000000000000000000000000000000000000000000000000000000000000000000000000000000000000000000000000000000000000000000000000000000000000000000000000000000000000000000000000000000000000000000000000000000000000000000000000000000000000000000000000000000000000000000000000000
104148377112CALIFOR 10001LANTOS     66161111161611966161111111196111166616616161616611166111111111111111161111111111161116111161166666111666111111169116611161699999999961111666111611611166111111111111116611961116111116611111111611661116666111116661111166611699999616611161169166616661666116611111611161666669911166116611661161611111111111111111111111116616661111161661666666916111911661116616996111111616611111166666666611111161116666166661116699999616666116111111666166111666666666666161119999999999666611611111166616696611166111116166166666611669116161666616166661116661699991161666616161691161111661116166611166111166161116116111111616961161611661111161661616166116119999911111111119999991116661111161111611116161611161116116111161111111111116611611111666161616611661166161666116611119116616616616166666616611966161616611661166666661661116666111116111116166161611666616666166179169999999999999999999966666166961111661161166166661661161111116111111661611661166661111161111616666166161666111666611666199911696166666666111669661111166661611161116116116666161611116111611666616661166161161116111661999111111161111661111161169991111911691661616116111611111199999666166611661611166661116111661111111999996111161111116611616116661111611616111111116116666666691661111661161661611116111196661611611611111611619999911111111111111661661116616611111111616666616161610000000000000000000000000000000000000000000000000000000000000000000000000000000000000000000000000000000000000000000000000000000000000000000000000000000000000000000000000000000000000000000000000000000000000000000000000000000000000000000000000000000000000000000000000000000000000000000000000000000000000000000000000000000000000000000000000000000000000000000000000000000000000000000000000000000000000000000000000000000000000000000000000000000000000000000000000000000000000000000000000000000000000000000000000000000000000000000000000000000000000000000000000000000000000000000000000000000000000000000000000000000000000000000000000000000000000000000000000000000000000000000000000000000000000000000000000000000000000000000000000000000000000000000000000000000000000000000000000000000000000000000000000000000000000000000000000000000000000000000000000000000000000000000000000000000000000000000000000000000000000000000000000000000
104140537113CALIFOR 10001STARK      66161161161699166166111111166119166916111111616191199111111111111111161111111691199116111661116116116166119999999116611161616616119161191666111111611166111111961111116611161116111116611116161661191116666111116661111166611611111116661161169161666161666666611111611161666661111166119666666161616111191111111111111111119616661111166666161666616111111699161616666111111616611111666196661611191661116666166661166661611616666616911111699999111666666666666169166166169999666661199111166619616611166111116999996666699669916161666616166661996661116161169996116161666961119661161166111166111111169999996616116616961161611661111161661611161116661116111116111111111161616661111691611661116166616166661616911166111111169996611611111666161611611661666666661116611111616616116616966666616611666661616661661166699661661116666111116111166166161611666616661166176661666699996166691666199999999999111661661166666661661119111166111661661661661196666116161116999999999999999999996691666166611666666666666611161666111166661611666116119996666169111166611611666616616666161111116611661119916161111191661111166161111116111616661111111111611111111111666166611661661166661116116669999961661696111161111116611666116661166661616111161116116669666611661611611161661616116166166661616911616619911611166111111611169119661961116616611111111666666616161610000000000000000000000000000000000000000000000000000000000000000000000000000000000000000000000000000000000000000000000000000000000000000000000000000000000000000000000000000000000000000000000000000000000000000000000000000000000000000000000000000000000000000000000000000000000000000000000000000000000000000000000000000000000000000000000000000000000000000000000000000000000000000000000000000000000000000000000000000000000000000000000000000000000000000000000000000000000000000000000000000000000000000000000000000000000000000000000000000000000000000000000000000000000000000000000000000000000000000000000000000000000000000000000000000000000000000000000000000000000000000000000000000000000000000000000000000000000000000000000000000000000000000000000000000000000000000000000000000000000000000000000000000000000000000000000000000000000000000000000000000000000000000000000000000000000000000000000000000000000000000000000000000000
104293127114CALIFOR 10001ESHOO      66161111161611166161111111166111166616611111616111166111111111111111161111111111166111111161161666116166111111161116611161616611116161111666111611611116111111111191616611161116111116611111661611661116616116111661111166111611111616671161166161616161666116611161611161661661111116116611661161611111111111111111111111116616661111161661166666616166111661166616666111111616611161666166661611111611116666161161116666661616666616111111661166111666666666666161116166166666666611111111116616616611166111111161166666611661116166666611116161116111666161161666116161661161116661161116611166161116161116116661111611661161661616161161161111161161111116111111111111116161116611111161611611116161611161166116111161111111116116611611111666111611661661166166661116611111116616116616166666616611661161616611661166666661661116661111116111111166161611666616166166166161666166116166611666166666166161111661161161166661661111111616111161661611661161661116191111616616166161666611666611666111699999996666666111661666111161661611166116116116666161611116111611666616661166111161116111161111911111161111661111161161111111111616661111116111611111111111666166611666611116661616161661161111661166111166111116611611116661111611616111111116116666666111661111661161661611119666166661666611611111616611166111111611111111161661116116611111111616666616161610000000000000000000000000000000000000000000000000000000000000000000000000000000000000000000000000000000000000000000000000000000000000000000000000000000000000000000000000000000000000000000000000000000000000000000000000000000000000000000000000000000000000000000000000000000000000000000000000000000000000000000000000000000000000000000000000000000000000000000000000000000000000000000000000000000000000000000000000000000000000000000000000000000000000000000000000000000000000000000000000000000000000000000000000000000000000000000000000000000000000000000000000000000000000000000000000000000000000000000000000000000000000000000000000000000000000000000000000000000000000000000000000000000000000000000000000000000000000000000000000000000000000000000000000000000000000000000000000000000000000000000000000000000000000000000000000000000000000000000000000000000000000000000000000000000000000000000000000000000000000000000000000000000
104142577115CALIFOR 10001MINETA     66161111161611166166111111166111166616111111616611166111111111111111161111111611161116161611116116116166111111161116611161616616116161111666111611611166111111111111116611161116111116611116161666161116166116111661111166661611111616671161166166616661666666611111611166666661161116116611666161611111111161611111111111116616661111166661666666616111111661166616666191111616611111699966666611111661116666166661166666666616666616111111661166111666666666666166116166166666666616166611666616616611166111116166166666911661116161666611166661116661666161166666616161666161111661161166611166111116161116116616111616161161611666111161161116166161111116161111111999111161616611161666111661116166611770000000000000000000000000000000000000000000000000000000000000000000000000000000000000000000000000000000000000000000000000000000000000000000000000000000000000000000000000000000000000000000000000000000000000000000000000000000000000000000000000000000000000000000000000000000000000000000000000000000000000000000000000000000000000000000000000000000000000000000000000000000000000000000000000000000000000000000000000000000000000000000000000000000000000000000000000000000000000000000000000000000000000000000000000000000000000000000000000000000000000000000000000000000000000000000000000000000000000000000000000000000000000000000000000000000000000000000000000000000000000000000000000000000000000000000000000000000000000000000000000000000000000000000000000000000000000000000000000000000000000000000000000000000000000000000000000000000000000000000000000000000000000000000000000000000000000000000000000000000000000000000000000000000000000000000000000000000000000000000000000000000000000000000000000000000000000000000000000000000000000000000000000000000000000000000000000000000000000000000000000000000000000000000000000000000000000000000000000000000000000000000000000000000000000000000000000000000000000000000000000000000000000000000000000000000000000000000000000000000000000000000000000000000000000000000000000000000000000000000000000000000000000000000000000000000000000000000000000000000000000000000000000000000000000000000000000000000000000000000000000000000000000000000000000000000000000000000000000000000000000000000000000000000000000000000000000000000000000000000
104156007115CALIFOR 20002CAMPBELL   00000000000000000000000000000000000000000000000000000000000000000000000000000000000000000000000000000000000000000000000000000000000000000000000000000000000000000000000000000000000000000000000000000000000000000000000000000000000000000000000000000000000000000000000000000000000000000000000000000000000000000000000000000000000000000000000000000000000000000000000000000000000000000000000000000000000000000000000000000000000000000000000000000000000000000000000000000000000000000000000000000000000000000000000000000000000000000000000000000000000000000000000000000000000000000000000000000000000000000000000000000000000000000000000000000000000000000000000000000000000000000000000000000000000000000000000000000000000000000000000000000000000000000000000000000000000000000000000000000000000000000000000000000000000000000000000000000000000000000000000000000111116111611661111111611161111111111116161661111111111111161661611161111616611111111166116161616611111611111666161611111611166111111111116111611116111161111111111161111111111616666611161111166166161611661616161166116661116616666661161111661611111666161611116111116111611111161611161111616111611111116661161116661111116111116661161111111166616161111166111611111161666666616111111161116611116111111666111111611166161666661111166161111611111111661111111111611111111111911111161110000000000000000000000000000000000000000000000000000000000000000000000000000000000000000000000000000000000000000000000000000000000000000000000000000000000000000000000000000000000000000000000000000000000000000000000000000000000000000000000000000000000000000000000000000000000000000000000000000000000000000000000000000000000000000000000000000000000000000000000000000000000000000000000000000000000000000000000000000000000000000000000000000000000000000000000000000000000000000000000000000000000000000000000000000000000000000000000000000000000000000000000000000000000000000000000000000000000000000000000000000000000000000000000000000000000000000000000000000000000000000000000000000000000000000000000000000000000000000000000000000000000000000000000000000000000000000000000000000000000000000000000000000000000000000000000000000000000000000000000000000000000000000000000000000000000000000000000000000000000000000000000000000000
104295047116CALIFOR 10001LOFGREN    66161111161611166191111111161111166616611111616111166111111111111111161111111111161111111661111116116166119999999116661161616616116161111666111611661116111117111111616611161116111116611116161611661116616111111661111166611611111116671161166166616161666666611111616161666661111116116611666161611111111111111111111111166616661111161661666666616611119999999999666111111666611111666166661661111611616666161161116666661666666616111111661166661666666666666169116166166666666661111166666616616611166161616166166666611661116166666611166161116611616161161666616161666661111661161166611666111116161116116161111611161161661666111161161111161166111116111111161111116161616611161661611611116166611161166116111161111111111166611611111666161611611111166666661116611111116616116616166666616611666161616961661166676661661116666111116116111166169999666616611166176661666166116166699999966666169999111661661166166661661161111666111661661611661116161116116116616666166161666661666611666116611666166666666111611666111161661611161116116116666166111666111611666116661166111111116111161111116111661116661111161161111111161616661111111111611111111111666166111666666116661616161661161111611666111161111116611611116661116661611611111116116666666111661111611169661611116666166661616611611661611611161111111111116111661661116616611111119616666616161610000000000000000000000000000000000000000000000000000000000000000000000000000000000000000000000000000000000000000000000000000000000000000000000000000000000000000000000000000000000000000000000000000000000000000000000000000000000000000000000000000000000000000000000000000000000000000000000000000000000000000000000000000000000000000000000000000000000000000000000000000000000000000000000000000000000000000000000000000000000000000000000000000000000000000000000000000000000000000000000000000000000000000000000000000000000000000000000000000000000000000000000000000000000000000000000000000000000000000000000000000000000000000000000000000000000000000000000000000000000000000000000000000000000000000000000000000000000000000000000000000000000000000000000000000000000000000000000000000000000000000000000000000000000000000000000000000000000000000000000000000000000000000000000000000000000000000000000000000000000000000000000000000000
104293137117CALIFOR 10001FARR       66161111161611966166111111166111166616611111616611166111911111111111161111111616166116111661111116116166111611161116611161616616116161111666111119611116111111191111116611161116111116611111161661661116616116661661111166611699999616671161166166616161666116611111611961666661111116116611661161611111111111111111111116611616661111161661666666616111116661166616666111111616661111666669666611111161116666161661116669661616666616111111661111611666666666666161116166166666166611111111166616616611166111111166166666611661116166666611166661166666666116611166616161661161116661161116611166111116161119116616111616661161611611111161661111166111111116111611111111116161616611111161611611116161611111166111111161111111111116611611111666161611661661166666669116611111116696116616966666616611661161616611161166666661661116661111116111111166161611666616166166176161666166116166611616166666166161111661161166166661666661611916111161661611661166661116191111616616169161666111666611666111611616166666666911611666111161661611161116116116666191611116111611666616661166111111116111661111161111661111661166111161111111116611661116116111611116111111666166111666611116691616161661111111661166111161111116611616116661111611616111111116116666666111661161611161661611119996166661611611611111611111161111111611111111661661116616611111111616666611161610000000000000000000000000000000000000000000000000000000000000000000000000000000000000000000000000000000000000000000000000000000000000000000000000000000000000000000000000000000000000000000000000000000000000000000000000000000000000000000000000000000000000000000000000000000000000000000000000000000000000000000000000000000000000000000000000000000000000000000000000000000000000000000000000000000000000000000000000000000000000000000000000000000000000000000000000000000000000000000000000000000000000000000000000000000000000000000000000000000000000000000000000000000000000000000000000000000000000000000000000000000000000000000000000000000000000000000000000000000000000000000000000000000000000000000000000000000000000000000000000000000000000000000000000000000000000000000000000000000000000000000000000000000000000000000000000000000000000000000000000000000000000000000000000000000000000000000000000000000000000000000000000000000
104156357118CALIFOR 10001CONDIT     66111111111111166161666666661166661111666666161166696666666666666661616666666116161161616161661161661611666666111166611111116611116161611666161166611111661661111666161166616661161111166661616199999999991666661116616611116111111616111111111116616111666611611161619161161619911111116661611111611111166111616166666666611611116666611111116116111161616166111166661111611166111111166111666161666116616666111961116611111111616116111111611111191699991616666111916166166616666161611111166616616616611116661191166111161611161111666111166661666666666611616666161161661166666116616116666611666966611661661111611611611166661696161616161611166611611116111161111119916161116116661116111111116611161166111919661111111111611616666611111161116611661111666111666666611111161616116116166666616111661166611916661166119611661116111116119111111611161111661666111166116161666166116116611116166166166161111661661161169161616661116111111111161111661166161661111161661611166161166111666111666116611111116111111111661111111111611611161111116116666161661611161611611611661116111116116111161611161616666611111111111111111666166661611111666116111166616116161611161166616111616111161611166111111661161111611111166111111161111611111611111116666616111611166161666161611611116666111116111611111161111691111116111611116111111161111161111111111111611111161610000000000000000000000000000000000000000000000000000000000000000000000000000000000000000000000000000000000000000000000000000000000000000000000000000000000000000000000000000000000000000000000000000000000000000000000000000000000000000000000000000000000000000000000000000000000000000000000000000000000000000000000000000000000000000000000000000000000000000000000000000000000000000000000000000000000000000000000000000000000000000000000000000000000000000000000000000000000000000000000000000000000000000000000000000000000000000000000000000000000000000000000000000000000000000000000000000000000000000000000000000000000000000000000000000000000000000000000000000000000000000000000000000000000000000000000000000000000000000000000000000000000000000000000000000000000000000000000000000000000000000000000000000000000000000000000000000000000000000000000000000000000000000000000000000000000000000000000000000000000000000000000000000000
104295057119CALIFOR 20001RADANOVICH 11611111111161111611666666611166611111666666161966611666666666666666666666696116696666666111661661961611666666611661166616161161661616669199661166199111666661116666661166616661161111166669616196666661111666661116666661166111111611116111166616111116116116111666161616111111111116111166111111161611666111666666666666661661116666611111666111161661666116611161111161666161116616111111116166166116661111616161611116111661116161666666161111111911191111111619911991611111111116616666666111661166616666661611661611166111661611111111116616661666666616616661161616611666666116616111666661666666611666661161661161916666166116161616116116616691616661966661161611111166161116661116111116661611161616661611666611116661616611166111111111166161111166111111111661111111161161161161911111111161119116161116111111111111111911161166611111111611611111111161111611611111116111611611111111611111111191111116161611199999196611666661611116116196111111119661199999999999999999999999991111111661166111111111111111161616111111111111111161116111111616661611161161111661166611611169661166116661161616661661111166111611911669166661116116666666111166666666661611166116616661116661161116666111116111666616661616166111666111611166161111111161161116111116616661116669111111111666611116111166161116161161111116111611116111111111111161111111119111111119611110000000000000000000000000000000000000000000000000000000000000000000000000000000000000000000000000000000000000000000000000000000000000000000000000000000000000000000000000000000000000000000000000000000000000000000000000000000000000000000000000000000000000000000000000000000000000000000000000000000000000000000000000000000000000000000000000000000000000000000000000000000000000000000000000000000000000000000000000000000000000000000000000000000000000000000000000000000000000000000000000000000000000000000000000000000000000000000000000000000000000000000000000000000000000000000000000000000000000000000000000000000000000000000000000000000000000000000000000000000000000000000000000000000000000000000000000000000000000000000000000000000000000000000000000000000000000000000000000000000000000000000000000000000000000000000000000000000000000000000000000000000000000000000000000000000000000000000000000000000000000000000000000000000
104291057120CALIFOR 10001DOOLEY     66661111111611166161666666661166666611666666161161666666666666966661666666666116166111611111661191661661116111111119911161666661116161111666161666166116661611111166161666616661161196161611611191161116611666611666116661161199999616616169166966116161666116611161611166666669911116116666661161611111116111666666666666611611666666611111166619916111616161116616666611111111111111199966666111161111116666166111119966616616666116111161661966111666666666669111116999999999666116116611666616616666666166611161166666166161111116666611161661676666666616616166611661661966166661161166611666111116161666666161161616661169666616161661161166166661611116166111111611116161111666111111611116661111611611666111161111111611696116611611111666111616611161166666666666611111161616116116166666616611661166611616111166666661661116666116116111111166161611666616166166166161666966116166611666166666166161111161161161166661666161111166111161661611661166661661161116616666166161166611669611666111691166116666666111661661111161661611161161116116666966661611111911666611661666111166166111661119161111661116661111161111111161166661661111666111611166666666666616661166616116666116161161111111161166661166111116661116116661111611616111111116666666666116666161616161661111116666161116111611611111111611166916111191119111661661116661611111111611616111161610000000000000000000000000000000000000000000000000000000000000000000000000000000000000000000000000000000000000000000000000000000000000000000000000000000000000000000000000000000000000000000000000000000000000000000000000000000000000000000000000000000000000000000000000000000000000000000000000000000000000000000000000000000000000000000000000000000000000000000000000000000000000000000000000000000000000000000000000000000000000000000000000000000000000000000000000000000000000000000000000000000000000000000000000000000000000000000000000000000000000000000000000000000000000000000000000000000000000000000000000000000000000000000000000000000000000000000000000000000000000000000000000000000000000000000000000000000000000000000000000000000000000000000000000000000000000000000000000000000000000000000000000000000000000000000000000000000000000000000000000000000000000000000000000000000000000000000000000000000000000000000000000000000
104146697121CALIFOR 20001THOMAS  WIL11611111111161111611666666611166611111666666161166611666666666666666666666666116666666666111661661661611666666911661166616161161661616666111661166166111666661116666161166616661161111166661616116666661111666661116666611166111111611116111166666111116116116611666161616661111111116111166111111161611666111666666666666661611116666611111666111116666666166616161111661661161116616111111116166166166661111616161611116611611116116666666119111111111111111111611611911611111111116666616666111161166661666661161661611166111161116611111116616661666666616616666661616611666666166616611666666666666611666661166661616661166666166111616116166166661666661166661161611111116161116661116111116661611161616666611666611116661616611166111111111166161111111166111169661111111161161161161191191111161611116161116111111111111111116111166611111111611611111161161111611691111116111611611111111611111111111111116111611111111116661161661611116111116111111111661911166661666111611116616119999111661166111111111116111611111111111111111111161116111111616666611111111161661166611611166661166116661161616666661611161161619991661166661116116666666111166966666661611666116616616616661161116661111166111666616161116161161666611111166166111111161666116161116116161116619111111111666111119111166161116111111111166111111111111111111111161111111111111111111161110000000000000000000000000000000000000000000000000000000000000000000000000000000000000000000000000000000000000000000000000000000000000000000000000000000000000000000000000000000000000000000000000000000000000000000000000000000000000000000000000000000000000000000000000000000000000000000000000000000000000000000000000000000000000000000000000000000000000000000000000000000000000000000000000000000000000000000000000000000000000000000000000000000000000000000000000000000000000000000000000000000000000000000000000000000000000000000000000000000000000000000000000000000000000000000000000000000000000000000000000000000000000000000000000000000000000000000000000000000000000000000000000000000000000000000000000000000000000000000000000000000000000000000000000000000000000000000000000000000000000000000000000000000000000000000000000000000000000000000000000000000000000000000000000000000000000000000000000000000000000000000000000000000
104295067122CALIFOR 20001SEASTRAND  11611111111161199611669666611166611111666666161166611666666666666666616666666116666666666111661161661611666666611661166616161161661616666111661166166199666661116666661166616661161111166661616116666661111666961116666611166111111611119111161916111196111116111666161616111111111111111166111111161611666111666666666666661611116666611111616111161661666116611161111661666161116616111111116166666116661111616111619911611161116161666666111111611191111111111611611999611111111116616666661111661166611666661611611611166111669611111166116616161616669999991611161616611666666116616611666661666616611666661191661161616666166166161616116166616611116661166661161611111116661116661116111116661611161666666611666611111111616611166111111111166161111116111111111661111111161161161161111111111161111116161116161111111111611111111196611111111611611111111161111611611111116111611611111111911111111111111116161611199999911111161661611111116116111111111666111161161611111616161616111111111661166111911111111111611111111111111111111161116111119616661611161161111661166611611166661966116661161616666661111161111611111661161611111116666666111111666666661666666116616111616161111116666111116111666116661611166111666111611166161111161161661116111111116661116619999111111666191116111166161116111111111116111611116111111111111161111111116111111111111110000000000000000000000000000000000000000000000000000000000000000000000000000000000000000000000000000000000000000000000000000000000000000000000000000000000000000000000000000000000000000000000000000000000000000000000000000000000000000000000000000000000000000000000000000000000000000000000000000000000000000000000000000000000000000000000000000000000000000000000000000000000000000000000000000000000000000000000000000000000000000000000000000000000000000000000000000000000000000000000000000000000000000000000000000000000000000000000000000000000000000000000000000000000000000000000000000000000000000000000000000000000000000000000000000000000000000000000000000000000000000000000000000000000000000000000000000000000000000000000000000000000000000000000000000000000000000000000000000000000000000000000000000000000000000000000000000000000000000000000000000000000000000000000000000000000000000000000000000000000000000000000000000000
104154137123CALIFOR 20001GALLEGLY   11611111111161911611666666611166611111666666161166611666666666666666616666666116666666666111661661661611666666611661166616161161661616666199999166166111666661116666661996616661161111166661616116666661111666661116616611166199999611116111161616111116116116111666161616661119911116111166111111161999996111666666666666661611116666611111666119161666696116611161111661661161111616199911116166666116661111616111611116616661116161666666111111111111111111111619999611611111111116666666661111161166666999999911661611166111661616611111116699999999999996616666161616611666666116616111666661666666611666661161661161966666166116161616116166616661616661166661161611111116161116661116111116661611161616666611666611116111616611166111111111166161111116111111111111199991161161161161111111991161111116161116161111111111611111111166611111111611611111119166111611611111116111611611119999999911111111111116111611111119116111166661611111116116199991611661111161161611111616166616111111111661166111119111111111111111111111111111111161116111111616661611999961111661166619999166661116111661161616666669961166661611111661161611111116666666199999999999661666166116616111616661161116666111166111666616661616166111666611111166166111111961666616666116666661116611111111111666111116111166161116111119911116111611111111111111111161111111111111111111111110000000000000000000000000000000000000000000000000000000000000000000000000000000000000000000000000000000000000000000000000000000000000000000000000000000000000000000000000000000000000000000000000000000000000000000000000000000000000000000000000000000000000000000000000000000000000000000000000000000000000000000000000000000000000000000000000000000000000000000000000000000000000000000000000000000000000000000000000000000000000000000000000000000000000000000000000000000000000000000000000000000000000000000000000000000000000000000000000000000000000000000000000000000000000000000000000000000000000000000000000000000000000000000000000000000000000000000000000000000000000000000000000000000000000000000000000000000000000000000000000000000000000000000000000000000000000000000000000000000000000000000000000000000000000000000000000000000000000000000000000000000000000000000000000000000000000000000000000000000000000000000000000000000
